:100000000C9494060C94BC060C94BC060C94BC0690
:100010000C94BC060C94BC060C94BC060C94BC0658
:100020000C94BC060C94BC060C94BC060C9496353F
:100030000C94BC060C94BC060C94BC060C94BC0638
:100040000C94F02F0C946C220C94A3320C94F1328B
:100050000C94BC060C94BC060C94BC060C94BC0618
:100060000C94BC060C94BC06036EDB363D9A999941
:10007000993DABAAAA2A3E000000803F084AD73B20
:100080003BCE016E84BCBFFDC12F3D6C74319ABD67
:1000900056833DDA3D00C77F11BED9E4BB4C3E918B
:1000A0006BAAAABE000000803F072C7AA5BA6CC5D7
:1000B00090DA3B9365FC8BBC53F810FD3C56928361
:1000C0004DBD879D3AB63DCBC9BF5BBE73DA0FC944
:1000D0003F00007000000000240000000200030048
:1000E0000000650054FFEF0000FA80000B12820050
:1000F00001030C30C30E8C8CE914D5400213710F30
:100100008E3883F8833000F883258EF8833000F82A
:1001100083FFFFFFFF0FFEA9D6240004001A827997
:10012000A10000003CFFFF00000010000038836FBA
:10013000A2003E03304000000002CAE3093E8000F6
:1001400000200000000000000040000000600000EF
:1001500000000C0000000C186E000006920A16C089
:10016000DFFFFF0256FD8CD377FFE1C496E0C5BEEA
:10017000AA00000000FFFF0B2B0000165700000331
:10018000594000000000001DFA00026C1D00000034
:10019000003FFFDFEB003EB3B6000D227800002FDA
:1001A0003C00000000001942B5000039A20000B375
:1001B00065D90E9FC91DCF4C34300000005000009F
:1001C000003BB67AE80064000000C80000000000B0
:1001D00000100000001000FA921000225E000D22B4
:1001E0009F0001000000320000FF46000063D400C1
:1001F000001000000004D6000004CC000004CC0075
:10020000000000107200000040000000000000002C
:100210000000060002000500070000000000640066
:100220000000000000000000050005006400200040
:10023000000000000000000000000040000000037B
:100240000000000032F8980000FF650000830F00F6
:1002500000FF9BFC00000000000000000000000008
:10026000000000000000000000000000000000008E
:10027000000000000000000000000000000000106E
:100280000040000000000000060000B26A0002000A
:10029000000001FB830068000000D9FC007CF1FF36
:1002A000830000000000650000006403E8006400B3
:1002B00028000000250000000016A000000000102B
:1002C0000000001000002F0000000001F4000010EA
:1002D0000000280000FFFF4581FFFFFA72000000C8
:1002E0000000000000004400050005BAC600477881
:1002F000A200000001000000000000060000000055
:10030000140000254D002F706D000005AE000C029A
:10031000D00000000000000000000000000000000D
:1003200000001B00000000000000000000000000B2
:100330000000640000000800000000000000000051
:1003400000000000000000000000000000000000AD
:10035000000000000000000000000000000000009D
:10036000000000000000000000000000000000008D
:10037000000000000000000000000000000000007D
:10038000000000000000000000000000000000006D
:1003900000001B00000000000000000000000E0034
:1003A0000E00000AC70004000000000032FFFFFF3B
:1003B0009C00000B2B000000020000000100000068
:1003C00064FFE500000000000000000000000000E5
:1003D000000000000100000000000100000000001B
:1003E0000000018000000180000001800000242640
:1003F000D30000000000000000000600100096007E
:100400003C000000000000000000000000000000B0
:10041000000C0A4E68CDCF770950166759C619CE21
:10042000820000000000000000000000000000004A
:1004300000000000000000000017D7840003000047
:10044000000000000000000000C7938F9D1E1B1CD1
:100450001900000000000000000000000000000083
:1004600000000000000000000002031885000040AA
:100470000000000003000000030000000000000076
:10048000004000000000000000000000000000002C
:10049000000000000000000000000000000000005C
:1004A000000000000000000000000000000000004C
:1004B0000000000000677DDF7E72902E554CF6E64E
:1004C00088000000000000000000000000000000A4
:1004D00000D8DCB4B8B0D8B9ABF3F8FAB3B7BB8E78
:1004E0009EAEF132F51BF1B4B8B08097F1A9DFDF11
:1004F000DFAADFDFDFF2AAC5CDC7A90CC92C97F1AF
:10050000A989264666B28999A92D557DB0B08AA8D9
:1005100096365676F1BAA3B4B280C0B8A89711B295
:100520008398BAA3F0240844106418B2B9B498832D
:10053000F1A329557DBAB5B1A38393F0002850F5F6
:10054000B2B6AA839328547CF1B9A3829361BAA26C
:10055000DADEDFDB819AB9AEF5606870F1DABAA253
:10056000DFD9BAA2FAB9A38292DB31BAA2D9BAA270
:10057000F8DF85A4D0C1BBAD83C2C5C7B8A2DFDF99
:10058000DFBAA0DFDFDFD8D8F1B8AAB38DB4980DF9
:10059000355DB2B6BAAF8C96198F9FA70E161EB4F2
:1005A0009AB8AA872C547CBAA4B08AB691325676EF
:1005B000B28494A4C808CDD8B8B4B0F19982A82D5B
:1005C000557D98A80E161EA22C547C92A4F02C5097
:1005D00078F184A898C4CDFCD80DDBA8FC2DF3D904
:1005E000BAA6F8DABAA6DED8BAB2B68696A6D0F31C
:1005F000C841DAA6C8F8D8B0B4B882A892F52C548D
:100600008898F135D9F418D8F1A2D0F8F9A884D98E
:10061000C7DFF8F883C5DADF69DF83C1D8F40114D6
:10062000F1A8824EA884F311D182F5D99228978837
:10063000F109F41C1CD884A8F3C0F9D1D99782F130
:1006400029F40DD8F3F9F9D1D982F4C203D8DEDF49
:100650001AD8F1A2FAF9A88498D9C7DFF8F8F88374
:10066000C7DADF69DFF883C3D8F40114F198A882F0
:100670002EA884F311D182F5D992509788F109F40C
:100680001CD884A8F3C0F8F9D1D99782F149F40DA8
:10069000D8F3F9F9D1D982F4C403D8DEDFD8F1ADAB
:1006A0008898CCA809F9D98292A8F57CF1883ACF2C
:1006B000944A6E98DB6931DAADF2DEF9D88795A8F5
:1006C000F221D1DAA5F9F417D9F1AE8ED0C0C3AEBC
:1006D00082C684C3A88595C8A588F2C0F1F4010E2E
:1006E000F18E9EA8C63E56F554F18872F40115F1BC
:1006F0009845856EF58E9E0488F142985A8E9E0626
:100700008869F4011CF1981E1108D0F504F11E97B8
:100710000202983625DBF9D985A5F3C1DA85A5F360
:10072000DFD88595A8F309DAA5FAD88292A8F578DA
:10073000F1881A849F26889821DAF41DF3D8879FC0
:1007400039D1AFD9DFDFFBF9F40CF3D8FAD0F8DAFE
:10075000F9F9D0DFD9F9D8F40BD8F3879F39D1AFA5
:10076000D9DFDFF41DF3D8FAFCA869F9F9AFD0DAC4
:10077000DEFAD9F88F9FA8F1CCF398DB45D9AFDF2B
:10078000D0F8D8F18F9FA8CAF38809DAAF8FCBF8D9
:10079000D8F2AD978D0CD9A5DFF9BAA6F3FAF41209
:1007A000F2D8950DD1D9BAA6F3FADAA5F2C1BAA654
:1007B000F3DFD8F1BAB2B68696A6D0CAF349DAA664
:1007C000CBF8D8B0B4B8D8AD84F2C0DFF18FCBC3CA
:1007D000A8B2B68696C8C1CBC3F3B0B48898A82196
:1007E000DB718D9D71859521D9ADF2FAD88597A8D9
:1007F00028D9F408D8F28D29DAF405D9F285A4C2F3
:10080000F2D8A88D9401D1D9F411F2D88721D8F467
:100810000AD8F28498A8C801D1D9F411D8F3A4C891
:10082000BBAFD0F2DEF8F8F8F8F8F8F8F8D8F1B87D
:10083000F6B5B9B08A95A3DE3CA3D9F8D85CA3D9A4
:10084000F8D87CA3D9F8D8F8F9D1A5D9DFDAFAD845
:10085000B18530F7D9DED8F830ADDADED8F2B48C15
:1008600099A32D557DA083DFDFDFB591A0F629D9AF
:10087000FBD8A0FC29D9FAD8A0D051D9F8D8FC517E
:10088000D9F9D879D9FBD8A0D0FC79D9FAD8A1F96F
:10089000F9F9F9F9A0DADFDFDFD8A1F8F8F8F8F80C
:1008A000ACDEF8ADDE8393AC2C547CF1A8DFDFDF47
:1008B000F69D2CDAA0DFD9FADB2DF8D8A850DAA003
:1008C000D0DED9D0F8F8F8DB55F8D8A878DAA0D07F
:1008D000DFD9D0FAF8F8F8F8DB7DF8D89CA88CF5C9
:1008E00030DB38D9D0DEDFA0D0DEDFD8A848DB5837
:1008F000D9DFD0DEA0DFD0DED8A868DB70D9DFDF9B
:10090000A0DFDFD8F1A888902C547C98A8D05C3860
:10091000D1DAF2AE8CDFF9D8B087A8C1C1B188A80E
:10092000C6F9F9DA36D8A8F9DA36D8A8F9DA36D815
:10093000A8F9DA36D8A8F9DA36D8F78D9DADF818C7
:10094000DAF2AEDFD8F7ADFA30D9A4DEF9D8F2AEDC
:10095000DEFAF983A7D9C3C5C7F1889BA77AADF79B
:10096000DEDFA4F8849408A797F300AEF29819A4E8
:1009700088C6A39488F632DFF28393DB09D9F2AA02
:10098000DFD8D8AEF8F9D1DAF3A4DEA7F1889B7AE4
:10099000D8F38494AE19F9DAAAF1DFD8A881C0C3DC
:1009A000C5C7A39283F628ADDED9F8D8A350ADD938
:1009B000F8D8A378ADD9F8D8F8F9D1A1DADEC3C553
:1009C000C7D8A18194F818F2B089ACC3C5C7F1D8D3
:1009D000B8B4B09786A8319B069907AB9728889B37
:1009E000F00C201440B0B4B8F0A88A9A285078B718
:1009F0009BA8295179247059446938644831F1BB66
:100A0000AB88002C547CF0B38BB8A804285078F144
:100A1000B088B49726A85998BBABB38B022646661C
:100A2000B0B8F08A9CA82951798B2951798A247011
:100A3000598B2058718A4469388B3940688A6448D8
:100A4000318B30496088F1AC002C547CF08CA804C8
:100A5000285078F1889726A85998AC8C02264666CB
:100A6000F0899CA829517924705944693864483127
:100A7000A98809205970AB11384069A8193148601C
:100A80008CA83C415C207C00F187981986A86E7682
:100A90007EA999882D557DD8B1B5B9A3DFDFDFAE2A
:100AA000D0DFAAD0DEF2ABF8F9D9B087C4AAF1DF63
:100AB000DFBBAFDFDFB9D8B1F1A3978E60DFB084C1
:100AC000F2C8F8F9D9DED89385F14AB183A308B505
:100AD000839A0810B79F10D8F1B0BAAEB08AC2B2EC
:100AE000B68E9EF1FBD9F41DD8F9D90CF1D8F8F8DF
:100AF000AD61D9AEFBD8F40CF1D8F8F8AD19D9AE88
:100B0000FBDFD8F416F1D8F8AD8D61D9F4F4ACF56B
:100B10009C9C8DDF2BBAB6AEFAF8F40BD8F1AED0B0
:100B2000F8AD51DAAEFAF8F1D8B9B1B6A3839C08A2
:100B3000B9B1839AB5AAC0FD3083B79F10B58B9326
:100B4000F20202D1ABDADED8F1B080BAABC0C3B2E8
:100B500084C1C3D8B1B9F38BA391B609B4D9ABDEC4
:100B6000B0879CB9A3DDF1B38B8B8B8B8BB087A344
:100B7000A3A3A3B28BB69BF2A3A3A3A3A3A3A3A3F4
:100B8000A3A3F1B087B59AA3F39BA3A3DCBAACDF10
:100B9000B9A3A3A3A3A3A3A3A3A3A3A3A3A3A3A30F
:100BA000A3D8D8D8BBB3B7F1AAF9DAFFD9809AAAEB
:100BB00028B48098A720B79787A86688F07951F164
:100BC000902C870CA781976293F0717160859401D6
:100BD00029517990A5F1284C6C870C95188578A33C
:100BE0008390284C6C886CD8F3A28200F210A892F3
:100BF0001980A2F2D926D8F188A84DD948D896A84C
:100C00003980D93CD89580A839A68698D92CDA871E
:100C1000A72CD8A8899519A980D938D8A88939A925
:100C200080DA3CD8A82EA83990D90CD8A89531984C
:100C3000D90CD8A809D9FFD801DAFFD89539A9DA93
:100C400026FFD890A80D8999A810809821DA2ED86F
:100C50008999A83180DA2ED8A886963180DA2ED8E4
:100C6000A8873180DA2ED8A88292F34180F1D92E5C
:100C7000D8A882F31980F1D92ED882ACF3C0A28013
:100C800022F1A62EA72EA92298A829DAACDEFFD839
:100C9000A2F22AF1A92E8292A8F23180A696F1D969
:100CA00000AC8C9C0C30ACDED0DEFFD88C9CACD081
:100CB00010ACDE8092A2F24C82A8F1CAF235F19615
:100CC00088A6D900D8F1FF00000000240027002AE0
:100CD0000000000000250028002B00000000002379
:100CE000002600290004040404040404040202028F
:100CF000020202030303030303010204081020405D
:100D000080010204081020010204081020000000E5
:100D100007000201000003040600000000000000BC
:100D20000000AE217B24D63311241FBECFEFD8E0C4
:100D3000DEBFCDBF11E0A0E0B1E0EEE7F4E702C016
:100D400005900D92A234B107D9F716E0A2E4B1E004
:100D500001C01D92AB36B107E1F71DE0C8E2DDE04E
:100D600004C02297FE010E94393AC232D107C9F766
:100D70000E942C340C94BE060C940000F8940C9441
:100D80003D3AFB01DC0104C08D910190801921F4F2
:100D900041505040C8F7881B990B0895FC011092F0
:100DA000BC00662319F088B1806302C088B18F7CD3
:100DB00088B91092B9009F01442737FD4095542F00
:100DC00060E87EE380E090E00E941C3A20513040D1
:100DD00040405040CA01B90122E030E040E050E01C
:100DE0000E941C3A2093B80084E08093BC000895D0
:100DF000482F440F92E064EB54E86093BC002AEF64
:100E000030E08091BC0087FD34C0215030408FEF2E
:100E10002F3F3807B1F727C08091B900887F88300D
:100E200021F0803111F082E008954093BB0050938F
:100E3000BC002AEF30E08091BC0087FD1EC021502D
:100E400030408FEF2F3F3807B1F70FC08091B900C6
:100E5000887F803221F4992351F09150CECF883190
:100E600031F480E0089581E0089583E0089584E0FE
:100E700008951216130684F2F6CF1216130634F3F1
:100E8000F4CFEF92FF920F931F93162FE42E022FB1
:100E9000F32E0E94F8061093BB0084E88093BC00F8
:100EA0002AEF30E08091BC0087FD07C02150304020
:100EB0008FEF2F3F3807B1F703C0121613063CF02F
:100EC000802F9F2D9C01F90190E044E81CC0809187
:100ED000B900F6CF80818093BB004093BC002AEF1D
:100EE00030E08091BC0087FD07C0215030408FEF7B
:100EF0002F3F3807B1F705C01216130614F480917E
:100F0000B9009F5F31969E1528F384E98093BC0059
:100F10002AEF30E08091BC0087FD06C02115310525
:100F200019F021503040F6CF81E01F910F91FF90D2
:100F3000EF9008951F93F82F122F72E0B4EBE82F73
:100F4000EE7FA4E8B093BC002AEF30E08091BC00B3
:100F500087FDD0C0215030408FEF2F3F3807B1F7C9
:100F6000B7C08091B900887F883021F0803111F0BE
:100F700091E1BDC0E093BB00A093BC002AEF30E03C
:100F80008091BC0087FDBBC0215030408FEF2F3FC8
:100F90003807B1F79FC09091B900987F903229F43B
:100FA000772309F499C07150CDCF983109F094C0DE
:100FB0006093BB0084E88093BC002AEF30E080910E
:100FC000BC0087FDA1C0215030408FEF2F3F380774
:100FD000B1F784C08091B900887F883211F095E123
:100FE00086C062E0A4EB7F2F7160E4E8A093BC00B0
:100FF0002AEF30E08091BC0087FD8BC0215030404B
:101000008FEF2F3F3807B1F76BC08091B900887F11
:10101000883021F0803111F097E169C07093BB00F6
:10102000E093BC002AEF30E08091BC0087FD76C0E1
:10103000215030408FEF2F3F3807B1F758C08091D3
:10104000B900887F883429F4662309F44BC06150C5
:10105000CDCF803409F046C0FA0160E0412F50E066
:1010600041505040A4EC74E822C0862F90E08417D1
:10107000950719F47093BC0002C0A093BC002AEF3E
:1010800030E08091BC0087FD4EC0215030408FEF92
:101090002F3F3807B1F728C09091B900987F90355D
:1010A00011F0983521F58091BB0081936F5F611736
:1010B000E0F284E98093BC002AEF30E08091BC002C
:1010C00087FD14C02115310589F021503040F6CF3D
:1010D00090E10DC092E10BC093E109C094E107C01B
:1010E00096E105C099E103C09AE101C090E0892F23
:1010F0001F910895121613060CF433CFE9CF121680
:1011000013060CF448CFE6CF121613060CF462CF88
:10111000E5CF121613060CF478CFE2CF12161306A1
:101120000CF48DCFE4CF121613060CF4B5CFDCCF40
:101130007F928F929F92AF92BF92CF92DF92EF9267
:10114000FF920F931F93CF93DF93F82EE62E742E0A
:101150006901E8010E9438304B015C018F2D880F36
:101160006E2DA601272D0E949A07882311F01FEFEC
:1011700001C0172D2097C1F00E94383068197909F5
:101180008A099B099E0140E050E0621773078407BB
:10119000950750F0212F332727FD3095872D90E0BC
:1011A000281739070CF41FEF812FDF91CF911F9182
:1011B0000F91FF90EF90DF90CF90BF90AF909F90F6
:1011C0008F907F9008959C018230910518F02FEF49
:1011D0003FEF45C080935C0290935D028AE290E00D
:1011E000AC01249FC001259F900D349F900D1124C8
:1011F0008E5B9E4F9093550280935402C901880FD5
:10120000991F820F931F880F991F880F991F8A5665
:101210009E4F909357028093560287E290E0AC0174
:10122000249FC001259F900D349F900D112482555D
:101230009E4F90935902809358028CE290E0AC014B
:10124000249FC001259F900D349F900D1124845040
:101250009E4F90935B0280935A0220E030E0C901D8
:1012600008950F931F93CF93DF93C0915402D091B1
:10127000550285E7888389E189838AE18A838CE046
:101280008B838AE68C8383E28D838BE18E838CE172
:101290008F838FE18A8780E28B8782E78C8784E760
:1012A0008D8783E48E878BE38F8781E4888B88E347
:1012B000898B89E38A8B8AE38B8B8BE68D8B8CE61B
:1012C0008E8B87E38F8B8FE6888F86E0898F84E211
:1012D0008A8F8DE68B8F8EE68C8F80E78D8F89E4E9
:1012E00088A781E089A785E28E8F86E28F8F87E2CB
:1012F00088A388E289A389E28AA38AE28BA384E394
:101300008CA383E68DA384E68EA387E68FA38091CA
:101310005C0290915D02009719F0019769F406C094
:10132000E0915602F091570288E605C0E09156021E
:10133000F091570289E6808300915602109157027E
:1013400080E094E0F8019283818386E7838384E5DB
:1013500091E09583848387EF9DEF9783868380E078
:1013600091E09187808786E696E293878287209135
:1013700058023091590283E890E0A0E0B0E0F90112
:1013800080839183A283B38380E098E0A0E0B0E003
:1013900084839583A683B783108681E08187128634
:1013A00088E1838782E390E09587848785E086875C
:1013B00080E090E0A0E2B1E48787908BA18BB28BB4
:1013C00080E090E0A2EDB2E4838B948BA58BB68B8A
:1013D00049E25CE56FE07EE3478B508F618F728F4F
:1013E0008AE999E9A9E9BEE3838F948FA58FB68F27
:1013F00083E393E3A3E7BFE3878F90A3A1A3B2A303
:1014000043A354A365A376A3E0915A02F0915B0233
:10141000D183C0831383028333A722A7DF91CF91A7
:101420001F910F910895DC01E0915A02F0915B0247
:101430008681882319F081E08C9301C01C9280E0A2
:1014400090E00895DF93CF930F92CDB7DEB7982F3A
:10145000A0915A02B0915B025D968C915D978823B2
:1014600021F0992389F082E00DC016968C91169791
:101470008823E9F0992341F01C968C911C978823CE
:10148000F9F481E0898301C019821296ED91FC91F3
:1014900013970D90BC91A02D808151966C9141E0E5
:1014A0009E012F5F3F4F0E944107882319F42FEFC1
:1014B0003FEF08C0E0915A02F0915B028981848776
:1014C00020E030E0C9010F90CF91DF910895CF92D5
:1014D000DF92EF92FF920F931F93DF93CF9300D091
:1014E000CDB7DEB7D82EC92E8B017A014115510533
:1014F00019F42FEF3FEF41C0E0915A02F0915B02E7
:101500008681882319F42EEF3FEF37C0A281B38183
:101510009B012D0D311D18968D919C911997821765
:10152000930718F42DEF3FEF28C0C982DA820190AB
:10153000F081E02D8C91638D42E09E012F5F3F4F43
:101540000E944107882319F42CEF3FEF16C0E09169
:101550005A02F0915B02A281B3810190F081E02DEB
:101560008C91608D402F97010E944107882319F0CC
:1015700020E030E002C02BEF3FEFC9010F900F9049
:10158000CF91DF911F910F91FF90EF90DF90CF905F
:1015900008951F93DF93CF930F92CDB7DEB7182F27
:1015A000A0915A02B0915B025C968C915C97811776
:1015B00081F1112319F080E3898301C019821D96FE
:1015C0008C911D97882319F08981826089835B96AD
:1015D0008C915B97882319F08981806889831296A2
:1015E000ED91FC9113970D90BC91A02D80815796A1
:1015F0006C9141E09E012F5F3F4F0E94410788237D
:1016000019F42FEF3FEF07C0E0915A02F0915B020F
:10161000148F20E030E0C9010F90CF91DF911F912E
:101620000895DF93CF930F92CDB7DEB7BC0100973B
:10163000A9F120915A0230915B02D90119968D913E
:101640009C911A978617970748F16536710530F512
:101650000E94D33961506983F90182819381A0810D
:10166000B181FC01808194966C9141E09E012F5FD5
:101670003F4F0E944107882389F0E0915A02F09180
:101680005B02698170E06F5F7F4F818592850E9468
:10169000D33972A361A320E030E002C02FEF3FEF07
:1016A000C9010F90CF91DF910895DF93CF930F92EF
:1016B000CDB7DEB79C01A0915A02B0915B0216969D
:1016C0008C911697882399F12C3B310510F081E01D
:1016D00015C02236310510F082E010C02A323105E3
:1016E00010F083E00BC02431310510F084E006C017
:1016F0002A30310510F085E001C086E08983179615
:101700009C91179789819817D9F01296ED91FC91C9
:1017100013970D90BC91A02D808112966C9141E0A1
:101720009E012F5F3F4F0E944107882319F42FEF3E
:101730003FEF08C0E0915A02F0915B0289818783F4
:1017400020E030E0C9010F90CF91DF910895DF9341
:10175000CF930F92CDB7DEB7982FA0915A02B091D8
:101760005B0216968C9116978823A1F1943061F054
:10177000953018F4923071F505C0983039F09031F9
:1017800049F506C0198206C088E003C080E101C0A7
:1017900088E1898315962C91159730E0898190E036
:1017A000E3E095958795EA95E1F72817390709F160
:1017B0001296ED91FC9113970D90BC91A02D808114
:1017C00017966C9141E09E012F5F3F4F0E944107A9
:1017D000882319F42FEF3FEF0EC0E0915A02F091E9
:1017E0005B02898190E073E0959587957A95E1F7A2
:1017F000858320E030E0C9010F90CF91DF910895FB
:10180000DF93CF930F92CDB7DEB79C01A0915A0220
:10181000B0915B0216968C9116978823E1F181E0D6
:10182000243F380791F081E0253F380720F42A3F14
:10183000310589F508C083E0283E380741F0205D76
:10184000374049F506C0198206C088E003C080E130
:1018500001C088E1898314962C91149730E0898126
:1018600090E043E0959587954A95E1F72817390769
:1018700009F11296ED91FC9113970D90BC91A02D5A
:10188000808116966C9141E09E012F5F3F4F0E9430
:101890004107882319F42FEF3FEF0EC0E0915A0261
:1018A000F0915B02898190E0A3E095958795AA95D8
:1018B000E1F7848320E030E0C9010F90CF91DF9100
:1018C00008950F931F93DF93CF930F92CDB7DEB799
:1018D000A0915A02B0915B0216968C9116978823BC
:1018E00009F41BC119821296ED91FC9113970D908A
:1018F000BC91A02D808151966C9141E08E010F5FCB
:101900001F4F98010E944107882309F406C1E09106
:101910005A02F0915B02A281B3810190F081E02D27
:101920008C91658141E098010E944107882309F468
:10193000F4C0E0915A02F0915B02A281B381019060
:10194000F081E02D8C91648141E098010E94410773
:10195000882309F4E2C0A0915A02B0915B025D961F
:101960008C915D97882309F469C08CE08983129675
:10197000ED91FC9113970D90BC91A02D8081149650
:101980006C9141E098010E944107882309F4C5C089
:1019900062E370E080E090E00E94463080EC898352
:1019A000A0915A02B0915B0216968C91169780FF17
:1019B00002C080EE89831296ED91FC9113970D90F1
:1019C000BC91A02D808114966C9141E09E012F5F07
:1019D0003F4F0E944107882309F49FC0A0915A02FB
:1019E000B0915B021C968C911C97882319F082E0C1
:1019F000898301C019821296ED91FC9113970D9085
:101A0000BC91A02D808151966C9141E08E010F5FB9
:101A10001F4F98010E944107882309F47EC0198254
:101A2000E0915A02F0915B02A281B3810190F081B2
:101A3000E02D8C91658141E098016BC084E0898341
:101A40001296ED91FC9113970D90BC91A02D808181
:101A500014966C9141E098010E944107882309F493
:101A60005CC0A0915A02B0915B021D968C911D97AB
:101A7000882329F416968C91169780FD02C080E485
:101A800001C080E689831296ED91FC9113970D9029
:101A9000BC91A02D808114966C9141E09E012F5F36
:101AA0003F4F0E9441078823C1F162E370E080E06C
:101AB00090E00E944630A0915A02B0915B021C96C1
:101AC0008C911C97882319F081E0898301C01982C9
:101AD0001296ED91FC9113970D90BC91A02D8081F1
:101AE00051966C9141E09E012F5F3F4F0E9441074C
:101AF000882399F0E0915A02F0915B02A281B381B0
:101B0000208131813B968C91D90115966C9141E0F1
:101B10009F010E944107882319F42FEF3FEF02C075
:101B200020E030E0C9010F90CF91DF911F910F911C
:101B300008950F931F93CF93DF93982FE0915A024C
:101B4000F0915B02858D882319F0C0E0D0E029C0B8
:101B50008681882321F1192F1E7F038581238387A6
:101B6000811719F4C0E0D0E002C0CFEFDFEF1123FE
:101B700019F48785882331F081E00E94220A11231D
:101B800081F004C080E00E94220A0BC00E94610C18
:101B9000892B39F0E0915A02F0915B020387CFEF75
:101BA000DFEFCE01DF91CF911F910F9108951F9329
:101BB000DF93CF9300D0CDB7DEB7182F893208F06E
:101BC00058C08823F9F480E00E94C90A198287E08E
:101BD0008A83E0915A02F0915B02A281B381019065
:101BE000F081E02D8C91658942E09E012F5F3F4F8F
:101BF0000E9441078823E9F1E0915A02F0915B02CB
:101C0000178646C081E00E94C90A80E289831130AC
:101C100011F41A8204C0163028F481E08A8385E02A
:101C200090E00BC0153128F482E08A838AE090E0CE
:101C300004C083E08A8384E190E00E94550B8A818E
:101C40008295880F880F807C87608A83E0915A0292
:101C5000F0915B02A281B3810190F081E02D8C9123
:101C6000658942E09E012F5F3F4F0E944107882314
:101C700019F42FEF3FEF0EC0E0915A02F0915B0292
:101C800088E08683108681E0878780E00E94990D36
:101C900020E030E0C9010F900F90CF91DF911F91AC
:101CA00008950F931F93DF93CF930F92CDB7DEB7B5
:101CB0008C01E0915A02F0915B0286818823B9F190
:101CC000858D8823A1F58785882359F0C801019760
:101CD000889720F4802F0E94D70D4DC080E00E948D
:101CE000D70D0430110518F464E070E007C0B801A6
:101CF00083E0093E180710F068EE73E088EE93E089
:101D00000E94D33961506983E0915A02F0915B02DD
:101D1000A281B3810190F081E02D8C91618141E03D
:101D20009E012F5F3F4F0E944107882319F42FEF38
:101D30003FEF23C0E0915A02F0915B02698170E0AD
:101D40006F5F7F4F88EE93E00E94E739728761876B
:101D500081A192A18536910510F084E690E00E9461
:101D6000110BE0915A02F0915B0281859285969564
:101D700087950E94550B20E030E0C9010F90CF916C
:101D8000DF911F910F910895CF92DF92EF92FF9212
:101D90000F931F93DF93CF9300D0CDB7DEB7182FEB
:101DA000092F7B016A0141155105D1F1E0915A02D9
:101DB000F0915B028681882399F1A281B3819B0116
:101DC000210F311D18968D919C91199782179307B9
:101DD00038F109831A830190F081E02D8C91638D95
:101DE00042E09E012F5F3F4F0E9441078823C1F0D0
:101DF000E0915A02F0915B02A281B3810190F081DF
:101E0000E02D00910001109101018C91608D4E2D0B
:101E100096010E949808882319F020E030E002C063
:101E20002FEF3FEFC9010F900F90CF91DF911F91DE
:101E30000F91FF90EF90DF90CF900895DF92EF9297
:101E4000FF920F931F93DF93CF930F92CDB7DEB71F
:101E5000D82EE0915A02F0915B0285858D1509F428
:101E60009EC0A281B3810190F081E02D009100011C
:101E7000109101017E010894E11CF11CDD2089F123
:101E80008C91648141E097010E949808882309F4AD
:101E90007EC089818F7D8983E0915A02F0915B0237
:101EA000A281B3810190F081E02D8C91648141E0A9
:101EB00097010E944107882309F469C063E070E03C
:101EC00080E090E00E94463082E08983A0915A022F
:101ED000B0915B025B968C915B978823F1F182E86D
:101EE00039C08C91648141E097010E949808882351
:101EF00009F44DC0A0915A02B0915B0216968C91E4
:101F00001697998180FF02C0906201C09F7D9983DE
:101F10001296ED91FC9113970D90BC91A02D8081AC
:101F200014966C9141E09E012F5F3F4F0E94410744
:101F3000882369F163E070E080E090E00E94463021
:101F4000A0915A02B0915B025B968C915B978823BB
:101F500019F080E8898301C019825C968C915C97A6
:101F6000882319F08981806389831296ED91FC9111
:101F700013970D90BC91A02D808157966C9141E0F4
:101F80009E012F5F3F4F0E944107882319F42FEFD6
:101F90003FEF07C0E0915A02F0915B02D58620E046
:101FA00030E0C9010F90CF91DF911F910F91FF9009
:101FB000EF90DF900895DF93CF930F92CDB7DEB708
:101FC000982FE0915A02F0915B02858D891709F4F0
:101FD0004AC0992369F1868D882319F42FEF3FEFCA
:101FE00044C080E00E94220A80E00E941E0FE0911F
:101FF0005A02F0915B02878D90A10E94510E1982C6
:10200000E0915A02F0915B020280F381E02D808121
:1020100063E241E09E012F5F3F4F0E944107E09144
:102020005A02F0915B0281E0858F0E94220A19C05A
:1020300080E00E94220AE0915A02F0915B028385BF
:1020400089830280F381E02D808163E241E09E017B
:102050002F5F3F4F0E944107E0915A02F0915B02CF
:10206000158E0E94610C20E030E0C9010F90CF91E5
:10207000DF9108956F927F928F929F92AF92BF925D
:10208000CF92DF92EF92FF920F931F93DF93CF9344
:1020900000D0CDB7DEB76C013B014A01A0915A02D6
:1020A000B0915B025D968C915D97882319F42FEFB8
:1020B0003FEF7CC016968C911697882319F42EEF6B
:1020C0003FEF74C01296ED91FC9113970D90BC9167
:1020D000A02D009100011091010180811C966C914E
:1020E00042E05E010894A11CB11C95010E94980871
:1020F000882319F42DEF3FEF59C0998180E02A81A0
:10210000E22EFF24E82AF92AEC14FD0428F4F40155
:10211000108221E030E04AC0E0915A02F0915B0267
:10212000A281B38111968D919C9112979695879576
:102130008E159F05D0F40190F081E02D00910001F3
:10214000109101018C91638941E095010E949808EA
:10215000882319F42BEF3FEF29C0898184FF05C044
:102160000E94610C22E030E021C0E0915A02F0911F
:102170005B02A281B3810190F081E02D009100010A
:10218000109101018C9165854C2D93010E94980856
:10219000882319F429EF3FEF09C0C701B6010E9457
:1021A000D3396150F401608320E030E0C9010F9021
:1021B0000F90CF91DF911F910F91FF90EF90DF90E3
:1021C000CF90BF90AF909F908F907F906F90089529
:1021D000DF92EF92FF920F931F93DF93CF9300D084
:1021E000CDB7DEB7D82EE82EFF24C70180779070D8
:1021F000892B11F081E005C0DD2011F0198202C0A9
:1022000080E48983E0915A02F0915B02A281B3815C
:102210000190F081E02D8C91658941E09E012F5F56
:102220003F4F0E944107A0915A02B0915B02882360
:1022300019F416961C9230C089818F7B18968C9366
:1022400018971982E6FC02C084E08983E5FC03C08C
:10225000898182608983E4FC03C0898181608983EC
:10226000E3FC03C08981886389831296ED91FC9118
:1022700013970D90BC91A02D808156966C9141E0F2
:102280009E012F5F3F4F0E944107882341F4E09158
:102290005A02F0915B0216822FEF3FEF6CC0DD20F7
:1022A00031F088E0D81619F080E00E94C90AE09168
:1022B0005A02F0915B02A281B3810190F081E02D7E
:1022C00000910001109101018C91648141E09E0117
:1022D0002E5F3F4F0E9498088823F1F29A81E0FE1A
:1022E00004C081E08983906202C019829F7D9A8335
:1022F000A0915A02B0915B025D968C915D979A8194
:10230000882311F0906801C09F779A831296ED910F
:10231000FC9113970D90BC91A02D808196966C91A5
:1023200041E09E012F5F3F4F0E944107882309F43F
:10233000B3CFE0915A02F0915B02A281B381019088
:10234000F081E02D8C91648141E09E012E5F3F4F32
:102350000E944107882309F49FCFE0915A02F0912F
:102360005B02D682178662E370E080E090E00E9414
:10237000463020E030E0C9010F900F90CF91DF91FF
:102380001F910F91FF90EF90DF900895CF92DF9211
:10239000EF92FF920F931F93DF93CF93CDB7DEB7EA
:1023A00029970FB6F894DEBF0FBECDBF7C016B013D
:1023B000A0915A02B0915B0216968C91169780FDFF
:1023C00003C02FEF3FEF96C01296ED91FC9113974B
:1023D0000D90BC91A02D0091000110910101808110
:1023E00098966C9148E09E012F5F3F4F0E9498089D
:1023F000882319F42CEF3FEF7DC0898180FD03C055
:1024000021E030E077C0888587FD72C086FD70C00E
:102410003B8120E06A8170E0622B732BF7017183AE
:1024200060833D8120E04C8150E0242B352B3383A9
:1024300022833F8120E04E8150E0242B352B3583D1
:10244000248300915A0210915B02882777FD8095C2
:10245000982FF80124A135A1442737FD4095542F2A
:102460000E94A839672F782F892F992787FD9A9581
:10247000F7017183608362817381882777FD80957E
:10248000982FF80126A137A1442737FD4095542FF6
:102490000E94A839672F782F892F992787FD9A9551
:1024A000F7017383628364817581882777FD809546
:1024B000982FF80120A531A5442737FD4095542FCA
:1024C0000E94A839672F782F892F992787FD9A9521
:1024D000F70175836483C114D10439F00E94383048
:1024E000F601608371838283938320E030E002C031
:1024F0002AEF3FEFC90129960FB6F894DEBF0FBE51
:10250000CDBFCF91DF911F910F91FF90EF90DF90A2
:10251000CF9008952F923F924F925F926F927F9249
:102520008F929F92AF92BF92CF92DF92EF92FF92E3
:102530000F931F93DF93CF93CDB7DEB764970FB69A
:10254000F894DEBF0FBECDBF3C014B014B8B5C8BC3
:102550001901E0915A02F0915B02868D882319F0EF
:102560002FEF3FEF75C06115710519F42EEF3FEFA6
:102570006FC080E190E00E946D31B92EC82ED92E37
:10258000A82EEE24FF2463E0462E512C4C0E5D1E37
:1025900038C083010E191F090131110510F000E147
:1025A00010E094012E0D3F1DD601A601400F511FD2
:1025B00005C0F90184918D932F5F3F4FA417B50794
:1025C000C1F7C701B801A5010E94670A892B19F05C
:1025D0002DEF3FEF3DC0C701B801A2010E94C40E1C
:1025E000892B19F02CEF3FEF33C0C501B201A801D0
:1025F0000E94C106009719F02BEF3FEF29C0E00EB3
:10260000F11EE614F70428F2FC89F9838B898A838A
:10261000E0915A02F0915B02A281B3810190F081B6
:10262000E02D8C91658D42E09E012F5F3F4F0E940F
:102630004107882319F42AEF3FEF0AC0E0915A02BC
:10264000F0915B0281E0868F30A2278E20E030E09F
:10265000C90164960FB6F894DEBF0FBECDBFCF910F
:10266000DF911F910F91FF90EF90DF90CF90BF907F
:10267000AF909F908F907F906F905F904F903F9022
:102680002F900895EF92FF920F931F93DF93CF93B4
:10269000CDB7DEB72B970FB6F894DEBF0FBECDBF18
:1026A00080E88D83E0915A02F0915B02A281B381B0
:1026B0000190F081E02D15E0E12EF12CEC0EFD1ED5
:1026C0008C91658941E097010E944107882319F4A4
:1026D0002FEF3FEF26C264E670E080E090E00E94BA
:1026E00046301D82E0915A02F0915B02A281B381D3
:1026F0000190F081E02D8C91658941E097010E9465
:102700004107882319F42EEF3FEF0BC2E0915A02E4
:10271000F0915B02A281B3810190F081E02D0091E4
:102720000001109101018C91618D46E097010E949A
:102730009808882319F42DEF3FEFF3C18A8590E0C4
:1027400081709070880F991F880F991F288530E03D
:1027500021703070220F331F982F922B8E81817041
:10276000982B91F0913031F4E0915A02F0915B0294
:10277000968732C0923019F02CEF3FEFD2C1E09132
:102780005A02F0915B0227C0E0915A02F0915B027D
:10279000A281B3810190F081E02D009100011091A0
:1027A00001018C91638141E097010E949808882380
:1027B00019F42BEF3FEFB5C18D818F7019F42AEF1B
:1027C0003FEFAFC1E0915A02F0915B02843019F4FF
:1027D00081E0868701C01686E0915A02F0915B0283
:1027E0008FEF86838483858387832FEF3FEF328744
:1027F00021878387858732A321A381E08087838F08
:10280000148E108A178671968AE011928A95E9F7DC
:10281000E0915A02F0915B02158E168E10A2178E6F
:1028200080ED97E00E94000C892B19F026EF3FEF16
:1028300078C182E00E94A70B892B19F025EF3FEFAA
:1028400070C18AE290E00E94550B892B19F024EFA9
:102850003FEF67C182E390E00E94510E892B19F08F
:1028600023EF3FEF5EC180E00E94990D892B19F0A4
:1028700022EF3FEF56C181E00E941E0F9CE07E01D7
:102880000894E11CF11C0091000110910101892FB5
:1028900060E041E097019B870E9498089B85882310
:1028A00099F08981883481F4E0915A02F0915B02B9
:1028B00093A3198283A16AE041E097010E94410736
:1028C000882309F420C104C09F5F9031E1F61BC149
:1028D00061E070E080E090E00E9446308FE0898304
:1028E000E0915A02F0915B0283A16AE041E0970116
:1028F0000E944107882309F406C161E070E080E08E
:1029000090E00E944630E0915A02F0915B02009103
:1029100000011091010183A160E143E097010E9451
:102920009808882309F4EFC0E0915A02F0915B0205
:10293000898190E080589F4F95A384A38A8190E07D
:1029400080589F4F97A386A38B8190E080589F4F1C
:1029500091A780A7198283A16AE041E097010E94B4
:102960004107882309F4CFC061E070E080E090E087
:102970000E94463080E00E941E0F80E48983E0912F
:102980005A02F0915B02A281B3810190F081E02DA7
:102990008C91628D41E097010E944107882309F4E0
:1029A000B2C0E0915A02F0915B0283A180688983F2
:1029B000A281B3810190F081E02D8C91668D41E080
:1029C00097010E944107882309F49DC082E0898312
:1029D000E0915A02F0915B02A281B3810190F081F3
:1029E000E02D8C91678D41E097010E94410788237B
:1029F00009F489C088E88983E0915A02F0915B026A
:102A0000A281B3810190F081E02D8C9160A141E021
:102A100097010E944107882309F475C0E0915A028A
:102A2000F0915B0283A18983A281B3810190F0813F
:102A3000E02D8C9161A141E08E010F5F1F4F980145
:102A40000E944107882309F45EC08AE08983E091EF
:102A50005A02F0915B02A281B3810190F081E02DD6
:102A60008C9162A141E098010E944107882309F4FA
:102A70004AC081E88983E0915A02F0915B02A28109
:102A8000B3810190F081E02D8C9163A141E0980128
:102A90000E9441078823B9F181E08983E0915A02BD
:102AA000F0915B02A281B3810190F081E02D8C91C5
:102AB00066A141E098010E944107882321F183E04B
:102AC0008983E0915A02F0915B02A281B381019067
:102AD000F081E02D8C9167A141E098010E944107AF
:102AE000882389F080E88983E0915A02F0915B02A3
:102AF000A281B3810190F081E02D8C9161A541E02C
:102B000098010E9441078AE090E00E94110B892BF6
:102B100019F021EF3FEF05C080E00E94E81020E0AF
:102B200030E0C9012B960FB6F894DEBF0FBECDBFC3
:102B3000CF91DF911F910F91FF90EF9008959C012D
:102B40008230910518F02FEF3FEF16C08093760288
:102B5000909377028BE090E0AC01249FC001259F09
:102B6000900D349F900D1124825A9D4F90937502C1
:102B70008093740220E030E0C9010895E09174026E
:102B8000F0917502118210821382128215821482D2
:102B90001782168211861086128608952F923F9210
:102BA0004F925F926F927F928F929F92AF92BF925D
:102BB000CF92DF92EF92FF920F931F93DF93CF9309
:102BC000CDB7DEB7AC970FB6F894DEBF0FBECDBF62
:102BD0009EA38DA378A76FA32A013AA729A71CA7B4
:102BE0000BA7A701D8011D921C92E0917402F091ED
:102BF0007502828590E0BE016F5F7F4F0E943A10A0
:102C00009CA38BA3892B09F0B2C1E0917402F091CF
:102C10007502FAA3E9A38681978184719070892B4C
:102C200011F440E017C1A980BB24CC24DD24DA2CA8
:102C3000CC24BB24AA248A8190E0A0E0B0E0DC018F
:102C400099278827A82AB92ACA2ADB2A8C8190E0EA
:102C5000A0E0B0E0A82AB92ACA2ADB2A8B8190E03A
:102C6000A0E0B0E0BA2FA92F982F8827A82AB92A68
:102C7000CA2ADB2AD201AD92BD92CD92DC92139783
:102C80002D8130E040E050E0522F442733272227A7
:102C90008E8190E0A0E0B0E0DC0199278827282B06
:102CA000392B4A2B5B2B888590E0A0E0B0E0282BE5
:102CB000392B4A2B5B2B8F8190E0A0E0B0E0BA2F3C
:102CC000A92F982F8827282B392B4A2B5B2BF20111
:102CD0002483358346835783298530E040E050E0E4
:102CE000522F4427332722278A8590E0A0E0B0E0C6
:102CF000DC0199278827282B392B4A2B5B2B8C85C5
:102D000090E0A0E0B0E0282B392B4A2B5B2B8B8581
:102D100090E0A0E0B0E0BA2FA92F982F8827282BA9
:102D2000392B4A2B5B2BD20118962D933D934D9353
:102D30005C931B972D8530E040E050E0522F4427F4
:102D4000332722278E8590E0A0E0B0E0DC019927B0
:102D50008827282B392B4A2B5B2B888990E0A0E011
:102D6000B0E0282B392B4A2B5B2B8F8590E0A0E01D
:102D7000B0E0BA2FA92F982F8827282B392B4A2B60
:102D80005B2B24873587468757875601DD24B7FCA0
:102D9000D094CD2C648075808680978034019924EE
:102DA00077FC9094892C20843184428453841201CE
:102DB000552437FC5094452C9A01552737FD5095E2
:102DC000452FCA01B9010E94A8397B018C01C601B7
:102DD000B501A60195010E94A839E60EF71E081F4D
:102DE000191FC401B301A40193010E94A839E60E82
:102DF000F71E081F191FC201B101A20191010E9413
:102E0000A839E60EF71E081F191F80E090E0A0E029
:102E1000B1EFE80EF91E0A1F1B1F91E0E91690E0C2
:102E2000F90690E0090792E0190758F00E94610C3A
:102E3000ABA5BCA51D921C92E3E0F0E0FCA3EBA3C4
:102E400096C0ABA5BCA58D919C91119791608D9377
:102E50009C9340E1E9A1FAA1868186FF39C0A42FA5
:102E6000B0E0FE01EA0FFB1F228130E0FE01EA0F15
:102E7000FB1F918180E0282B392BEFA1F8A531832E
:102E80002083FE01EA0FFB1F338120E0FE01EA0FE1
:102E9000FB1F848190E0282B392BEFA1F8A5338309
:102EA0002283FE01EA0FFB1F358120E0868190E03E
:102EB000282B392BAFA1B8A515963C932E931497C8
:102EC0004A5FEBA5FCA58081918188609183808316
:102ED000A9A1BAA116968D919C91179780789170AF
:102EE000892BC1F1A42FB0E0FE01EA0FFB1F228164
:102EF00030E0FE01EA0FFB1F918180E0282B392B87
:102F0000EDA1FEA131832083FE01EA0FFB1F338177
:102F100020E0FE01EA0FFB1F848190E0282B392B73
:102F2000EDA1FEA133832283FE01EA0FFB1F358151
:102F300020E0868190E0282B392BADA1BEA115960B
:102F40003C932E931497EBA5FCA58081918180671B
:102F50009183808389A59AA5892B49F00E943830F6
:102F6000A9A5BAA56D937D938D939C9313978BA17F
:102F70009CA1AC960FB6F894DEBF0FBECDBFCF912B
:102F8000DF911F910F91FF90EF90DF90CF90BF9056
:102F9000AF909F908F907F906F905F904F903F90F9
:102FA0002F900895DF93CF93CDB7DEB729970FB653
:102FB000F894DEBF0FBECDBF9E012F5F3F4F882329
:102FC00049F0D901E1E1F1E089E001900D928150F1
:102FD000E1F708C0D901E8E0F1E089E001900D9245
:102FE0008150E1F788EB94E069E070E0AE014F5F5B
:102FF0005F4F0E94670A29960FB6F894DEBF0FBE96
:10300000CDBFCF91DF9108950F931F93DF93CF939F
:10301000CDB7DEB728970FB6F894DEBF0FBECDBF91
:103020008C01893C9105F0F488EC90E0B8010E9495
:10303000D3396150704079836A8386E192E062E01F
:1030400070E0AE014F5F5F4F0E94670A892B51F419
:1030500081EC9AE06CE070E04AE151E00E94670A7E
:10306000892B19F02FEF3FEF08C0E0917402F09127
:1030700075021187008720E030E0C90128960FB65D
:10308000F894DEBF0FBECDBFCF91DF911F910F919E
:103090000895EF92FF920F931F93DF93CF9300D089
:1030A00000D000D0CDB7DEB78C01AC0143705070BA
:1030B000FA01E15DFE4F80818983C801E3E09695C6
:1030C0008795EA95E1F783709070FC01E15DFE4F12
:1030D00020812A83D80176E0B695A7957A95E1F705
:1030E000A370B070FD01E15DFE4F20812B83445D34
:1030F0005E4FFA0120812C83845D9E4FFC0180810C
:103100008D83A45DBE4F8C918E8386E294E063E054
:1031100070E07E010894E11CF11CA7010E94670A7F
:10312000892B09F04BC08AE294E063E070E0AE01C5
:103130004C5F5F4F0E94670A892B09F03FC0D7019F
:10314000E9E2F1E083E001900D928150E1F7DE01C8
:103150001496E6E2F1E083E001900D928150E1F7F0
:1031600002FF06C08981816089838C8181608C83A4
:1031700005FF06C08A8181608A838D8181608D838D
:1031800010FF06C08B8181608B838E8181608E836E
:1031900080E494E063E070E0AE014F5F5F4F0E9417
:1031A000670A892B59F481E394E063E070E0AE0193
:1031B0004C5F5F4F0E94670A892B19F02FEF3FEF9A
:1031C00008C0E0917402F09175021583048320E039
:1031D00030E0C90126960FB6F894DEBF0FBECDBF12
:1031E000CF91DF911F910F91FF90EF900895DF93A2
:1031F000CF9300D000D0CDB7DEB7882349F080E26E
:10320000898388E28A8380E38B8388E38C8308C088
:1032100083EA93EAA3EAB3EA89839A83AB83BC8304
:103220008EE99AE064E070E0AE014F5F5F4F0E946C
:10323000670A0E94610C0F900F900F900F90CF9132
:10324000DF910895DF93CF9300D000D0CDB7DEB7E4
:10325000882349F080EC898382EC8A8384EC8B8319
:1032600086EC8C8308C08BE89BE8ABE8BBE88983DD
:103270009A83AB83BC8388E99AE064E070E0AE0196
:103280004F5F5F4F0E94670A0E94610C0F900F9082
:103290000F900F90CF91DF910895AF92BF92CF9290
:1032A000DF92EF92FF920F931F93DF93CF93CDB7EF
:1032B000DEB72A970FB6F894DEBF0FBECDBF8C01E4
:1032C00082E089838AEC8A8383EE8B8389E08C8316
:1032D00088E690E064E070E0AE014F5F5F4F0E94CF
:1032E000670A83EA8983B0E4AB2EB12CA022B12215
:1032F00006FF06C080EC8A8388EC8B8382EC02C0D8
:103300008A838B838C83A0E8EA2EA1E0FA2EE02248
:10331000F122E114F10431F084EC8D838CEC8E8386
:1033200086EC03C083EA8D838E838F8383EA88874C
:1033300089878A8787EA9AE06AE070E0AE014F5F8A
:103340005F4F0E94670AF3E0CF2ED12CC022D1221A
:10335000C114D10411F080E201C088ED898386EBAD
:103360009AE061E070E0AE014F5F5F4F0E94670A34
:1033700005FF02C081E001C080E00E94D217E11485
:10338000F104D9F010FF08C082EB89838BE88A83AF
:1033900086EB8B838BE907C080EB898380E88A8387
:1033A00084EB8B8380E98C8382EA9AE064E070E0AE
:1033B000AE014F5F5F4F0E94670A02FF02C081E0CB
:1033C00001C080E00E94221904FF02C081E001C018
:1033D00080E00E94F718E0917402F0917502C80134
:1033E0008860978386830E94610CE0917402F0915B
:1033F00075021286AB2811F086E08287EF2819F05B
:1034000082858A5F828704711070012B19F0828592
:10341000805F8287CD2819F082858C5F828780E06B
:1034200090E02A960FB6F894DEBF0FBECDBFCF91C5
:10343000DF911F910F91FF90EF90DF90CF90BF90A1
:10344000AF90089586EF9BE061ED70E040E054E0BE
:1034500028EC30E00E948A1208952F923F924F92FA
:103460005F926F927F928F929F92AF92BF92CF9214
:10347000DF92EF92FF920F931F93DF93CF93CDB71D
:10348000DEB7E6970FB6F894DEBF0FBECDBF109241
:10349000BD021092BC028EEB92E064EC72E04CEA4A
:1034A00052E020E030E00CEB12E0EAECEE2EE2E03D
:1034B000FE2E0E94CE159EAB8DAB9093CC028093D6
:1034C000CB02892B09F027C58091CA02823028F0EF
:1034D00088E39FEF9EAB8DAB1EC56091AC027091EF
:1034E000AD028091AE029091AF020E94D13720E0F0
:1034F00030E040E850E30E94DD381B012C0160936E
:10350000AC027093AD028093AE029093AF026091D3
:10351000B0027091B1028091B2029091B3020E9408
:10352000D13720E030E040E850E30E94DD38698B7D
:103530007A8B8B8B9C8B6093B0027093B1028093DB
:10354000B2029093B3026091B4027091B50280917F
:10355000B6029091B7020E94D13720E030E040E8F7
:1035600050E30E94DD385B016C016093B4027093FC
:10357000B5028093B6029093B7026091B802709141
:10358000B9028091BA029091BB020E94D13720E02B
:1035900030E040E850E30E94DD386D8B7E8B8F8BEE
:1035A000988F6093B8027093B9028093BA02909397
:1035B000BB02C601B501A60195010E94DD38698FE5
:1035C0007A8F8B8F9C8F6093E7027093E8028093D1
:1035D000E9029093EA026D897E898F89988D9B011B
:1035E000AC010E94DD386D8F7E8F8F8F98A3609322
:1035F000EB027093EC028093ED029093EE02C20115
:10360000B101A20191010E94DD3869A37AA38BA3C5
:103610009CA36093EF027093F0028093F102909369
:10362000F20269897A898B899C892D893E894F8923
:10363000588D0E94DD387B018C01C201B101A601C9
:1036400095010E94DD389B01AC01C801B7010E94C1
:1036500054363B014C016093F3027093F402809363
:10366000F5029093F60225EE32EF4FEF5EE30E94F3
:10367000D2381816BCF4C601B501A20191010E940E
:10368000DF369B01AC010E94553660938002709337
:10369000810280938202909383028BED9FE0A9ECDC
:1036A000BFE322C0C401B30125EE32EF4FEF5EEB62
:1036B0000E94323788236CF5C601B501A201910141
:1036C0000E94DF3620E030E040E050EC0E94DD3820
:1036D00060938002709381028093820290938302B0
:1036E0008BED9FE0A9ECBFEB80937C0290937D0271
:1036F000A0937E02B0937F0280E090E0A0E0B0E073
:103700008093780290937902A0937A02B0937B021F
:1037100094C069897A898B899C89A20191010E9450
:10372000DD387B018C01C601B5012D893E894F89A9
:10373000588D0E94DD389B01AC01C801B7010E9481
:1037400055369B01AC010E9455367B018C016D8D75
:103750007E8D8F8D98A129A13AA14BA15CA10E94D9
:10376000553620E030E040E050EC0E94DD3820E0AB
:1037700030E040E85FE30E9455369B01AC01C80190
:10378000B7010E94DF3660938002709381028093BC
:10379000820290938302C401B301A40193010E94A9
:1037A00055360E94B93660937C0270937D028093F7
:1037B0007E0290937F0269897A898B899C89A60110
:1037C00095010E94DD387B018C016D897E898F898E
:1037D000988DA20191010E94DD389B01AC01C801C6
:1037E000B7010E9454369B01AC010E9455367B0103
:1037F0008C01698D7A8D8B8D9C8D2D8D3E8D4F8D9D
:1038000058A10E94553620E030E040E050EC0E9484
:10381000DD3820E030E040E85FE30E9455369B0150
:10382000AC01C801B7010E94DF3660937802709343
:10383000790280937A0290937B0260917802709172
:10384000790280917A0290917B0221EE3EE245E678
:1038500052E40E94DD3890586093780270937902A8
:1038600080937A0290937B0260917C0270917D023A
:1038700080917E0290917F0221EE3EE245E652E485
:103880000E94DD38905860937C0270937D02809393
:103890007E0290937F0260918002709181028091FC
:1038A00082029091830221EE3EE245E652E40E94BC
:1038B000DD385B016C0120E030E044E353E40E941A
:1038C00055367B018C0120E030E044E353E40E9454
:1038D000D238181654F4C601B50120E030E044E3B4
:1038E00053E40E9454367B018C01D801C701B058C3
:1038F0008093800290938102A0938202B09383020E
:103900008091CD02882391F58DEC92E00E943B34AA
:10391000892B61F180E090E0A0E8BFE38093D702BB
:103920009093D802A093D902B093DA0280E090E09D
:10393000A0E0B0E08093DB029093DC02A093DD0274
:10394000B093DE028093DF029093E002A093E10245
:10395000B093E2028093E3029093E402A093E50225
:10396000B093E6028DEC92E00E9445348091AC0267
:103970009091AD02A091AE02B091AF028D879E876B
:10398000AF87B88B8093D7029093D802A093D902C7
:10399000B093DA022090B0023090B1024090B202AF
:1039A0005090B3022092DB023092DC024092DD02A2
:1039B0005092DE026090B4027090B5028090B60220
:1039C0009090B7026092DF027092E0028092E10272
:1039D0009092E202A090B802B090B902C090BA02F0
:1039E000D090BB02A092E302B092E402C092E50242
:1039F000D092E6026091C4027091C502882777FDDB
:103A00008095982F0E94D1370E949E37882777FD96
:103A10008095982F0E94D13769837A838B839C830A
:103A20006091C6027091C702882777FD8095982F14
:103A30000E94D1370E949E37882777FD8095982F66
:103A40000E94D1376D837E838F8398876091C802EF
:103A50007091C902882777FD8095982F0E94D137F1
:103A60000E949E37882777FD8095982F0E94D13736
:103A700069877A878B879C876D857E858F859889F6
:103A800020E030E040E050E00E94DD387B018C0116
:103A9000C201B10129813A814B815C810E94DD38EC
:103AA0009B01AC01C801B7010E9454367B018C0117
:103AB000C401B3012D813E814F8158850E94DD38BC
:103AC0009B01AC01C801B7010E9454367B018C01F7
:103AD000C601B50129853A854B855C850E94DD3894
:103AE0009B01AC01C801B7010E9454366DA37EA3AF
:103AF0008FA398A76D857E858F85988929813A81C6
:103B00004B815C810E94DD387B018C01C201B101D7
:103B100020E030E040E050E00E94DD389B01AC0145
:103B2000C801B7010E9455367B018C01C401B30165
:103B300029853A854B855C850E94DD389B01AC0167
:103B4000C801B7010E9455367B018C01C601B50141
:103B50002D813E814F8158850E94DD389B01AC014B
:103B6000C801B7010E94543669A77AA78BA79CA702
:103B70006D857E858F8598892D813E814F81588501
:103B80000E94DD387B018C01C201B10129853A8593
:103B90004B855C850E94DD389B01AC01C801B701F3
:103BA0000E9454367B018C01C401B30120E030E057
:103BB00040E050E00E94DD389B01AC01C801B70134
:103BC0000E9455367B018C01C601B50129813A81DD
:103BD0004B815C810E94DD389B01AC01C801B701BB
:103BE0000E9455366DA77EA78FA798AB6D857E8501
:103BF0008F85988929853A854B855C850E94DD38BB
:103C00007B018C01C201B1012D813E814F8158851C
:103C10000E94DD389B01AC01C801B7010E945536F6
:103C20007B018C01C401B30129813A814B815C8104
:103C30000E94DD389B01AC01C801B7010E945436D7
:103C40007B018C01C601B50120E030E040E050E08E
:103C50000E94DD389B01AC01C801B7010E945536B6
:103C600069AB7AAB8BAB9CAB57FA509457F8509436
:103C700097FA909497F89094D7FAD094D7F8D09474
:103C80006DA17EA18FA198A5A20191010E94DD38AE
:103C90007B018C0169A57AA58BA59CA52D853E8508
:103CA0004F8558890E94DD389B01AC01C801B701DE
:103CB0000E9455367B018C016DA57EA58FA598A924
:103CC000A60195010E94DD389B01AC01C801B70136
:103CD0000E9455367B018C0169A97AA98BA99CA900
:103CE000A40193010E94DD389B01AC01C801B7011A
:103CF0000E9454360E949E37882777FD8095982F22
:103D00000E94D13720E030E040E858E30E94DD38DF
:103D10006093900270939102809392029093930229
:103D20006DA17EA18FA198A5A40193010E94DD3809
:103D30007B018C0169A57AA58BA59CA5A60195019F
:103D40000E94DD389B01AC01C801B7010E945436C6
:103D50007B018C016DA57EA58FA598A92D853E853B
:103D60004F8558890E94DD389B01AC01C801B7011D
:103D70000E9455367B018C0169A97AA98BA99CA95F
:103D8000A20191010E94DD389B01AC01C801B7017D
:103D90000E9455360E949E37882777FD8095982F80
:103DA0000E94D13720E030E040E858E30E94DD383F
:103DB0006093940270939502809396029093970279
:103DC0006DA17EA18FA198A5A60195010E94DD3865
:103DD0007B018C0169A57AA58BA59CA5A401930103
:103DE0000E94DD389B01AC01C801B7010E94553625
:103DF0007B018C016DA57EA58FA598A9A2019101DB
:103E00000E94DD389B01AC01C801B7010E94543605
:103E10007B018C0169A97AA98BA99CA92D853E8576
:103E20004F8558890E94DD389B01AC01C801B7015C
:103E30000E9455360E949E37882777FD8095982FDF
:103E40000E94D13720E030E040E858E30E94DD389E
:103E50002091A8023091A9024091AA025091AB0290
:103E60000E945436609398027093990280939A024C
:103E700090939B026091C2027091C302882777FDE4
:103E80008095982F0E94D13720E030E043E851E43C
:103E90000E94363760938402709385028093860275
:103EA000909387026091C0027091C102882777FDCC
:103EB0008095982F0E94D13720E030E043E851E40C
:103EC0000E943637609388027093890280938A0239
:103ED00090938B026091BE027091BF02882777FD9C
:103EE0008095982F0E94D13720E030E043E851E4DC
:103EF0000E94363760938C0270938D0280938E02FD
:103F000090938F028091D5029091D6020196909362
:103F1000D6028093D5028DA99EA9E6960FB6F89495
:103F2000DEBF0FBECDBFCF91DF911F910F91FF90EC
:103F3000EF90DF90CF90BF90AF909F908F907F9049
:103F40006F905F904F903F902F900895CF93DF93A5
:103F50008091F7029091F80262E370E00E94D339F9
:103F60008091D5029091D6028617970718F4C1E088
:103F7000D0E047C089EF92E060E070E00E94C61197
:103F8000EC019093CC028093CB020097D1F5609125
:103F9000F9027091FA02882777FD8095982F0E9488
:103FA000D13760939C0270939D0280939E02909300
:103FB0009F026091FB027091FC02882777FD80953B
:103FC000982F0E94D1376093A0027093A102809332
:103FD000A2029093A3026091FD027091FE028827D5
:103FE00077FD8095982F0E94D1376093A40270933B
:103FF000A5028093A6029093A7021092D602109277
:10400000D502CE01DF91CF910895EF92FF920F93E9
:104010001F938B017A017093F8026093F70210925C
:10402000D6021092D5020E94E3080E94310980E076
:1040300090E0A0E0B0E08093A8029093A902A09342
:10404000AA02B093AB0280E090E00E9442139093EA
:10405000CC028093CB0289E70E94E8109093CC02B7
:104060008093CB0280ED97E00E94000C9093CC02ED
:104070008093CB0282E00E94A70B9093CC028093A6
:10408000CB0282E390E00E94110B9093CC028093CC
:10409000CB028BEC92E00E94130A88E70E94990DF4
:1040A0009093CC028093CB0280E090E00E949F1519
:1040B0000E94BE150E94221A9093CC028093CB02DC
:1040C000C7010E9449189093CC028093CB02C8018B
:1040D0000E9404189093CC028093CB0281E00E944E
:1040E000DB0F9093CC028093CB0280E791E00E949B
:1040F0004D199093CC028093CB0280E090E01F9109
:104100000F91FF90EF900895FC0180E090E0A0E017
:10411000B0E080879187A287B38784839583A68345
:10412000B78380839183A283B383808F918FA28F83
:10413000B38F848B958BA68BB78B848F958FA68F2F
:10414000B78F80A391A3A2A3B3A384A395A3A6A38F
:10415000B7A384A795A7A6A7B7A780A791A7A2A74B
:10416000B3A784879587A687B787808B918BA28B0F
:10417000B38B80E090E008952F923F924F925F9230
:104180006F927F928F929F92AF92BF92CF92DF9267
:10419000EF92FF920F931F93CF93DF93EC013801BF
:1041A000490116012701CB01BA01A90198010E941A
:1041B00054366CA37DA38EA39FA32C813D814E8199
:1041C0005F810E94DD38A70196010E94DD382C85B1
:1041D0003D854E855F850E9455365B016C016C877D
:1041E0007D878E879F87E88CF98C0A8D1B8DA801AF
:1041F00097010E94D238181664F017FB109517F932
:104200001095C601B501A80197010E943237882395
:1042100024F4EC86FD860E871F8768A579A58AA5FC
:104220009BA5A20191010E9436379B01AC01C401FC
:10423000B3010E945436688B798B8A8B9B8BECA4DC
:10424000FDA40EA51FA5A80197010E945436209138
:10425000FF023091000340910103509102030E943C
:10426000DD389B01AC01C801B7010E9455365B01E6
:104270006C01688B798B8A8B9B8B6CA17DA18EA145
:104280009FA1288139814A815B810E94DD382C857C
:104290003D854E855F850E9455367B018C01C601A8
:1042A000B501288539854A855B850E94DD389B01EB
:1042B000AC01C801B7010E9454366C8F7D8F8E8F80
:1042C0009F8FEC88FD880E891F89A80197010E94A5
:1042D000D238181624F4EC8EFD8E0E8F1F8F8C8929
:1042E0009D89AE89BF897C018D0117FB109517F957
:1042F00010956C8D7D8D8E8D9F8DA80197010E94EC
:104300003237882324F4EC8EFD8E0E8F1F8F8C8D18
:104310009D8DAE8DBF8D88A399A3AAA3BBA368A6CC
:1043200079A68AA69BA688899989AA89BB898CA720
:104330009DA7AEA7BFA7DF91CF911F910F91FF90CF
:10434000EF90DF90CF90BF90AF909F908F907F9035
:104350006F905F904F903F902F9008958EEB99ED66
:10436000ACE5BFE38093FF0290930003A0930103A9
:10437000B09302030895CF93DF93EC01809148033B
:1043800090E0860F911D803491050CF042C0FE0133
:10439000462F30E05CE80DC0208198E0822F832713
:1043A000369580FD3527915011F02695F7CF31963F
:1043B0004150442389F7FE01E60FF11D30836F5F02
:1043C00020E030E070E040E421C080914703803479
:1043D00010F01092470390914703E92FF0E0E75B5C
:1043E000FC4FDE01A20FB31F8C9180839F5F9093DF
:1043F0004703809148038F5F80934803809148036F
:10440000813410F0409348032F5F3F4F2617370742
:10441000E4F2DF91CF910895CF93DF93EC01809187
:10442000060390E004970CF451C0DE0120E030E078
:10443000809106038823F1F0909105038091060393
:10444000981740F480910603E0910503F0E0E05CEA
:10445000FF4F05C0E091050380910603F0E0E81BE3
:10446000F109E95FFC4F80818C93809106038150B4
:10447000809306032F5F3F4F119624303105C1F61C
:10448000FE0130E043E05CE80CC0208198E0822F20
:104490008327369580FD3527915011F02695F7CF6B
:1044A0003196415090F78B81381719F420E030E0B5
:1044B0000FC080910303909104030196909304032D
:1044C0008093030310920503109206032FEF3FEF32
:1044D000C901DF91CF9108951F920F920FB60F92ED
:1044E00011242F938F939F93EF93FF932EB5809179
:1044F00048038823F9F09091470380914803981767
:1045000040F480914803E0914703F0E0E05CFF4F06
:1045100005C0E091470380914803F0E0E81BF109F2
:10452000E75BFC4F80818EBD809148038150809372
:10453000480301C01EBC80910503803410F0109226
:10454000050380910503E82FF0E0E95FFC4F20832D
:104550008F5F80930503809106038F5F809306032E
:1045600080910603813418F080E480930603FF9164
:10457000EF919F918F912F910F900FBE0F901F90F1
:10458000189580934C0570934E0560934D058CE40F
:1045900095E063E00E94BB2108956091330570911E
:1045A0003405809135059091360520E030E040E2F9
:1045B00051E40E94DD380E949E379B01AC018EE1E0
:1045C000B9010E94C1226091390570913A0580912C
:1045D0003B0590913C0520E030E048EC52E40E941D
:1045E000DD380E949E379B01AC018FE1B9010E942A
:1045F000C12260913D0570913E0580913F059091EB
:10460000400520E030E048EC52E40E94DD380E9492
:104610009E379B01AC0180E2B9010E94C12208953E
:104620006F927F928F929F92AF92BF92CF92DF92C2
:10463000EF92FF920F931F93CF93DF9320E9A22E67
:1046400022E0B22E9AE6692E95E0792E86E7882E32
:1046500085E0982E6301E401F501E080F18002819C
:104660001381C801B701F601208131814281538154
:104670000E94323788232CF4F601E082F182028313
:104680001383C801B701288139814A815B810E9467
:10469000D238181624F4E882F9820A831B8384E056
:1046A00090E0A80EB91EC80ED91E24969CE9A91642
:1046B00092E0B90689F68091410564E10E94C7390C
:1046C000992341F514E10F2EF0E0CF2EF0E0DF2E1C
:1046D000F0E0EF2EF0E0FF2EF02DF401608171810B
:1046E0008281938120E030E04AE754E40E94DD3883
:1046F0000E949E379B01AC01812FB9010E94C1220B
:10470000F401C192D192E192F1924F011F5F1731F2
:1047100021F729C09A3039F519E10F2EF0E0CF2E9C
:10472000F0E0DF2EF0E0EF2EF0E0FF2EF02DF301B1
:10473000608171818281938120E030E04AE754E416
:104740000E94DD380E949E379B01AC01812FB90188
:104750000E94C122F301C192D192E192F1923F01F4
:104760001F5F1C3121F7DF91CF911F910F91FF90B7
:10477000EF90DF90CF90BF90AF909F908F907F9001
:104780006F9008951F93CF93DF93C4E8D2E011E0B8
:10479000699179918991999120E030E048EC52E457
:1047A0000E94DD380E949E379B01AC01812FB90128
:1047B0000E94C1221F5F143059F7DF91CF911F91E2
:1047C00008951F93CF93DF93C8E7D2E015E0699176
:1047D00079918991999120E030E048EC52E40E946F
:1047E000DD380E949E379B01AC01812FB9010E94E8
:1047F000C1221F5F183059F7609148057091490533
:1048000080914A0590914B0520E030E048EC52E45D
:104810000E94DD380E949E379B01AC0188E0B901FF
:104820000E94C122DF91CF911F9108951F93CF93D2
:10483000DF93C7E9D3E01AE069917991812F0E9453
:10484000C1221F5F1E30C1F7DF91CF911F910895E4
:10485000809145058330E9F0843030F4813061F097
:10486000823009F047C00BC0853039F18530C8F07F
:10487000833609F03FC02BC00E9410230895809119
:10488000410564E10E94C739992391F40E94C22333
:104890000895809141056AE00E94C739992351F536
:1048A0001DC08091410564E10E94C7399923B1F090
:1048B0009A3001F50E94E12308958091410564E159
:1048C0000E94C7399923B1F40E94CD2208958091A6
:1048D000410564E10E94C739992319F40E94162406
:1048E00008959A3039F460910303709104038EEFB8
:1048F0000E94C12208950F931F930BE813E0C80193
:104900000E947834C80103960E947834C801069644
:104910000E947834C80109960E9478341F910F9143
:1049200008956F927F928F929F92AF92BF92CF9293
:10493000DF92EF92FF920F931F93CF93DF930E942A
:104940002D1A90938A0380938903892B09F0A1C0C3
:10495000C0916405D0916505C83CD10510F5C431FE
:10496000D105D0F06091660570916705809168056A
:1049700090916905209198023091990240919A0294
:1049800050919B020E9455366093660570936705AF
:1049900080936805909369052196D0936505C0932F
:1049A00064056090840270908502809086029090E9
:1049B0008702C401B30120E030E040E85FEB0E94D1
:1049C000D23818160CF065C0A0908802B090890209
:1049D000C0908A02D0908B02C601B50120E030E081
:1049E00040E85FEB0E94D23818160CF052C0E090FD
:1049F0008C02F0908D0200918E0210918F02C801FE
:104A0000B70120E030E040E85FEB0E94D238181692
:104A10000CF03FC0C401B30120E030E040E85FE3A8
:104A20000E9432378823ACF5C601B50120E030E0A2
:104A300040E85FE30E94323788235CF5C801B70184
:104A400020E030E040E85FE30E94323788230CF535
:104A500060916405709165056451704080E090E05C
:104A60000E94CF379B01AC0160916605709167058C
:104A700080916805909169050E9436376093A8027D
:104A80007093A9028093AA029093AB0220E030E0D9
:104A900002C02FEF3FEFC901DF91CF911F910F911E
:104AA000FF90EF90DF90CF90BF90AF909F908F904E
:104AB0007F906F900895BC019C012F703070C901E8
:104AC000880F991F820F931F34E0759567953A956B
:104AD000E1F785579C4F0E94C23408950F931F93AE
:104AE0000BE813E06091A5037091A603C8010E9432
:104AF000C2346091A5037091A603C80103960E9479
:104B0000C2346091A5037091A603C80106960E9465
:104B1000C2346091A5037091A603C80109960E9452
:104B2000C2341F910F9108952F923F924F925F923E
:104B30006F927F928F929F92AF92BF92CF92DF92AD
:104B4000EF92FF920F931F93DF93CF9300D000D08B
:104B5000CDB7DEB780916305882319F00E946E25DA
:104B60001EC30E94A61F90938A03809389030E940C
:104B70002D1A90938A038093890397FF38C080E0B1
:104B800090E0A0E0B0E08093800290938102A09337
:104B90008202B093830280937C0290937D02A09363
:104BA0007E02B0937F028093780290937902A09363
:104BB0007A02B0937B0280938C0290938D02A09333
:104BC0008E02B0938F028093880290938902A09303
:104BD0008A02B0938B028093840290938502A09303
:104BE0008602B093870281E080936305D8C28091EA
:104BF00041058F5F80934105883C11F41092410577
:104C00000E94383020915F05309160054091610528
:104C100050916205621B730B840B950B0E94CF377A
:104C200020E030E04AE754E40E94363760935B05A9
:104C300070935C0580935D0590935E050E9438300B
:104C400060935F05709360058093610590936205A2
:104C5000C0904805D0904905E0904A05F0904B057A
:104C60008090780290907902A0907A02B0907B02B6
:104C7000C701B601A50194010E94543620E030E03E
:104C800044E353EC0E94323788235CF4D701C60119
:104C9000B0588093480590934905A0934A05B09376
:104CA0004B05C0904805D0904905E0904A05F0902A
:104CB0004B05C701B601A50194010E94543620E0BE
:104CC00030E044E353E40E94D23818165CF4D70174
:104CD000C601B0588093480590934905A0934A05B2
:104CE000B0934B05C0908002D0908102E090820288
:104CF000F0908302C701B60120E030E040E050E0D0
:104D00000E94D23818165CF4C701B60120E030E0EA
:104D100048E452E40E94D23818165CF012C0C70171
:104D2000B60120E030E048E452EC0E94323788239C
:104D300044F48092480590924905A0924A05B092A9
:104D40004B05C0907C02D0907D02E0907E02F090F6
:104D50007F02C701B60120E030E040E050E00E9451
:104D6000D23818165CF4C701B60120E030E048E400
:104D700052E40E94D23818165CF012C0C701B60186
:104D800020E030E048E452EC0E943237882344F4BB
:104D90008092480590924905A0924A05B0924B0531
:104DA00080914405882309F094C0209150053091EA
:104DB0005105C90137FF04C088279927821B930B2F
:104DC000039714F1B901882777FD8095982F0E94E9
:104DD000D1372091C9043091CA044091CB0450913D
:104DE000CC040E94DD386093590470935A04809378
:104DF0005B0490935C048092480590924905A092D0
:104E00004A05B0924B0516C040914805509149059E
:104E100060914A0570914B05C0905B05D0905C0590
:104E2000E0905D05F0905E0589E394E095018401D2
:104E30000E94BC2060915905772767FD70952091ED
:104E4000520530915305620F731F882777FD8095B7
:104E5000982F0E94D137AB01BC0100917C021091C8
:104E60007D0220917E0230917F02C0905B05D09040
:104E70005C05E0905D05F0905E0589E694E00E9497
:104E8000BC2060915A05772767FD709520915405E5
:104E900030915505620F731F882777FD8095982FF5
:104EA0000E94D137AB01BC010091800210918102B8
:104EB0002091820230918302C0905B05D0905C0506
:104EC000E0905D05F0905E0589E994E00E94BC20C9
:104ED00040C08130F1F5B0E5AB2EB5E0BB2E6624C5
:104EE0007724A0E38A2E912C689C8001699C100D88
:104EF000789C100D1124075C1B4FD5016D917D919D
:104F00005D01882777FD8095982F0E94D1372091E9
:104F1000C9043091CA044091CB045091CC040E9442
:104F2000DD38AB01BC01C0905B05D0905C05E09022
:104F30005D05F0905E05C80100E010E020E030E083
:104F40000E94BC200894611C711CB3E06B167104B4
:104F500059F6F9E5AF2EF4E0BF2EE4E88E2EE2E03C
:104F60009E2E4424552470E3672E712C469CC0016C
:104F7000479C900D569C900D1124F5014081518164
:104F800062817381D4010D911D912D913D914D014F
:104F9000C0905B05D0905C05E0905D05F0905E05EB
:104FA00087559C4F0E94BC200894411C511CE0E393
:104FB000F0E0AE0EBF1EF3E04F165104B9F660915B
:104FC000560570915705882777FD8095982F0E9488
:104FD000D1371B012C018091290490912A04A091C2
:104FE0002B04B0912C0489839A83AB83BC83C201C8
:104FF000B10129813A814B815C810E9455365B0168
:105000006C01E090F903F090FA030091FB0310911A
:10501000FC036090C9037090CA038090CB0390900A
:10502000CC03A80197010E945436A40193010E9469
:1050300055360E949E377093980360939703C6017C
:10504000B501A80197010E945536A40193010E9461
:1050500054360E949E3770939A0360939903C2015D
:10506000B10129813A814B815C810E9454365B01F8
:105070006C01A80197010E945436A40193010E947B
:1050800054360E949E3770939C0360939B03C60125
:10509000B501A80197010E945536A40193010E9411
:1050A00055360E949E3770939E0360939D030E9425
:1050B000282420915605309157058091A70390919F
:1050C000A803281739070CF047C00E946E2580916D
:1050D000780290917902A0917A02B0917B0280933C
:1050E000480590934905A0934A05B0934B0580E08D
:1050F00090E0A0E0B0E08093B5039093B603A09356
:10510000B703B093B8038093450490934604A093EB
:105110004704B09348048093E5039093E603A0937B
:10512000E703B093E8038093750490937604A0930B
:105130007704B09378048093150490931604A09399
:105140001704B09318048093A5049093A604A09329
:10515000A704B093A80423C067E9E62E63E0F62E07
:1051600000E010E0D7018D919C916091A7037091B0
:10517000A803681779070CF4BC01F70161937193D8
:105180007F01C801880F991F800F911F85579C4F81
:105190000E94C2340F5F1F4F0430110519F70F90A2
:1051A0000F900F900F90CF91DF911F910F91FF9073
:1051B000EF90DF90CF90BF90AF909F908F907F90B7
:1051C0006F905F904F903F902F9008950F931F9393
:1051D000CF93DF938C018F709070EC01CC0FDD1FAB
:1051E000C80FD91FC557DC4FCE010E94FE3488235B
:1051F00049F0CE010E94923468EE73E080E090E0C6
:105200000E94463084E0159507958A95E1F7CE0116
:10521000B8010E948F35DF91CF911F910F910895B2
:105220001F93809182058823A1F482E895E00E9473
:105230003B34892B71F00E94383060938A0570935B
:105240008B0580938C0590938D0582E895E00E94F4
:1052500045340E94383020918A0530918B05409169
:105260008C0550918D05621B730B840B950B655853
:10527000734080409040A0F01092320510923105AA
:10528000109257051092560510925505109254052C
:10529000109253051092520510925105109250052C
:1052A0008CE495E00E940C22892B09F0D2C50E9463
:1052B000383060938A0570938B0580938C059093AA
:1052C0008D0580914C05853609F4F5C2863608F0C7
:1052D0006FC0803109F4AAC1813180F5883009F4AA
:1052E00023C18930C0F4843009F4F6C0853050F40D
:1052F000823009F4D7C0833008F0D9C0813009F07A
:10530000A8C5CDC0863009F4FDC010914205873094
:1053100008F002C1EFC08C3009F430C18D3038F490
:105320008A3009F419C18B3008F01FC107C18E30D3
:1053300009F436C18F3008F04CC129C1823509F417
:10534000EBC18335C8F4853109F4B6C1863150F418
:10535000823109F49EC1823108F48DC1843109F093
:1053600078C5A5C1803509F4B1C1813508F0C1C146
:10537000863109F06EC5A5C18B3509F42BC28C3579
:1053800050F4843509F4FAC1843508F4DEC18A3555
:1053900009F05FC50CC28D3509F448C28D3508F49B
:1053A0002CC28E3509F45BC2843609F052C570C236
:1053B000893C09F4ECC38A3CB0F5823709F431C367
:1053C0008337C0F48E3609F4D4C28F3650F4873652
:1053D00009F49DC2873608F481C2883609F039C5C0
:1053E000AFC2803709F4EBC210914205813708F053
:1053F000FFC2D2C28B3709F46CC38C3750F48937A3
:1054000009F43BC38A3708F04BC3883709F021C53C
:1054100021C3823809F48FC3883C09F4A5C38C37B3
:1054200009F017C56FC3863D09F46AC4873DC0F40F
:10543000823D09F40AC4833D50F48B3C09F4D3C384
:105440008B3C08F4B7C38C3C09F003C5E5C3843D2D
:1054500009F421C410914205853D08F035C408C403
:105460008F3D09F4A5C4803E50F48D3D09F474C409
:105470008E3D08F084C48C3D09F0EBC45AC48A3FC9
:1054800009F4CDC48B3F20F4803E09F0E2C4A9C4E6
:105490008B3F09F4CBC48E3F09F0DBC4CEC48091AE
:1054A0004D05BAC480914D0580934505B2C48091E5
:1054B0004D05809344058091780290917902A091E6
:1054C0007A02B0917B028093480590934905A0939E
:1054D0004A05B0934B059DC480914205815080934D
:1054E000420580914D0590914E059093470580931C
:1054F0004605AFC411501093420580914D0580932D
:105500009F03A7C4809142058150809342058091FA
:105510004D058093A0039DC41150109342058091C6
:105520004D058093A10395C48091420581508093DD
:10553000420580914D058093A2038BC48091420562
:1055400081508093420580914D0590914E05909336
:10555000A4038093A3037DC480914D0590914E05D3
:10556000909351058093500574C480914D0590919E
:105570004E0590935305809352056BC480914D0561
:1055800090914E05909355058093540562C4809187
:105590004D0590914E05909357058093560559C43B
:1055A00060914D0570914E05882777FD8095982F65
:1055B0000E94D13720E030E040E251E40E943637CB
:1055C00060932D0570932E0580932F0590933005E1
:1055D00040C480914D0590914E0590933205809383
:1055E0003105809156059091570590933805809329
:1055F000370580913D0590913E05A0913F05B09102
:1056000040058093330590933405A0933505B093FE
:10561000360580E090E0A0E0B0E0809339059093FB
:105620003A05A0933B05B0933C0513C460914D052A
:1056300070914E05882777FD8095982F0E94D1376D
:1056400020E030E04AE754E40E9436379B01AC0189
:105650006091330570913405809135059091360540
:105660000E94553660933305709334058093350559
:1056700090933605EEC38091420581508093420598
:1056800080914D0590914E059093A6038093A503BC
:10569000E0C38091420581508093420580914D0581
:1056A00090914E059093A8038093A703D2C3809155
:1056B0004D0580935805CDC380914D0580935905C4
:1056C000C8C380914D0580935A05C3C360914D05B1
:1056D00070914E05882777FD8095982F0E94D137CD
:1056E0006093E1047093E2048093E3049093E404F4
:1056F00090C360914D0570914E05882777FD809588
:10570000982F0E94D1376093E5047093E60480934C
:10571000E7049093E8047DC360914D0570914E05B8
:10572000882777FD8095982F0E94D13720E030E0C0
:105730004AE754E40E9436376093CD047093CE0458
:105740008093CF049093D00464C360914D05709111
:105750004E05882777FD8095982F0E94D13720E04D
:1057600030E04AE754E40E9436376093D1047093E6
:10577000D2048093D3049093D4044BC360914D051D
:1057800070914E05882777FD8095982F0E94D1371C
:1057900020E030E44CE156E40E9436376093D504B3
:1057A0007093D6048093D7049093D80432C3609149
:1057B0004D0570914E05882777FD8095982F0E94A2
:1057C000D137609311057093120580931305909360
:1057D00014051FC360914D0570914E05882777FD14
:1057E0008095982F0E94D137609315057093160508
:1057F00080931705909318050CC360914D05709127
:105800004E05882777FD8095982F0E94D13720E09C
:1058100030E04AE754E40E9436376093FD04709309
:10582000FE048093FF0490930005F3C260914D0540
:1058300070914E05882777FD8095982F0E94D1376B
:1058400020E030E04AE754E40E94363760930105D7
:10585000709302058093030590930405DAC260916A
:105860004D0570914E05882777FD8095982F0E94F1
:10587000D13720E030E44CE156E40E9436376093A3
:105880000505709306058093070590930805C1C22E
:1058900060914D0570914E05882777FD8095982F72
:1058A0000E94D1376093BD037093BE038093BF0302
:1058B0009093C003AEC260914D0570914E0588274C
:1058C00077FD8095982F0E94D1376093C103709324
:1058D000C2038093C3039093C4039BC260914D05A0
:1058E00070914E05882777FD8095982F0E94D137BB
:1058F00020E030E04AE754E40E9436376093A90381
:105900007093AA038093AB039093AC0382C260911F
:105910004D0570914E05882777FD8095982F0E9440
:10592000D13720E030E04AE754E40E9436376093F4
:10593000AD037093AE038093AF039093B00369C23D
:1059400060914D0570914E05882777FD8095982FC1
:105950000E94D13720E030E44CE156E40E94363713
:105960006093B1037093B2038093B3039093B40335
:1059700050C260914D0570914E05882777FD809546
:10598000982F0E94D1376093ED037093EE038093BC
:10599000EF039093F0033DC260914D0570914E0569
:1059A000882777FD8095982F0E94D1376093F10367
:1059B0007093F2038093F3039093F4039DC160917D
:1059C0004D0570914E05882777FD8095982F0E9490
:1059D000D13720E030E04AE754E40E943637609344
:1059E000D9037093DA038093DB039093DC0311C235
:1059F00060914D0570914E05882777FD8095982F11
:105A00000E94D13720E030E04AE754E40E94363764
:105A10006093DD037093DE038093DF039093E003D4
:105A20006BC160914D0570914E05882777FD80957B
:105A3000982F0E94D13720E030E44CE156E40E94D8
:105A400036376093E1037093E2038093E30390930E
:105A5000E403DFC160914D0570914E05882777FD05
:105A60008095982F0E94D13760931D0470931E0477
:105A700080931F0490932004CCC160914D057091D8
:105A80004E05882777FD8095982F0E94D137609327
:105A90002104709322048093230490932404B9C1B9
:105AA00060914D0570914E05882777FD8095982F60
:105AB0000E94D13720E030E04AE754E40E943637B4
:105AC0006093090470930A0480930B0490930C0470
:105AD000A0C160914D0570914E05882777FD809596
