:100000000C9493060C94BB060C94BB060C94BB0694
:100010000C94BB060C94BB060C94BB060C94BB065C
:100020000C94BB060C94BB060C94BB060C9479385C
:100030000C94BB060C94BB060C94BB060C94BB063C
:100040000C9415330C9456220C94C8350C94163627
:100050000C94BB060C94BB060C94BB060C94BB061C
:100060000C94BB060C94BB06036EDB363D9A999943
:10007000993DABAAAA2A3E000000803F084AD73B20
:100080003BCE016E84BCBFFDC12F3D6C74319ABD67
:1000900056833DDA3D00C77F11BED9E4BB4C3E918B
:1000A0006BAAAABE000000803F072C7AA5BA6CC5D7
:1000B00090DA3B9365FC8BBC53F810FD3C56928361
:1000C0004DBD879D3AB63DCBC9BF5BBE73DA0FC944
:1000D0003F00007000000000240000000200030048
:1000E0000000650054FFEF0000FA80000B12820050
:1000F00001030C30C30E8C8CE914D5400213710F30
:100100008E3883F8833000F883258EF8833000F82A
:1001100083FFFFFFFF0FFEA9D6240004001A827997
:10012000A10000003CFFFF00000010000038836FBA
:10013000A2003E03304000000002CAE3093E8000F6
:1001400000200000000000000040000000600000EF
:1001500000000C0000000C186E000006920A16C089
:10016000DFFFFF0256FD8CD377FFE1C496E0C5BEEA
:10017000AA00000000FFFF0B2B0000165700000331
:10018000594000000000001DFA00026C1D00000034
:10019000003FFFDFEB003EB3B6000D227800002FDA
:1001A0003C00000000001942B5000039A20000B375
:1001B00065D90E9FC91DCF4C34300000005000009F
:1001C000003BB67AE80064000000C80000000000B0
:1001D00000100000001000FA921000225E000D22B4
:1001E0009F0001000000320000FF46000063D400C1
:1001F000001000000004D6000004CC000004CC0075
:10020000000000107200000040000000000000002C
:100210000000060002000500070000000000640066
:100220000000000000000000050005006400200040
:10023000000000000000000000000040000000037B
:100240000000000032F8980000FF650000830F00F6
:1002500000FF9BFC00000000000000000000000008
:10026000000000000000000000000000000000008E
:10027000000000000000000000000000000000106E
:100280000040000000000000060000B26A0002000A
:10029000000001FB830068000000D9FC007CF1FF36
:1002A000830000000000650000006403E8006400B3
:1002B00028000000250000000016A000000000102B
:1002C0000000001000002F0000000001F4000010EA
:1002D0000000280000FFFF4581FFFFFA72000000C8
:1002E0000000000000004400050005BAC600477881
:1002F000A200000001000000000000060000000055
:10030000140000254D002F706D000005AE000C029A
:10031000D00000000000000000000000000000000D
:1003200000001B00000000000000000000000000B2
:100330000000640000000800000000000000000051
:1003400000000000000000000000000000000000AD
:10035000000000000000000000000000000000009D
:10036000000000000000000000000000000000008D
:10037000000000000000000000000000000000007D
:10038000000000000000000000000000000000006D
:1003900000001B00000000000000000000000E0034
:1003A0000E00000AC70004000000000032FFFFFF3B
:1003B0009C00000B2B000000020000000100000068
:1003C00064FFE500000000000000000000000000E5
:1003D000000000000100000000000100000000001B
:1003E0000000018000000180000001800000242640
:1003F000D30000000000000000000600100096007E
:100400003C000000000000000000000000000000B0
:10041000000C0A4E68CDCF770950166759C619CE21
:10042000820000000000000000000000000000004A
:1004300000000000000000000017D7840003000047
:10044000000000000000000000C7938F9D1E1B1CD1
:100450001900000000000000000000000000000083
:1004600000000000000000000002031885000040AA
:100470000000000003000000030000000000000076
:10048000004000000000000000000000000000002C
:10049000000000000000000000000000000000005C
:1004A000000000000000000000000000000000004C
:1004B0000000000000677DDF7E72902E554CF6E64E
:1004C00088000000000000000000000000000000A4
:1004D00000D8DCB4B8B0D8B9ABF3F8FAB3B7BB8E78
:1004E0009EAEF132F51BF1B4B8B08097F1A9DFDF11
:1004F000DFAADFDFDFF2AAC5CDC7A90CC92C97F1AF
:10050000A989264666B28999A92D557DB0B08AA8D9
:1005100096365676F1BAA3B4B280C0B8A89711B295
:100520008398BAA3F0240844106418B2B9B498832D
:10053000F1A329557DBAB5B1A38393F0002850F5F6
:10054000B2B6AA839328547CF1B9A3829361BAA26C
:10055000DADEDFDB819AB9AEF5606870F1DABAA253
:10056000DFD9BAA2FAB9A38292DB31BAA2D9BAA270
:10057000F8DF85A4D0C1BBAD83C2C5C7B8A2DFDF99
:10058000DFBAA0DFDFDFD8D8F1B8AAB38DB4980DF9
:10059000355DB2B6BAAF8C96198F9FA70E161EB4F2
:1005A0009AB8AA872C547CBAA4B08AB691325676EF
:1005B000B28494A4C808CDD8B8B4B0F19982A82D5B
:1005C000557D98A80E161EA22C547C92A4F02C5097
:1005D00078F184A898C4CDFCD80DDBA8FC2DF3D904
:1005E000BAA6F8DABAA6DED8BAB2B68696A6D0F31C
:1005F000C841DAA6C8F8D8B0B4B882A892F52C548D
:100600008898F135D9F418D8F1A2D0F8F9A884D98E
:10061000C7DFF8F883C5DADF69DF83C1D8F40114D6
:10062000F1A8824EA884F311D182F5D99228978837
:10063000F109F41C1CD884A8F3C0F9D1D99782F130
:1006400029F40DD8F3F9F9D1D982F4C203D8DEDF49
:100650001AD8F1A2FAF9A88498D9C7DFF8F8F88374
:10066000C7DADF69DFF883C3D8F40114F198A882F0
:100670002EA884F311D182F5D992509788F109F40C
:100680001CD884A8F3C0F8F9D1D99782F149F40DA8
:10069000D8F3F9F9D1D982F4C403D8DEDFD8F1ADAB
:1006A0008898CCA809F9D98292A8F57CF1883ACF2C
:1006B000944A6E98DB6931DAADF2DEF9D88795A8F5
:1006C000F221D1DAA5F9F417D9F1AE8ED0C0C3AEBC
:1006D00082C684C3A88595C8A588F2C0F1F4010E2E
:1006E000F18E9EA8C63E56F554F18872F40115F1BC
:1006F0009845856EF58E9E0488F142985A8E9E0626
:100700008869F4011CF1981E1108D0F504F11E97B8
:100710000202983625DBF9D985A5F3C1DA85A5F360
:10072000DFD88595A8F309DAA5FAD88292A8F578DA
:10073000F1881A849F26889821DAF41DF3D8879FC0
:1007400039D1AFD9DFDFFBF9F40CF3D8FAD0F8DAFE
:10075000F9F9D0DFD9F9D8F40BD8F3879F39D1AFA5
:10076000D9DFDFF41DF3D8FAFCA869F9F9AFD0DAC4
:10077000DEFAD9F88F9FA8F1CCF398DB45D9AFDF2B
:10078000D0F8D8F18F9FA8CAF38809DAAF8FCBF8D9
:10079000D8F2AD978D0CD9A5DFF9BAA6F3FAF41209
:1007A000F2D8950DD1D9BAA6F3FADAA5F2C1BAA654
:1007B000F3DFD8F1BAB2B68696A6D0CAF349DAA664
:1007C000CBF8D8B0B4B8D8AD84F2C0DFF18FCBC3CA
:1007D000A8B2B68696C8C1CBC3F3B0B48898A82196
:1007E000DB718D9D71859521D9ADF2FAD88597A8D9
:1007F00028D9F408D8F28D29DAF405D9F285A4C2F3
:10080000F2D8A88D9401D1D9F411F2D88721D8F467
:100810000AD8F28498A8C801D1D9F411D8F3A4C891
:10082000BBAFD0F2DEF8F8F8F8F8F8F8F8D8F1B87D
:10083000F6B5B9B08A95A3DE3CA3D9F8D85CA3D9A4
:10084000F8D87CA3D9F8D8F8F9D1A5D9DFDAFAD845
:10085000B18530F7D9DED8F830ADDADED8F2B48C15
:1008600099A32D557DA083DFDFDFB591A0F629D9AF
:10087000FBD8A0FC29D9FAD8A0D051D9F8D8FC517E
:10088000D9F9D879D9FBD8A0D0FC79D9FAD8A1F96F
:10089000F9F9F9F9A0DADFDFDFD8A1F8F8F8F8F80C
:1008A000ACDEF8ADDE8393AC2C547CF1A8DFDFDF47
:1008B000F69D2CDAA0DFD9FADB2DF8D8A850DAA003
:1008C000D0DED9D0F8F8F8DB55F8D8A878DAA0D07F
:1008D000DFD9D0FAF8F8F8F8DB7DF8D89CA88CF5C9
:1008E00030DB38D9D0DEDFA0D0DEDFD8A848DB5837
:1008F000D9DFD0DEA0DFD0DED8A868DB70D9DFDF9B
:10090000A0DFDFD8F1A888902C547C98A8D05C3860
:10091000D1DAF2AE8CDFF9D8B087A8C1C1B188A80E
:10092000C6F9F9DA36D8A8F9DA36D8A8F9DA36D815
:10093000A8F9DA36D8A8F9DA36D8F78D9DADF818C7
:10094000DAF2AEDFD8F7ADFA30D9A4DEF9D8F2AEDC
:10095000DEFAF983A7D9C3C5C7F1889BA77AADF79B
:10096000DEDFA4F8849408A797F300AEF29819A4E8
:1009700088C6A39488F632DFF28393DB09D9F2AA02
:10098000DFD8D8AEF8F9D1DAF3A4DEA7F1889B7AE4
:10099000D8F38494AE19F9DAAAF1DFD8A881C0C3DC
:1009A000C5C7A39283F628ADDED9F8D8A350ADD938
:1009B000F8D8A378ADD9F8D8F8F9D1A1DADEC3C553
:1009C000C7D8A18194F818F2B089ACC3C5C7F1D8D3
:1009D000B8B4B09786A8319B069907AB9728889B37
:1009E000F00C201440B0B4B8F0A88A9A285078B718
:1009F0009BA8295179247059446938644831F1BB66
:100A0000AB88002C547CF0B38BB8A804285078F144
:100A1000B088B49726A85998BBABB38B022646661C
:100A2000B0B8F08A9CA82951798B2951798A247011
:100A3000598B2058718A4469388B3940688A6448D8
:100A4000318B30496088F1AC002C547CF08CA804C8
:100A5000285078F1889726A85998AC8C02264666CB
:100A6000F0899CA829517924705944693864483127
:100A7000A98809205970AB11384069A8193148601C
:100A80008CA83C415C207C00F187981986A86E7682
:100A90007EA999882D557DD8B1B5B9A3DFDFDFAE2A
:100AA000D0DFAAD0DEF2ABF8F9D9B087C4AAF1DF63
:100AB000DFBBAFDFDFB9D8B1F1A3978E60DFB084C1
:100AC000F2C8F8F9D9DED89385F14AB183A308B505
:100AD000839A0810B79F10D8F1B0BAAEB08AC2B2EC
:100AE000B68E9EF1FBD9F41DD8F9D90CF1D8F8F8DF
:100AF000AD61D9AEFBD8F40CF1D8F8F8AD19D9AE88
:100B0000FBDFD8F416F1D8F8AD8D61D9F4F4ACF56B
:100B10009C9C8DDF2BBAB6AEFAF8F40BD8F1AED0B0
:100B2000F8AD51DAAEFAF8F1D8B9B1B6A3839C08A2
:100B3000B9B1839AB5AAC0FD3083B79F10B58B9326
:100B4000F20202D1ABDADED8F1B080BAABC0C3B2E8
:100B500084C1C3D8B1B9F38BA391B609B4D9ABDEC4
:100B6000B0879CB9A3DDF1B38B8B8B8B8BB087A344
:100B7000A3A3A3B28BB69BF2A3A3A3A3A3A3A3A3F4
:100B8000A3A3F1B087B59AA3F39BA3A3DCBAACDF10
:100B9000B9A3A3A3A3A3A3A3A3A3A3A3A3A3A3A30F
:100BA000A3D8D8D8BBB3B7F1AAF9DAFFD9809AAAEB
:100BB00028B48098A720B79787A86688F07951F164
:100BC000902C870CA781976293F0717160859401D6
:100BD00029517990A5F1284C6C870C95188578A33C
:100BE0008390284C6C886CD8F3A28200F210A892F3
:100BF0001980A2F2D926D8F188A84DD948D896A84C
:100C00003980D93CD89580A839A68698D92CDA871E
:100C1000A72CD8A8899519A980D938D8A88939A925
:100C200080DA3CD8A82EA83990D90CD8A89531984C
:100C3000D90CD8A809D9FFD801DAFFD89539A9DA93
:100C400026FFD890A80D8999A810809821DA2ED86F
:100C50008999A83180DA2ED8A886963180DA2ED8E4
:100C6000A8873180DA2ED8A88292F34180F1D92E5C
:100C7000D8A882F31980F1D92ED882ACF3C0A28013
:100C800022F1A62EA72EA92298A829DAACDEFFD839
:100C9000A2F22AF1A92E8292A8F23180A696F1D969
:100CA00000AC8C9C0C30ACDED0DEFFD88C9CACD081
:100CB00010ACDE8092A2F24C82A8F1CAF235F19615
:100CC00088A6D900D8F1FF00000000240027002AE0
:100CD0000000000000250028002B00000000002379
:100CE000002600290004040404040404040202028F
:100CF000020202030303030303010204081020405D
:100D000080010204081020010204081020000000E5
:100D100007000201000003040600000000000000BC
:100D200000007F24FB3611241FBECFEFD8E0DEBFCA
:100D3000CDBF11E0A0E0B1E0E4E4FAE702C0059025
:100D40000D92A234B107D9F716E0A2E4B1E001C0D8
:100D50001D92AD38B107E1F71DE0C6E2DDE004C049
:100D60002297FE010E941C3DC232D107C9F70E94A2
:100D700051370C94BD060C940000F8940C94203D5F
:100D8000FB01DC0104C08D910190801921F44150D8
:100D90005040C8F7881B990B0895FC011092BC00C5
:100DA000662319F088B1806302C088B18F7C88B94E
:100DB0001092B9009F01442737FD4095542F60E8F9
:100DC0007EE380E090E00E94FF3C205130404040B4
:100DD0005040CA01B90122E030E040E050E00E94FA
:100DE000FF3C2093B80084E08093BC000895482F16
:100DF000440F92E064EB54E86093BC002AEF30E0CB
:100E00008091BC0087FD34C0215030408FEF2F3FD0
:100E10003807B1F727C08091B900887F883021F06A
:100E2000803111F082E008954093BB005093BC00E4
:100E30002AEF30E08091BC0087FD1EC02150304079
:100E40008FEF2F3F3807B1F70FC08091B900887F2F
:100E5000803221F4992351F09150CECF883131F472
:100E600080E0089581E0089583E0089584E0089586
:100E70001216130684F2F6CF1216130634F3F4CFCB
:100E8000EF92FF920F931F93162FE42E022FF32E53
:100E90000E94F7061093BB0084E88093BC002AEF01
:100EA00030E08091BC0087FD07C0215030408FEFBB
:100EB0002F3F3807B1F703C0121613063CF0802FFE
:100EC0009F2D9C01F90190E044E81CC08091B9007D
:100ED000F6CF80818093BB004093BC002AEF30E0C6
:100EE0008091BC0087FD07C0215030408FEF2F3F1D
:100EF0003807B1F705C01216130614F48091B90033
:100F00009F5F31969E1528F384E98093BC002AEFF9
:100F100030E08091BC0087FD06C02115310519F035
:100F200021503040F6CF81E01F910F91FF90EF905C
:100F300008951F93F82F122F72E0B4EBE82FEE7F85
:100F4000A4E8B093BC002AEF30E08091BC0087FD9C
:100F5000D0C0215030408FEF2F3F3807B1F7B7C0D6
:100F60008091B900887F883021F0803111F091E1C3
:100F7000BDC0E093BB00A093BC002AEF30E080919D
:100F8000BC0087FDBBC0215030408FEF2F3F38079A
:100F9000B1F79FC09091B900987F903229F47723E0
:100FA00009F499C07150CDCF983109F094C0609385
:100FB000BB0084E88093BC002AEF30E08091BC0045
:100FC00087FDA1C0215030408FEF2F3F3807B1F788
:100FD00084C08091B900887F883211F095E186C085
:100FE00062E0A4EB7F2F7160E4E8A093BC002AEFDD
:100FF00030E08091BC0087FD8BC0215030408FEFE6
:101000002F3F3807B1F76BC08091B900887F8830D7
:1010100021F0803111F097E169C07093BB00E0933B
:10102000BC002AEF30E08091BC0087FD76C02150E3
:1010300030408FEF2F3F3807B1F758C08091B9008B
:10104000887F883429F4662309F44BC06150CDCFE2
:10105000803409F046C0FA0160E0412F50E0415071
:101060005040A4EC74E822C0862F90E084179507C6
:1010700019F47093BC0002C0A093BC002AEF30E0CA
:101080008091BC0087FD4EC0215030408FEF2F3F34
:101090003807B1F728C09091B900987F903511F0CA
:1010A000983521F58091BB0081936F5F6117E0F265
:1010B00084E98093BC002AEF30E08091BC0087FD7A
:1010C00014C02115310589F021503040F6CF90E150
:1010D0000DC092E10BC093E109C094E107C096E115
:1010E00005C099E103C09AE101C090E0892F1F91EA
:1010F0000895121613060CF433CFE9CF1216130617
:101100000CF448CFE6CF121613060CF462CFE5CFED
:10111000121613060CF478CFE2CF121613060CF455
:101120008DCFE4CF121613060CF4B5CFDCCF7F922F
:101130008F929F92AF92BF92CF92DF92EF92FF92E7
:101140000F931F93CF93DF93F82EE62E742E690131
:10115000E8010E945D334B015C018F2D880F6E2DDD
:10116000A601272D0E949907882311F01FEF01C0C7
:10117000172D2097C1F00E945D33681979098A09FB
:101180009B099E0140E050E06217730784079507B2
:1011900050F0212F332727FD3095872D90E0281719
:1011A00039070CF41FEF812FDF91CF911F910F9121
:1011B000FF90EF90DF90CF90BF90AF909F908F9077
:1011C0007F9008959C018230910518F02FEF3FEF3A
:1011D00045C080935C0290935D028AE290E0AC018E
:1011E000249FC001259F900D349F900D11248E5B8C
:1011F0009E4F9093550280935402C901880F991F06
:10120000820F931F880F991F880F991F8A569E4F30
:10121000909357028093560287E290E0AC01249F9E
:10122000C001259F900D349F900D112482559E4F33
:1012300090935902809358028CE290E0AC01249F75
:10124000C001259F900D349F900D112484509E4F16
:1012500090935B0280935A0220E030E0C901089528
:101260000F931F93CF93DF93C0915402D0915502F7
:1012700085E7888389E189838AE18A838CE08B838F
:101280008AE68C8383E28D838BE18E838CE18F836E
:101290008FE18A8780E28B8782E78C8784E78D875E
:1012A00083E48E878BE38F8781E4888B88E3898B47
:1012B00089E38A8B8AE38B8B8BE68D8B8CE68E8B16
:1012C00087E38F8B8FE6888F86E0898F84E28A8F11
:1012D0008DE68B8F8EE68C8F80E78D8F89E488A7D3
:1012E00081E089A785E28E8F86E28F8F87E288A3CF
:1012F00088E289A389E28AA38AE28BA384E38CA390
:1013000083E68DA384E68EA387E68FA380915C029B
:1013100090915D02009719F0019769F406C0E09181
:101320005602F091570288E605C0E0915602F0910E
:10133000570289E68083009156021091570280E09F
:1013400094E0F8019283818386E7838384E591E0CA
:101350009583848387EF9DEF9783868380E091E078
:101360009187808786E696E293878287209158024C
:101370003091590283E890E0A0E0B0E0F901808369
:101380009183A283B38380E098E0A0E0B0E08483FF
:101390009583A683B783108681E08187128688E1D2
:1013A000838782E390E09587848785E0868780E065
:1013B00090E0A0E2B1E48787908BA18BB28B80E0B4
:1013C00090E0A2EDB2E4838B948BA58BB68B49E2BF
:1013D0005CE56FE07EE3478B508F618F728F8AE907
:1013E00099E9A9E9BEE3838F948FA58FB68F83E334
:1013F00093E3A3E7BFE3878F90A3A1A3B2A343A383
:1014000054A365A376A3E0915A02F0915B02D183C5
:10141000C0831383028333A722A7DF91CF911F914B
:101420000F910895DC01E0915A02F0915B028681F0
:10143000882319F081E08C9301C01C9280E090E039
:101440000895DF93CF930F92CDB7DEB7982FA09179
:101450005A02B0915B025D968C915D97882321F0D2
:10146000992389F082E00DC016968C9116978823F7
:10147000E9F0992341F01C968C911C978823F9F48C
:1014800081E0898301C019821296ED91FC91139736
:101490000D90BC91A02D808151966C9141E09E01F0
:1014A0002F5F3F4F0E944007882319F42FEF3FEF33
:1014B00008C0E0915A02F0915B028981848720E0A4
:1014C00030E0C9010F90CF91DF910895CF92DF9264
:1014D000EF92FF920F931F93DF93CF9300D0CDB77E
:1014E000DEB7D82EC92E8B017A014115510519F4AA
:1014F0002FEF3FEF41C0E0915A02F0915B028681ED
:10150000882319F42EEF3FEF37C0A281B3819B01EE
:101510002D0D311D18968D919C9119978217930767
:1015200018F42DEF3FEF28C0C982DA820190F081D4
:10153000E02D8C91638D42E09E012F5F3F4F0E9412
:101540004007882319F42CEF3FEF16C0E0915A02B0
:10155000F0915B02A281B3810190F081E02D8C912A
:10156000608D402F97010E944007882319F020E0EA
:1015700030E002C02BEF3FEFC9010F900F90CF91E9
:10158000DF911F910F91FF90EF90DF90CF90089522
:101590001F93DF93CF930F92CDB7DEB7182FA09193
:1015A0005A02B0915B025C968C915C97811781F135
:1015B000112319F080E3898301C019821D968C9153
:1015C0001D97882319F08981826089835B968C91AD
:1015D0005B97882319F08981806889831296ED9141
:1015E000FC9113970D90BC91A02D808157966C9122
:1015F00041E09E012F5F3F4F0E944007882319F46E
:101600002FEF3FEF07C0E0915A02F0915B02148F79
:1016100020E030E0C9010F90CF91DF911F91089534
:10162000DF93CF930F92CDB7DEB7BC010097A9F13E
:1016300020915A0230915B02D90119968D919C91AB
:101640001A978617970748F16536710530F50E949D
:10165000B63C61506983F90182819381A081B18197
:10166000FC01808194966C9141E09E012F5F3F4F79
:101670000E944007882389F0E0915A02F0915B02B2
:10168000698170E06F5F7F4F818592850E94B63CD3
:1016900072A361A320E030E002C02FEF3FEFC90149
:1016A0000F90CF91DF910895DF93CF930F92CDB735
:1016B000DEB79C01A0915A02B0915B0216968C9104
:1016C0001697882399F12C3B310510F081E015C065
:1016D0002236310510F082E010C02A32310510F0B8
:1016E00083E00BC02431310510F084E006C02A30BD
:1016F000310510F085E001C086E0898317969C9142
:10170000179789819817D9F01296ED91FC9113974C
:101710000D90BC91A02D808112966C9141E09E01AC
:101720002F5F3F4F0E944007882319F42FEF3FEFB0
:1017300008C0E0915A02F0915B028981878320E022
:1017400030E0C9010F90CF91DF910895DF93CF93DF
:101750000F92CDB7DEB7982FA0915A02B0915B02DD
:1017600016968C9116978823A1F1943061F09530EC
:1017700018F4923071F505C0983039F0903149F580
:1017800006C0198206C088E003C080E101C088E17C
:10179000898315962C91159730E0898190E0E3E0DC
:1017A00095958795EA95E1F72817390709F112967B
:1017B000ED91FC9113970D90BC91A02D808117960F
:1017C0006C9141E09E012F5F3F4F0E9440078823AC
:1017D00019F42FEF3FEF0EC0E0915A02F0915B0237
:1017E000898190E073E0959587957A95E1F78583F7
:1017F00020E030E0C9010F90CF91DF910895DF9391
:10180000CF930F92CDB7DEB79C01A0915A02B09151
:101810005B0216968C9116978823E1F181E0243FB4
:10182000380791F081E0253F380720F42A3F310541
:1018300089F508C083E0283E380741F0205D374035
:1018400049F506C0198206C088E003C080E101C0E6
:1018500088E1898314962C91149730E0898190E077
:1018600043E0959587954A95E1F72817390709F1DF
:101870001296ED91FC9113970D90BC91A02D808153
:1018800016966C9141E09E012F5F3F4F0E944007EA
:10189000882319F42FEF3FEF0EC0E0915A02F09128
:1018A0005B02898190E0A3E095958795AA95E1F781
:1018B000848320E030E0C9010F90CF91DF9108953B
:1018C0000F931F93DF93CF930F92CDB7DEB7A09105
:1018D0005A02B0915B0216968C911697882309F4F0
:1018E0001BC119821296ED91FC9113970D90BC913A
:1018F000A02D808151966C9141E08E010F5F1F4FAA
:1019000098010E944007882309F406C1E0915A0219
:10191000F0915B02A281B3810190F081E02D8C9166
:10192000658141E098010E944007882309F4F4C0D2
:10193000E0915A02F0915B02A281B3810190F081A3
:10194000E02D8C91648141E098010E94400788233A
:1019500009F4E2C0A0915A02B0915B025D968C91AD
:101960005D97882309F469C08CE089831296ED9114
:10197000FC9113970D90BC91A02D808114966C91D1
:1019800041E098010E944007882309F4C5C062E342
:1019900070E080E090E00E946B3380EC8983A0913E
:1019A0005A02B0915B0216968C91169780FF02C086
:1019B00080EE89831296ED91FC9113970D90BC9166
:1019C000A02D808114966C9141E09E012F5F3F4FC6
:1019D0000E944007882309F49FC0A0915A02B09149
:1019E0005B021C968C911C97882319F082E08983F6
:1019F00001C019821296ED91FC9113970D90BC9144
:101A0000A02D808151966C9141E08E010F5F1F4F98
:101A100098010E944007882309F47EC01982E09152
:101A20005A02F0915B02A281B3810190F081E02D16
:101A30008C91658141E098016BC084E089831296A6
:101A4000ED91FC9113970D90BC91A02D808114967F
:101A50006C9141E098010E944007882309F45CC022
:101A6000A0915A02B0915B021D968C911D9788231C
:101A700029F416968C91169780FD02C080E401C06F
:101A800080E689831296ED91FC9113970D90BC919D
:101A9000A02D808114966C9141E09E012F5F3F4FF5
:101AA0000E9440078823C1F162E370E080E090E08B
:101AB0000E946B33A0915A02B0915B021C968C91EC
:101AC0001C97882319F081E0898301C0198212963E
:101AD000ED91FC9113970D90BC91A02D80815196B2
:101AE0006C9141E09E012F5F3F4F0E944007882389
:101AF00099F0E0915A02F0915B02A281B3812081BA
:101B000031813B968C91D90115966C9141E09F01F2
:101B10000E944007882319F42FEF3FEF02C020E016
:101B200030E0C9010F90CF91DF911F910F9108957F
:101B30000F931F93CF93DF93982FE0915A02F09168
:101B40005B02858D882319F0C0E0D0E029C0868132
:101B5000882321F1192F1E7F038581238387811715
:101B600019F4C0E0D0E002C0CFEFDFEF112319F489
:101B70008785882331F081E00E94210A112381F0BA
:101B800004C080E00E94210A0BC00E94600C892BD7
:101B900039F0E0915A02F0915B020387CFEFDFEF5B
:101BA000CE01DF91CF911F910F9108951F93DF9385
:101BB000CF9300D0CDB7DEB7182F893208F058C0C8
:101BC0008823F9F480E00E94C80A198287E08A839A
:101BD000E0915A02F0915B02A281B3810190F08101
:101BE000E02D8C91658942E09E012F5F3F4F0E945E
:101BF00040078823E9F1E0915A02F0915B021786D1
:101C000046C081E00E94C80A80E28983113011F445
:101C10001A8204C0163028F481E08A8385E090E0BF
:101C20000BC0153128F482E08A838AE090E004C07A
:101C300083E08A8384E190E00E94540B8A8182953C
:101C4000880F880F807C87608A83E0915A02F09128
:101C50005B02A281B3810190F081E02D8C916589B6
:101C600042E09E012F5F3F4F0E944007882319F4F6
:101C70002FEF3FEF0EC0E0915A02F0915B0288E037
:101C80008683108681E0878780E00E94980D20E09F
:101C900030E0C9010F900F90CF91DF911F9108950F
:101CA0000F931F93DF93CF930F92CDB7DEB78C01C5
:101CB000E0915A02F0915B0286818823B9F1858D0B
:101CC0008823A1F58785882359F0C8010197889753
:101CD00020F4802F0E94D60D4DC080E00E94D60DCA
:101CE0000430110518F464E070E007C0B80183E027
:101CF000093E180710F068EE73E088EE93E00E944A
:101D0000B63C61506983E0915A02F0915B02A28176
:101D1000B3810190F081E02D8C91618141E09E01C1
:101D20002F5F3F4F0E944007882319F42FEF3FEFAA
:101D300023C0E0915A02F0915B02698170E06F5F0D
:101D40007F4F88EE93E00E94CA3C7287618781A131
:101D500092A18536910510F084E690E00E94100B68
:101D6000E0915A02F0915B02818592859695879564
:101D70000E94540B20E030E0C9010F90CF91DF9119
:101D80001F910F910895CF92DF92EF92FF920F93E0
:101D90001F93DF93CF9300D0CDB7DEB7182F092F55
:101DA0007B016A0141155105D1F1E0915A02F09190
:101DB0005B028681882399F1A281B3819B01210F67
:101DC000311D18968D919C9119978217930738F1C0
:101DD00009831A830190F081E02D8C91638D42E09C
:101DE0009E012F5F3F4F0E9440078823C1F0E09182
:101DF0005A02F0915B02A281B3810190F081E02D43
:101E000000910001109101018C91608D4E2D960181
:101E10000E949708882319F020E030E002C02FEFDD
:101E20003FEFC9010F900F90CF91DF911F910F915C
:101E3000FF90EF90DF90CF900895DF92EF92FF92A6
:101E40000F931F93DF93CF930F92CDB7DEB7D82EAA
:101E5000E0915A02F0915B0285858D1509F49EC0D0
:101E6000A281B3810190F081E02D009100011091D9
:101E700001017E010894E11CF11CDD2089F18C91A7
:101E8000648141E097010E949708882309F47EC08D
:101E900089818F7D8983E0915A02F0915B02A28152
:101EA000B3810190F081E02D8C91648141E0970134
:101EB0000E944007882309F469C063E070E080E075
:101EC00090E00E946B3382E08983A0915A02B09126
:101ED0005B025B968C915B978823F1F182E839C0B5
:101EE0008C91648141E097010E949708882309F44E
:101EF0004DC0A0915A02B0915B0216968C91169734
:101F0000998180FF02C0906201C09F7D99831296E3
:101F1000ED91FC9113970D90BC91A02D80811496AA
:101F20006C9141E09E012F5F3F4F0E944007882344
:101F300069F163E070E080E090E00E946B33A09173
:101F40005A02B0915B025B968C915B97882319F0E3
:101F500080E8898301C019825C968C915C97882304
:101F600019F08981806389831296ED91FC91139712
:101F70000D90BC91A02D808157966C9141E09E01FF
:101F80002F5F3F4F0E944007882319F42FEF3FEF48
:101F900007C0E0915A02F0915B02D58620E030E064
:101FA000C9010F90CF91DF911F910F91FF90EF909A
:101FB000DF900895DF93CF930F92CDB7DEB7982FC0
:101FC000E0915A02F0915B02858D891709F44AC0AD
:101FD000992369F1868D882319F42FEF3FEF44C0D0
:101FE00080E00E94210A80E00E941D0FE0915A02C9
:101FF000F0915B02878D90A10E94500E1982E091B2
:102000005A02F0915B020280F381E02D808163E24D
:1020100041E09E012F5F3F4F0E944007E0915A022E
:10202000F0915B0281E0858F0E94210A19C080E057
:102030000E94210AE0915A02F0915B028385898314
:102040000280F381E02D808163E241E09E012F5FF9
:102050003F4F0E944007E0915A02F0915B02158EBB
:102060000E94600C20E030E0C9010F90CF91DF9119
:1020700008956F927F928F929F92AF92BF92CF926C
:10208000DF92EF92FF920F931F93DF93CF9300D0D5
:10209000CDB7DEB76C013B014A01A0915A02B09165
:1020A0005B025D968C915D97882319F42FEF3FEFCB
:1020B0007CC016968C911697882319F42EEF3FEF6B
:1020C00074C01296ED91FC9113970D90BC91A02DC8
:1020D000009100011091010180811C966C9142E0F9
:1020E0005E010894A11CB11C95010E9497088823E9
:1020F00019F42DEF3FEF59C0998180E02A81E22E3B
:10210000FF24E82AF92AEC14FD0428F4F4011082D3
:1021100021E030E04AC0E0915A02F0915B02A281D6
:10212000B38111968D919C911297969587958E15F6
:102130009F05D0F40190F081E02D009100011091F5
:1021400001018C91638941E095010E9497088823E1
:1021500019F42BEF3FEF29C0898184FF05C00E944D
:10216000600C22E030E021C0E0915A02F0915B0265
:10217000A281B3810190F081E02D009100011091C6
:1021800001018C9165854C2D93010E94970888234D
:1021900019F429EF3FEF09C0C701B6010E94B63C10
:1021A0006150F401608320E030E0C9010F900F908E
:1021B000CF91DF911F910F91FF90EF90DF90CF9023
:1021C000BF90AF909F908F907F906F900895DF9217
:1021D000EF92FF920F931F93DF93CF9300D0CDB771
:1021E000DEB7D82EE82EFF24C70180779070892BA8
:1021F00011F081E005C0DD2011F0198202C080E4F9
:102200008983E0915A02F0915B02A281B38101902F
:10221000F081E02D8C91658941E09E012F5F3F4F59
:102220000E944007A0915A02B0915B02882319F4E2
:1022300016961C9230C089818F7B18968C931897C4
:102240001982E6FC02C084E08983E5FC03C0898131
:1022500082608983E4FC03C0898181608983E3FC17
:1022600003C08981886389831296ED91FC9113974D
:102270000D90BC91A02D808156966C9141E09E01FD
:102280002F5F3F4F0E944007882341F4E0915A029C
:10229000F0915B0216822FEF3FEF6CC0DD2031F032
:1022A00088E0D81619F080E00E94C80AE0915A022E
:1022B000F0915B02A281B3810190F081E02D009149
:1022C0000001109101018C91648141E09E012E5F1B
:1022D0003F4F0E9497088823F1F29A81E0FE04C0E4
:1022E00081E08983906202C019829F7D9A83A091C8
:1022F0005A02B0915B025D968C915D979A8188231A
:1023000011F0906801C09F779A831296ED91FC912D
:1023100013970D90BC91A02D808196966C9141E011
:102320009E012F5F3F4F0E944007882309F4B3CFDF
:10233000E0915A02F0915B02A281B3810190F08199
:10234000E02D8C91648141E09E012E5F3F4F0E9401
:102350004007882309F49FCFE0915A02F0915B0275
:10236000D682178662E370E080E090E00E946B33D3
:1023700020E030E0C9010F900F90CF91DF911F91C5
:102380000F91FF90EF90DF900895CF92DF92EF9240
:10239000FF920F931F93DF93CF93CDB7DEB72997AB
:1023A0000FB6F894DEBF0FBECDBF7C016B01A091CC
:1023B0005A02B0915B0216968C91169780FD03C06D
:1023C0002FEF3FEF96C01296ED91FC9113970D9071
:1023D000BC91A02D0091000110910101808198967F
:1023E0006C9148E09E012F5F3F4F0E949708882321
:1023F00019F42CEF3FEF7DC0898180FD03C021E0FF
:1024000030E077C0888587FD72C086FD70C03B8153
:1024100020E06A8170E0622B732BF7017183608387
:102420003D8120E04C8150E0242B352B33832283E7
:102430003F8120E04E8150E0242B352B35832483CF
:1024400000915A0210915B02882777FD8095982FA2
:10245000F80124A135A1442737FD4095542F0E944F
:102460008B3C672F782F892F992787FD9A95F70145
:102470007183608362817381882777FD8095982FAF
:10248000F80126A137A1442737FD4095542F0E941B
:102490008B3C672F782F892F992787FD9A95F70115
:1024A0007383628364817581882777FD8095982F77
:1024B000F80120A531A5442737FD4095542F0E94EF
:1024C0008B3C672F782F892F992787FD9A95F701E5
:1024D00075836483C114D10439F00E945D33F60121
:1024E000608371838283938320E030E002C02AEF0F
:1024F0003FEFC90129960FB6F894DEBF0FBECDBFDE
:10250000CF91DF911F910F91FF90EF90DF90CF90CF
:1025100008952F923F924F925F926F927F928F9287
:102520009F92AF92BF92CF92DF92EF92FF920F9362
:102530001F93DF93CF93CDB7DEB764970FB6F894B0
:10254000DEBF0FBECDBF3C014B014B8B5C8B190135
:10255000E0915A02F0915B02868D882319F02FEFEB
:102560003FEF75C06115710519F42EEF3FEF6FC095
:1025700080E190E00E949234B92EC82ED92EA82E68
:10258000EE24FF2463E0462E512C4C0E5D1E38C015
:1025900083010E191F090131110510F000E110E04F
:1025A00094012E0D3F1DD601A601400F511F05C0FD
:1025B000F90184918D932F5F3F4FA417B507C1F7A1
:1025C000C701B801A5010E94660A892B19F02DEFF9
:1025D0003FEF3DC0C701B801A2010E94C30E892B85
:1025E00019F02CEF3FEF33C0C501B201A8010E94E2
:1025F000C006009719F02BEF3FEF29C0E00EF11E47
:10260000E614F70428F2FC89F9838B898A83E09128
:102610005A02F0915B02A281B3810190F081E02D1A
:102620008C91658D42E09E012F5F3F4F0E944007D5
:10263000882319F42AEF3FEF0AC0E0915A02F09183
:102640005B0281E0868F30A2278E20E030E0C90156
:1026500064960FB6F894DEBF0FBECDBFCF91DF9169
:102660001F910F91FF90EF90DF90CF90BF90AF90B0
:102670009F908F907F906F905F904F903F902F90A2
:102680000895EF92FF920F931F93DF93CF93CDB7EF
:10269000DEB72B970FB6F894DEBF0FBECDBF80E834
:1026A0008D83E0915A02F0915B02A281B381019087
:1026B000F081E02D15E0E12EF12CEC0EFD1E8C9149
:1026C000658941E097010E944007882319F42FEFA4
:1026D0003FEF26C264E670E080E090E00E946B333A
:1026E0001D82E0915A02F0915B02A281B3810190B8
:1026F000F081E02D8C91658941E097010E944007AF
:10270000882319F42EEF3FEF0BC2E0915A02F091AB
:102710005B02A281B3810190F081E02D0091000164
:10272000109101018C91618D46E097010E949708FC
:10273000882319F42DEF3FEFF3C18A8590E0817073
:102740009070880F991F880F991F288530E021709D
:102750003070220F331F982F922B8E818170982B0F
:1027600091F0913031F4E0915A02F0915B0296873A
:1027700032C0923019F02CEF3FEFD2C1E0915A02F3
:10278000F0915B0227C0E0915A02F0915B02A281B6
:10279000B3810190F081E02D0091000110910101C1
:1027A0008C91638141E097010E949708882319F476
:1027B0002BEF3FEFB5C18D818F7019F42AEF3FEFFA
:1027C000AFC1E0915A02F0915B02843019F481E0CC
:1027D000868701C01686E0915A02F0915B028FEF66
:1027E00086838483858387832FEF3FEF328721871A
:1027F0008387858732A321A381E08087838F148E0E
:10280000108A178671968AE011928A95E9F7E0910D
:102810005A02F0915B02158E168E10A2178E80ED73
:1028200097E00E94FF0B892B19F026EF3FEF78C14C
:1028300082E00E94A60B892B19F025EF3FEF70C1B3
:102840008AE290E00E94540B892B19F024EF3FEFAD
:1028500067C182E390E00E94500E892B19F023EFAC
:102860003FEF5EC180E00E94980D892B19F022EFA6
:102870003FEF56C181E00E941D0F9CE07E0108944D
:10288000E11CF11C0091000110910101892F60E011
:1028900041E097019B870E9497089B85882399F0C8
:1028A0008981883481F4E0915A02F0915B0293A30C
:1028B000198283A16AE041E097010E9440078823C2
:1028C00009F420C104C09F5F9031E1F61BC161E0B3
:1028D00070E080E090E00E946B338FE08983E091AC
:1028E0005A02F0915B0283A16AE041E097010E94E5
:1028F0004007882309F406C161E070E080E090E0C1
:102900000E946B33E0915A02F0915B02009100014A
:102910001091010183A160E143E097010E949708B3
:10292000882309F4EFC0E0915A02F0915B0289819B
:1029300090E080589F4F95A384A38A8190E08058AF
:102940009F4F97A386A38B8190E080589F4F91A7BC
:1029500080A7198283A16AE041E097010E944007A5
:10296000882309F4CFC061E070E080E090E00E942D
:102970006B3380E00E941D0F80E48983E0915A024E
:10298000F0915B02A281B3810190F081E02D8C91E6
:10299000628D41E097010E944007882309F4B2C08C
:1029A000E0915A02F0915B0283A180688983A28141
:1029B000B3810190F081E02D8C91668D41E097010B
:1029C0000E944007882309F49DC082E08983E0913A
:1029D0005A02F0915B02A281B3810190F081E02D57
:1029E0008C91678D41E097010E944007882309F48C
:1029F00089C088E88983E0915A02F0915B02A28144
:102A0000B3810190F081E02D8C9160A141E09701AC
:102A10000E944007882309F475C0E0915A02F091A2
:102A20005B0283A18983A281B3810190F081E02DB3
:102A30008C9161A141E08E010F5F1F4F98010E94B0
:102A40004007882309F45EC08AE08983E0915A0236
:102A5000F0915B02A281B3810190F081E02D8C9115
:102A600062A141E098010E944007882309F44AC00E
:102A700081E88983E0915A02F0915B02A281B381DF
:102A80000190F081E02D8C9163A141E098010E94BA
:102A900040078823B9F181E08983E0915A02F091DF
:102AA0005B02A281B3810190F081E02D8C9166A13F
:102AB00041E098010E944007882321F183E0898347
:102AC000E0915A02F0915B02A281B3810190F08102
:102AD000E02D8C9167A141E098010E944007882376
:102AE00089F080E88983E0915A02F0915B02A2812B
:102AF000B3810190F081E02D8C9161A541E09801B6
:102B00000E9440078AE090E00E94100B892B19F088
:102B100021EF3FEF05C080E00E94E71020E030E0A9
:102B2000C9012B960FB6F894DEBF0FBECDBFCF9173
:102B3000DF911F910F91FF90EF9008959C018230DB
:102B4000910518F02FEF3FEF16C080937602909317
:102B500077028BE090E0AC01249FC001259F900D8F
:102B6000349F900D1124825A9D4F9093750280934B
:102B7000740220E030E0C9010895E0917402F09100
:102B800075021182108213821282158214821782BA
:102B9000168211861086128608952F923F924F92C8
:102BA0005F926F927F928F929F92AF92BF92CF92DD
:102BB000DF92EF92FF920F931F93DF93CF93CDB7E6
:102BC000DEB7AC970FB6F894DEBF0FBECDBF9EA3A5
:102BD0008DA378A76FA32A013AA729A71CA70BA743
:102BE000A701D8011D921C92E0917402F091750228
:102BF000828590E0BE016F5F7F4F0E9439109CA3D9
:102C00008BA3892B09F0B2C1E0917402F091750297
:102C1000FAA3E9A38681978184719070892B11F4BE
:102C200040E017C1A980BB24CC24DD24DA2CCC24BD
:102C3000BB24AA248A8190E0A0E0B0E0DC019927BF
:102C40008827A82AB92ACA2ADB2A8C8190E0A0E02A
:102C5000B0E0A82AB92ACA2ADB2A8B8190E0A0E03A
:102C6000B0E0BA2FA92F982F8827A82AB92ACA2AF4
:102C7000DB2AD201AD92BD92CD92DC9213972D81C9
:102C800030E040E050E0522F4427332722278E8146
:102C900090E0A0E0B0E0DC0199278827282B392BB1
:102CA0004A2B5B2B888590E0A0E0B0E0282B392BE5
:102CB0004A2B5B2B8F8190E0A0E0B0E0BA2FA92FC8
:102CC000982F8827282B392B4A2B5B2BF201248342
:102CD000358346835783298530E040E050E0522F0A
:102CE0004427332722278A8590E0A0E0B0E0DC016A
:102CF00099278827282B392B4A2B5B2B8C8590E032
:102D0000A0E0B0E0282B392B4A2B5B2B8B8590E081
:102D1000A0E0B0E0BA2FA92F982F8827282B392BB5
:102D20004A2B5B2BD20118962D933D934D935C93C8
:102D30001B972D8530E040E050E0522F4427332789
:102D400022278E8590E0A0E0B0E0DC01992788275B
:102D5000282B392B4A2B5B2B888990E0A0E0B0E030
:102D6000282B392B4A2B5B2B8F8590E0A0E0B0E01D
:102D7000BA2FA92F982F8827282B392B4A2B5B2B6A
:102D800024873587468757875601DD24B7FCD094C2
:102D9000CD2C64807580868097803401992477FCDF
:102DA0009094892C208431844284538412015524C8
:102DB00037FC5094452C9A01552737FD5095452FE7
:102DC000CA01B9010E948B3C7B018C01C601B5018F
:102DD000A60195010E948B3CE60EF71E081F191FE5
:102DE000C401B301A40193010E948B3CE60EF71EBF
:102DF000081F191FC201B101A20191010E948B3C61
:102E0000E60EF71E081F191F80E090E0A0E0B1EF6A
:102E1000E80EF91E0A1F1B1F91E0E91690E0F90663
:102E200090E0090792E0190758F00E94600CABA5EA
:102E3000BCA51D921C92E3E0F0E0FCA3EBA396C0BE
:102E4000ABA5BCA58D919C91119791608D939C939E
:102E500040E1E9A1FAA1868186FF39C0A42FB0E044
:102E6000FE01EA0FFB1F228130E0FE01EA0FFB1F8B
:102E7000918180E0282B392BEFA1F8A531832083A5
:102E8000FE01EA0FFB1F338120E0FE01EA0FFB1F6A
:102E9000848190E0282B392BEFA1F8A5338322837E
:102EA000FE01EA0FFB1F358120E0868190E0282B90
:102EB000392BAFA1B8A515963C932E9314974A5F72
:102EC000EBA5FCA580819181886091838083A9A175
:102ED000BAA116968D919C91179780789170892B45
:102EE000C1F1A42FB0E0FE01EA0FFB1F228130E008
:102EF000FE01EA0FFB1F918180E0282B392BEDA109
:102F0000FEA131832083FE01EA0FFB1F338120E005
:102F1000FE01EA0FFB1F848190E0282B392BEDA1E5
:102F2000FEA133832283FE01EA0FFB1F358120E0DF
:102F3000868190E0282B392BADA1BEA115963C933C
:102F40002E931497EBA5FCA58081918180679183D6
:102F5000808389A59AA5892B49F00E945D33A9A594
:102F6000BAA56D937D938D939C9313978BA19CA190
:102F7000AC960FB6F894DEBF0FBECDBFCF91DF91F8
:102F80001F910F91FF90EF90DF90CF90BF90AF9087
:102F90009F908F907F906F905F904F903F902F9079
:102FA0000895DF93CF93CDB7DEB729970FB6F89486
:102FB000DEBF0FBECDBF9E012F5F3F4F882349F07C
:102FC000D901E1E1F1E089E001900D928150E1F752
:102FD00008C0D901E8E0F1E089E001900D9281504C
:102FE000E1F788EB94E069E070E0AE014F5F5F4F7E
:102FF0000E94660A29960FB6F894DEBF0FBECDBFB9
:10300000CF91DF9108950F931F93DF93CF93CDB7A7
:10301000DEB728970FB6F894DEBF0FBECDBF8C0188
:10302000893C9105F0F488EC90E0B8010E94B63C30
:103030006150704079836A8386E192E062E070E0DB
:10304000AE014F5F5F4F0E94660A892B51F481ECFD
:103050009AE06CE070E04AE151E00E94660A892B38
:1030600019F02FEF3FEF08C0E0917402F091750264
:103070001187008720E030E0C90128960FB6F89448
:10308000DEBF0FBECDBFCF91DF911F910F9108958D
:10309000EF92FF920F931F93DF93CF9300D000D056
:1030A00000D0CDB7DEB78C01AC0143705070FA018F
:1030B000E15DFE4F80818983C801E3E096958795A5
:1030C000EA95E1F783709070FC01E15DFE4F20818D
:1030D0002A83D80176E0B695A7957A95E1F7A37093
:1030E000B070FD01E15DFE4F20812B83445D5E4F9A
:1030F000FA0120812C83845D9E4FFC0180818D83A9
:10310000A45DBE4F8C918E8386E294E063E070E014
:103110007E010894E11CF11CA7010E94660A892B1C
:1031200009F04BC08AE294E063E070E0AE014C5FCE
:103130005F4F0E94660A892B09F03FC0D701E9E280
:10314000F1E083E001900D928150E1F7DE011496E9
:10315000E6E2F1E083E001900D928150E1F702FF99
:1031600006C08981816089838C8181608C8305FFA1
:1031700006C08A8181608A838D8181608D8310FF82
:1031800006C08B8181608B838E8181608E8380E419
:1031900094E063E070E0AE014F5F5F4F0E94660A0B
:1031A000892B59F481E394E063E070E0AE014C5F59
:1031B0005F4F0E94660A892B19F02FEF3FEF08C07E
:1031C000E0917402F09175021583048320E030E0F1
:1031D000C90126960FB6F894DEBF0FBECDBFCF91C2
:1031E000DF911F910F91FF90EF900895DF93CF93A0
:1031F00000D000D0CDB7DEB7882349F080E28983C4
:1032000088E28A8380E38B8388E38C8308C083EA27
:1032100093EAA3EAB3EA89839A83AB83BC838EE9FA
:103220009AE064E070E0AE014F5F5F4F0E94660A73
:103230000E94600C0F900F900F900F90CF91DF9134
:103240000895DF93CF9300D000D0CDB7DEB78823A9
:1032500049F080EC898382EC8A8384EC8B8386EC52
:103260008C8308C08BE89BE8ABE8BBE889839A8332
:10327000AB83BC8388E99AE064E070E0AE014F5F05
:103280005F4F0E94660A0E94600C0F900F900F9093
:103290000F90CF91DF910895AF92BF92CF92DF92BE
:1032A000EF92FF920F931F93DF93CF93CDB7DEB7CB
:1032B0002A970FB6F894DEBF0FBECDBF8C0182E017
:1032C00089838AEC8A8383EE8B8389E08C8388E60A
:1032D00090E064E070E0AE014F5F5F4F0E94660ACD
:1032E00083EA8983B0E4AB2EB12CA022B12206FF81
:1032F00006C080EC8A8388EC8B8382EC02C08A83D0
:103300008B838C83A0E8EA2EA1E0FA2EE022F12242
:10331000E114F10431F084EC8D838CEC8E8386EC27
:1033200003C083EA8D838E838F8383EA88878987AE
:103330008A8787EA9AE06AE070E0AE014F5F5F4FEC
:103340000E94660AF3E0CF2ED12CC022D122C114F4
:10335000D10411F080E201C088ED898386EB9AE008
:1033600061E070E0AE014F5F5F4F0E94660A05FFAB
:1033700002C081E001C080E00E94D117E114F10495
:10338000D9F010FF08C082EB89838BE88A8386EB33
:103390008B838BE907C080EB898380E88A8384EB89
:1033A0008B8380E98C8382EA9AE064E070E0AE016E
:1033B0004F5F5F4F0E94660A02FF02C081E001C0BA
:1033C00080E00E94211904FF02C081E001C080E07A
:1033D0000E94F618E0917402F0917502C8018860AD
:1033E000978386830E94600CE0917402F0917502CD
:1033F0001286AB2811F086E08287EF2819F08285CB
:103400008A5F828704711070012B19F08285805FBA
:103410008287CD2819F082858C5F828780E090E0DA
:103420002A960FB6F894DEBF0FBECDBFCF91DF91C5
:103430001F910F91FF90EF90DF90CF90BF90AF90D2
:10344000089586EF9BE061ED70E040E054E028ECE9
:1034500030E00E94891208952F923F924F925F921E
:103460006F927F928F929F92AF92BF92CF92DF9294
:10347000EF92FF920F931F93DF93CF93CDB7DEB7F9
:10348000E4970FB6F894DEBF0FBECDBF1092BD0219
:103490001092BC028EEB92E064EC72E04CEA52E0D7
:1034A00020E030E00CEB12E0FAECEF2EF2E0FF2E21
:1034B0000E94CD159093CC028093CB02009709F027
:1034C00042C58091CA028230E8F08EEB92E064EC53
:1034D00072E04CEA52E020E030E00CEB12E0EAEC63
:1034E000EE2EE2E0FE2E0E94CD159C019093CC02C0
:1034F0008093CB028091CA02823008F423C5232B2B
:1035000021F320C56091AC027091AD028091AE02B2
:103510009091AF020E94B43A20E030E040E850E3DE
:103520000E94C03B1B012C016093AC027093AD0262
:103530008093AE029093AF026091B0027091B1029D
:103540008091B2029091B3020E94B43A20E030E040
:1035500040E850E30E94C03B698B7A8B8B8B9C8B3D
:103560006093B0027093B1028093B2029093B30261
:103570006091B4027091B5028091B6029091B70249
:103580000E94B43A20E030E040E850E30E94C03BA3
:103590005B016C016093B4027093B5028093B60234
:1035A0009093B7026091B8027091B9028091BA020B
:1035B0009091BB020E94B43A20E030E040E850E332
:1035C0000E94C03B6D8B7E8B8F8B988F6093B8026F
:1035D0007093B9028093BA029093BB02C601B50101
:1035E000A60195010E94C03B698F7A8F8B8F9C8FBB
:1035F0006093E7027093E8028093E9029093EA02F5
:103600006D897E898F89988D9B01AC010E94C03B9A
:103610006D8F7E8F8F8F98A36093EB027093EC0277
:103620008093ED029093EE02C201B101A2019101DB
:103630000E94C03B69A37AA38BA39CA36093EF0273
:103640007093F0028093F1029093F20269897A8973
:103650008B899C892D893E894F89588D0E94C03B5A
:103660007B018C01C201B101A60195010E94C03B02
:103670009B01AC01C801B7010E9437393B014C01E5
:103680006093F3027093F4028093F5029093F60234
:1036900025EE32EF4FEF5EE30E94B53B1816BCF407
:1036A000C601B501A20191010E94C2399B01AC0182
:1036B0000E94383960938002709381028093820265
:1036C000909383028BED9FE0A9ECBFE322C0C4017D
:1036D000B30125EE32EF4FEF5EEB0E94153A8823DF
:1036E0006CF5C601B501A20191010E94C23920E02A
:1036F00030E040E050EC0E94C03B60938002709349
:10370000810280938202909383028BED9FE0A9EC6B
:10371000BFEB80937C0290937D02A0937E02B093D6
:103720007F0280E090E0A0E0B0E080937802909388
:103730007902A0937A02B0937B0294C069897A8956
:103740008B899C89A20191010E94C03B7B018C0165
:10375000C601B5012D893E894F89588D0E94C03B15
:103760009B01AC01C801B7010E9438399B01AC0133
:103770000E9438397B018C016D8D7E8D8F8D98A1D3
:1037800029A13AA14BA15CA10E94383920E030E088
:1037900040E050EC0E94C03B20E030E040E85FE3B6
:1037A0000E9438399B01AC01C801B7010E94C2399F
:1037B00060938002709381028093820290938302CF
:1037C000C401B301A40193010E9438390E949C39BD
:1037D00060937C0270937D0280937E0290937F02BF
:1037E00069897A898B899C89A60195010E94C03BD1
:1037F0007B018C016D897E898F89988DA201910151
:103800000E94C03B9B01AC01C801B7010E9437393F
:103810009B01AC010E9438397B018C01698D7A8D46
:103820008B8D9C8D2D8D3E8D4F8D58A10E943839EA
:1038300020E030E040E050EC0E94C03B20E030E06F
:1038400040E85FE30E9438399B01AC01C801B70131
:103850000E94C239609378027093790280937A0251
:1038600090937B02609178027091790280917A0244
:1038700090917B0221EE3EE245E652E40E94C03B7D
:103880009058609378027093790280937A029093B3
:103890007B0260917C0270917D0280917E0290910A
:1038A0007F0221EE3EE245E652E40E94C03B905882
:1038B00060937C0270937D0280937E0290937F02DE
:1038C00060918002709181028091820290918302C6
:1038D00021EE3EE245E652E40E94C03B5B016C01F2
:1038E00020E030E044E353E40E9438397B018C014E
:1038F00020E030E044E353E40E94B53B181654F452
:10390000C601B50120E030E044E353E40E943739BA
:103910007B018C01D801C701B0588093800290933D
:103920008102A0938202B09383028091CD0288230A
:1039300091F58DEC92E00E946037892B61F180E077
:1039400090E0A0E8BFE38093D7029093D802A093C1
:10395000D902B093DA0280E090E0A0E0B0E080937A
:10396000DB029093DC02A093DD02B093DE02809331
:10397000DF029093E002A093E102B093E202809311
:10398000E3029093E402A093E502B093E6028DEC8B
:1039900092E00E946A378091AC029091AD02A091B2
:1039A000AE02B091AF028D879E87AF87B88B8093B0
:1039B000D7029093D802A093D902B093DA02209054
:1039C000B0023090B1024090B2025090B302209207
:1039D000DB023092DC024092DD025092DE02609007
:1039E000B4027090B5028090B6029090B7026092D7
:1039F000DF027092E0028092E1029092E202A090D7
:103A0000B802B090B902C090BA02D090BB02A092A6
:103A1000E302B092E402C092E502D092E602609125
:103A2000C4027091C502882777FD8095982F0E9467
:103A3000B43A0E94813A882777FD8095982F0E949A
:103A4000B43A69837A838B839C836091C6027091B8
:103A5000C702882777FD8095982F0E94B43A0E946C
:103A6000813A882777FD8095982F0E94B43A6D831C
:103A70007E838F8398876091C8027091C9028827DE
:103A800077FD8095982F0E94B43A0E94813A88274A
:103A900077FD8095982F0E94B43A69877A878B8743
:103AA0009C876D857E858F85988920E030E040E099
:103AB00050E00E94C03B7B018C01C201B101298111
:103AC0003A814B815C810E94C03B9B01AC01C801E3
:103AD000B7010E9437397B018C01C401B3012D81EC
:103AE0003E814F8158850E94C03B9B01AC01C801BB
:103AF000B7010E9437397B018C01C601B5012985C8
:103B00003A854B855C850E94C03B9B01AC01C80196
:103B1000B7010E9437396DA37EA38FA398A76D8547
:103B20007E858F85988929813A814B815C810E94AD
:103B3000C03B7B018C01C201B10120E030E040E0DC
:103B400050E00E94C03B9B01AC01C801B7010E943C
:103B500038397B018C01C401B30129853A854B8535
:103B60005C850E94C03B9B01AC01C801B7010E946B
:103B700038397B018C01C601B5012D813E814F8111
:103B800058850E94C03B9B01AC01C801B7010E944F
:103B9000373969A77AA78BA79CA76D857E858F8506
:103BA00098892D813E814F8158850E94C03B7B01C1
:103BB0008C01C201B10129853A854B855C850E9443
:103BC000C03B9B01AC01C801B7010E9437397B01A2
:103BD0008C01C401B30120E030E040E050E00E94DD
:103BE000C03B9B01AC01C801B7010E9438397B0181
:103BF0008C01C601B50129813A814B815C810E940B
:103C0000C03B9B01AC01C801B7010E9438396DA7C8
:103C10007EA78FA798AB6D857E858F85988929852E
:103C20003A854B855C850E94C03B7B018C01C201BB
:103C3000B1012D813E814F8158850E94C03B9B017F
:103C4000AC01C801B7010E9438397B018C01C40165
:103C5000B30129813A814B815C810E94C03B9B0169
:103C6000AC01C801B7010E9437397B018C01C60144
:103C7000B50120E030E040E050E00E94C03B9B01F5
:103C8000AC01C801B7010E94383969AB7AAB8BAB84
:103C90009CAB57FA509457F8509497FA909497F831
:103CA0009094D7FAD094D7F8D0946DA17EA18FA12B
:103CB00098A5A20191010E94C03B7B018C0169A5DE
:103CC0007AA58BA59CA52D853E854F8558890E9498
:103CD000C03B9B01AC01C801B7010E9438397B0190
:103CE0008C016DA57EA58FA598A9A60195010E94BE
:103CF000C03B9B01AC01C801B7010E9438397B0170
:103D00008C0169A97AA98BA99CA9A40193010E949D
:103D1000C03B9B01AC01C801B7010E9437390E942A
:103D2000813A882777FD8095982F0E94B43A20E049
:103D300030E040E858E30E94C03B609390027093EB
:103D4000910280939202909393026DA17EA18FA124
:103D500098A5A40193010E94C03B7B018C0169A539
:103D60007AA58BA59CA5A60195010E94C03B9B014D
:103D7000AC01C801B7010E9437397B018C016DA5E8
:103D80007EA58FA598A92D853E854F8558890E94CF
:103D9000C03B9B01AC01C801B7010E9438397B01CF
:103DA0008C0169A97AA98BA99CA9A20191010E9401
:103DB000C03B9B01AC01C801B7010E9438390E9489
:103DC000813A882777FD8095982F0E94B43A20E0A9
:103DD00030E040E858E30E94C03B60939402709347
:103DE000950280939602909397026DA17EA18FA178
:103DF00098A5A60195010E94C03B7B018C0169A595
:103E00007AA58BA59CA5A40193010E94C03B9B01B0
:103E1000AC01C801B7010E9438397B018C016DA546
:103E20007EA58FA598A9A20191010E94C03B9B018C
:103E3000AC01C801B7010E9437397B018C0169A927
:103E40007AA98BA99CA92D853E854F8558890E940A
:103E5000C03B9B01AC01C801B7010E9438390E94E8
:103E6000813A882777FD8095982F0E94B43A20E008
:103E700030E040E858E30E94C03B2091A802309116
:103E8000A9024091AA025091AB020E943739609377
:103E900098027093990280939A0290939B0260918A
:103EA000C2027091C302882777FD8095982F0E94E7
:103EB000B43A20E030E043E851E40E94193A6093BC
:103EC00084027093850280938602909387026091AA
:103ED000C0027091C102882777FD8095982F0E94BB
:103EE000B43A20E030E043E851E40E94193A60938C
:103EF00088027093890280938A0290938B0260916A
:103F0000BE027091BF02882777FD8095982F0E948E
:103F1000B43A20E030E043E851E40E94193A60935B
:103F20008C0270938D0280938E0290938F02809109
:103F3000D5029091D60201969093D6028093D50235
:103F400080E001C080E8E4960FB6F894DEBF0FBEB3
:103F5000CDBFCF91DF911F910F91FF90EF90DF9038
:103F6000CF90BF90AF909F908F907F906F905F9019
:103F70004F903F902F9008958091F7029091F80212
:103F800062E370E00E94B63C8091D5029091D60227
:103F90008617970710F481E0089589EF92E060E0BA
:103FA00070E00E94C5119093CC028093CB020097E1
:103FB000D9F56091F9027091FA02882777FD809512
:103FC000982F0E94B43A60939C0270939D02809354
:103FD0009E0290939F026091FB027091FC028827E1
:103FE00077FD8095982F0E94B43A6093A002709359
:103FF000A1028093A2029093A3026091FD027091AE
:10400000FE02882777FD8095982F0E94B43A60932E
:10401000A4027093A5028093A6029093A702109227
:10402000D6021092D50280E00895EF92FF920F938E
:104030001F938B017A017093F8026093F70210923C
:10404000D6021092D5020E94E2080E94300980E058
:1040500090E0A0E0B0E08093A8029093A902A09322
:10406000AA02B093AB0280E090E00E9441139093CB
:10407000CC028093CB0289E70E94E7109093CC0298
:104080008093CB0280ED97E00E94FF0B9093CC02CF
:104090008093CB0282E00E94A60B9093CC02809387
:1040A000CB0282E390E00E94100B9093CC028093AD
:1040B000CB028BEC92E00E94120A88E70E94980DD6
:1040C0009093CC028093CB0280E090E00E949E15FA
:1040D0000E94BD150E94211A9093CC028093CB02BE
:1040E000C7010E9448189093CC028093CB02C8016C
:1040F0000E9403189093CC028093CB0281E00E942F
:10410000DA0F9093CC028093CB0280E791E00E947B
:104110004C199093CC028093CB0280E01F910F91B9
:10412000FF90EF900895FC0180E090E0A0E0B0E007
:1041300080879187A287B38784839583A683B7837B
:1041400080839183A283B383808F918FA28FB38F5B
:10415000848B958BA68BB78B848F958FA68FB78F0B
:1041600084A395A3A6A3B7A380A391A3A2A3B3A35B
:1041700084879587A687B787808B918BA28BB38B1B
:1041800080E090E0089520E030E040E050E0FC0165
:10419000248735874687578708952F923F924F92FD
:1041A0005F926F927F928F929F92AF92BF92CF92C7
:1041B000DF92EF92FF920F931F93CF93DF93EC0167
:1041C0003A014B0118012901CB01BA012C813D8133
:1041D0004E815F810E94C03BA20191010E94C03BC1
:1041E0002C853D854E855F850E9438395B016C01C9
:1041F0006C877D878E879F87E88CF98C0A8D1B8D55
:10420000A80197010E94B53B181664F017FB1095A2
:1042100017F91095C601B501A80197010E94153A3A
:10422000882324F4EC86FD860E871F8768A179A178
:104230008AA19BA1A20191010E94193A9B01AC01A4
:10424000C401B3010E943739688B798B8A8B9B8BB1
:10425000ECA0FDA00EA11FA1A80197010E94373973
:104260002EEB39ED4CE55FE30E94C03B9B01AC01B6
:10427000C801B7010E9438395B016C01688B798BEA
:104280008A8B9B8BC401B301288139814A815B8170
:104290000E94C03B2C853D854E855F850E94383944
:1042A0007B018C01C601B501288539854A855B856E
:1042B0000E94C03B9B01AC01C801B7010E94373985
:1042C0006C8F7D8F8E8F9F8FEC88FD880E891F8964
:1042D000A80197010E94B53B181624F4EC8EFD8EC0
:1042E0000E8F1F8F8C899D89AE89BF897C018D01BE
:1042F00017FB109517F910956C8D7D8D8E8D9F8D08
:10430000A80197010E94153A882324F4EC8EFD8EB3
:104310000E8F1F8F68A279A28AA29BA28889998991
:10432000AA89BB898CA39DA3AEA3BFA3DF91CF9124
:104330001F910F91FF90EF90DF90CF90BF90AF90C3
:104340009F908F907F906F905F904F903F902F90B5
:104350000895CF93DF93EC018091430390E0860FA3
:10436000911D803491050CF042C0FE01462F30E0D3
:104370005CE80DC0208198E0822F8327369580FD70
:104380003527915011F02695F7CF319641504423AF
:1043900089F7FE01E60FF11D30836F5F20E030E00A
:1043A00070E040E421C080914203803410F010920C
:1043B000420390914203E92FF0E0EC5BFC4FDE01F9
:1043C000A20FB31F8C9180839F5F909342038091D3
:1043D00043038F5F8093430380914303813410F044
:1043E000409343032F5F3F4F26173707E4F2DF91D7
:1043F000CF910895CF93DF93EC018091010390E07A
:1044000004970CF44DC0DE0120E030E08091010300
:104410008823F1F09091000380910103981740F4F4
:1044200080910103E0910003F0E0E05CFF4F05C0E4
:10443000E091000380910103F0E0E81BF109EE5FD9
:10444000FC4F80818C938091010381508093010304
:104450002F5F3F4F119624303105C1F6FE0130E049
:1044600043E05CE80CC0208198E0822F83273695DA
:1044700080FD3527915011F02695F7CF31964150A8
:1044800090F78B81381719F420E030E00BC0809151
:10449000FF028F5F8093FF021092000310920103CE
:1044A0002FEF3FEFC901DF91CF9108951F920F9237
:1044B0000FB60F9211242F938F939F93EF93FF9337
:1044C0002EB5809143038823F9F0909142038091A7
:1044D0004303981740F480914303E0914203F0E0D6
:1044E000E05CFF4F05C0E091420380914303F0E0A0
:1044F000E81BF109EC5BFC4F80818EBD809143038A
:1045000081508093430301C01EBC8091000380341E
:1045100010F01092000380910003E82FF0E0EE5FAE
:10452000FC4F20838F5F80930003809101038F5F96
:104530008093010380910103813418F080E480931B
:104540000103FF91EF919F918F912F910F900FBEDB
:104550000F901F9018958093650560936605709382
:10456000670585E695E063E00E94A92108956091C2
:1045700056057091570580915805909159050E94F4
:10458000813A9B01AC018EE1B9010E94AB2260919E
:1045900034057091350580913605909137050E945C
:1045A000813A9B01AC018FE1B9010E94AB2260917D
:1045B00038057091390580913A0590913B050E942C
:1045C000813A9B01AC0180E2B9010E94AB220895BF
:1045D0006F927F928F929F92AF92BF92CF92DF9213
:1045E000EF92FF920F931F93CF93DF9320E9A22EB8
:1045F00022E0B22E94E8692E95E0792E80E9882E8B
:1046000085E0982E6301E401F501E080F1800281EC
:104610001381C801B701F6012081318142815381A4
:104620000E94153A88232CF4F601E082F18202837D
:104630001383C801B701288139814A815B810E94B7
:10464000B53B181624F4E882F9820A831B8384E0C0
:1046500090E0A80EB91EC80ED91E24969CE9A91692
:1046600092E0B90689F680915C0564E10E94AA3C5B
:10467000992341F514E10F2EF0E0CF2EF0E0DF2E6C
:10468000F0E0EF2EF0E0FF2EF02DF401608171815B
:104690008281938120E030E04AE754E40E94C03BED
:1046A0000E94813A9B01AC01812FB9010E94AB228B
:1046B000F401C192D192E192F1924F011F5F173143
:1046C00021F729C09A3039F519E10F2EF0E0CF2EED
:1046D000F0E0DF2EF0E0EF2EF0E0FF2EF02DF30102
:1046E000608171818281938120E030E04AE754E467
:1046F0000E94C03B0E94813A9B01AC01812FB9010D
:104700000E94AB22F301C192D192E192F1923F015A
:104710001F5F1C3121F7DF91CF911F910F91FF9007
:10472000EF90DF90CF90BF90AF909F908F907F9051
:104730006F9008951F93CF93DF93C4E8D2E011E008
:10474000699179918991999120E030E048EC52E4A7
:104750000E94C03B0E94813A9B01AC01812FB901AC
:104760000E94AB221F5F143059F7DF91CF911F9148
:1047700008951F93CF93DF93C8E7D2E015E06991C6
:1047800079918991999120E030E048EC52E40E94BF
:10479000C03B0E94813A9B01AC01812FB9010E946C
:1047A000AB221F5F183059F7609161057091620567
:1047B000809163059091640520E030E048EC52E47C
:1047C0000E94C03B0E94813A9B01AC0188E0B90184
:1047D0000E94AB22DF91CF911F9108951F93CF9339
:1047E000DF93C2E9D3E01AE069917991812F0E94A9
:1047F000AB221F5F1E30C1F7DF91CF911F9108954B
:1048000080915F058330C9F0843028F4813041F015
:10481000823099F508C08430C1F0853071F524C02C
:104820000E94E822089580915C0564E10E94AA3C00
:104830009923A9F40E949A23089580915C056AE067
:104840000E94AA3C9923C9F407C080915C0564E1E9
:104850000E94AA3C992319F40E94EE2308959A30ED
:1048600061F40E94B923089580915C0564E10E947F
:10487000AA3C992311F40E94B7220895FC0181817A
:10488000882321F470E060E090E032C09081818163
:10489000A381B481981748F431812081828190E00E
:1048A000820F911D831B910905C08081218190E0B9
:1048B000821B9109880F991F880F991FA80FB91F94
:1048C0008D919D910D90BC91A02D80938506909324
:1048D0008606A0938706B0938806818181508183E4
:1048E0007091850660918606909187068091880672
:1048F000272F362F492F582FB901CA0108950F933A
:104900001F9306E813E0C8010E949D37C801039673
:104910000E949D37C80106960E949D37C8010996DE
:104920000E949D371F910F9108956F927F928F92F1
:104930009F92AF92BF92CF92DF92EF92FF920F932E
:104940001F9380917D0590917E05019690937E0541
:1049500080937D058155934C18F08FEF80935D0512
:104960000E942C1A992787FD909590938503809338
:104970008403892B09F09CC010917F05183CF8F442
:104980001431D0F06091800570918105809182058D
:1049900090918305209198023091990240919A025A
:1049A00050919B020E943839609380057093810575
:1049B00080938205909383051F5F10937F0560901D
:1049C0008402709085028090860290908702C401D4
:1049D000B30120E030E040E85FEB0E94B53B1816E1
:1049E0000CF066C0A0908802B0908902C0908A0244
:1049F000D0908B02C601B50120E030E040E85FEBCB
:104A00000E94B53B18160CF053C0E0908C02F09059
:104A10008D0200918E0210918F02C801B70120E033
:104A200030E040E85FEB0E94B53B18160CF040C048
:104A3000C401B30120E030E040E85FE30E94153A92
:104A40008823B4F5C601B50120E030E040E85FE31B
:104A50000E94153A882364F5C801B70120E030E0D0
:104A600040E85FE30E94153A882314F560917F05C2
:104A700070E064517040882777FD8095982F0E94E0
:104A8000B43A9B01AC0160918005709181058091E1
:104A90008205909183050E94193A6093A802709351
:104AA000A9028093AA029093AB0220E030E002C0FA
:104AB0002FEF3FEFC9011F910F91FF90EF90DF9013
:104AC000CF90BF90AF909F908F907F906F90089500
:104AD0000F931F9306E813E060919F037091A0036A
:104AE000C8010E94B73760919F037091A003C8016D
:104AF00003960E94B73760919F037091A003C8018D
:104B000006960E94B73760919F037091A003C80179
:104B100009960E94B7371F910F9108952F923F92E7
:104B20004F925F926F927F928F929F92AF92BF92BD
:104B3000CF92DF92EF92FF920F931F93DF93CF9369
:104B4000CDB7DEB72C970FB6F894DEBF0FBECDBF42
:104B500080917C05882309F067C00E94BC1F9927BB
:104B600087FD909590938503809384030E942C1A6F
:104B7000992787FD9095909385038093840397FFF1
:104B800009C00E9468258DEF80935D0581E08093C8
:104B90007C0556C580915C058F5F80935C05883CE1
:104BA00011F410925C050E945D33209178053091DC
:104BB000790540917A0550917B05621B730B840B3C
:104BC000950B0E94B23A20E030E04AE754E40E949C
:104BD000193A6093740570937505809376059093E8
:104BE00077050E945D336093780570937905809313
:104BF0007A0590937B058091740590917505A0913D
:104C00007605B09177058D839E83AF83B887BC010D
:104C1000CD012AE037ED43E25CE30E94B53B181674
:104C200034F48EEF80935D050E94682509C580915C
:104C3000540518160CF04FC28150809354056091B2
:104C400098027091990280919A0290919B0220E0C3
:104C500030E845E754E40E94C03B1B012C016093FF
:104C600018057093190580931A0590931B056091A0
:104C70002C0570912D0580912E0590912F05209186
:104C800050053091510540915205509153050E94B5
:104C9000C03B2D813E814F8158850E94C03B9B01C6
:104CA000AC016091200570912105809122059091C1
:104CB00023050E9438395B016C01609320057093D5
:104CC00021058093220590932305E0902C05F09018
:104CD0002D0500912E0510912F05C801B7012091D7
:104CE0004C0530914D0540914E0550914F050E9465
:104CF000C03B2D813E814F8158850E94C03B209151
:104D000038053091390540913A0550913B050E9494
:104D1000383969877A878B879C87C801B7012091CA
:104D200048053091490540914A0550914B050E9434
:104D3000C03B2D813E814F8158850E94C03B9B0125
:104D4000AC01609124057091250580912605909114
:104D500027050E9438393B014C016093240570936C
:104D600025058093260590932705C201B101A60170
:104D700095010E9438392D813E814F8158850E94CE
:104D8000C03B7B018C0160932805709329058093BB
:104D90002A0590932B0520E030E040E05FE30E947D
:104DA000C03B9B01AC0169857A858B859C850E94FF
:104DB00038392D813E814F8158850E94C03B20911A
:104DC00030053091310540913205509133050E94F4
:104DD00038395B016C016093300570933105809325
:104DE000320590933305A40193010E9438396093F2
:104DF00034057093350580933605909337056985A2
:104E00007A858B859C85A80197010E94383960932B
:104E100038057093390580933A0590933B0590913E
:104E20000F0580911105981711F410920F0520912C
:104E30000F05822F90E0880F991F880F991FE0912E
:104E40001205F0911305E80FF91FA082B182C2820A
:104E5000D3822F5F20930F0590911005809111054B
:104E6000981728F4809110058F5F8093100560914A
:104E700056057091570580915805909159052091DC
:104E800034053091350540913605509137050E9423
:104E900037395B016C0160933C0570933D0580934D
:104EA0003E0590933F05E090BF04F090C004009150
:104EB000C1041091C204C801B701A80197010E9462
:104EC0003839A80197010E94C03B9B01AC0160E00A
:104ED00070E08AE793E40E94193A7B018C016093A9
:104EE0001405709315058093160590931705A80176
:104EF00097010E9438399B01AC01C601B5010E949F
:104F0000B53B18167CF4C601B501A80197010E94B3
:104F1000373920E030E04AEF53E40E94C03B0E9462
:104F2000273C20C0C801B70120E030E040E050EC51
:104F30000E94C03B9B01AC01C601B5010E94153A1D
:104F40008823CCF4C601B5019058A80197010E94AE
:104F5000373920E030E04AEF53E40E94C03B0E9422
:104F6000273C90586093400570934105809342051B
:104F7000909343051EC00091740510917505209112
:104F80007605309177058FEB94E0B601A5010E947C
:104F9000CD208091DB049091DC04A091DD04B091E0
:104FA000DE048093400590934105A0934205B093A1
:104FB00043056091400570914105809142059091B3
:104FC0004305209138053091390540913A055091BB
:104FD0003B050E943739AB01BC010091740510916B
:104FE0007505209176053091770587EE94E00E9453
:104FF000CD20E0901C05F0901D0500911E0510913C
:105000001F0560910305709104058091050590913D
:105010000605209118053091190540911A05509107
:105020001B050E943739A80197010E94373923E8F0
:1050300033EA44EE5DE30E94C03B9B01AC01C80132
:10504000B7010E943839AB01BC01CA01DB01809372
:105050001C0590931D05A0931E05B0931F0500919C
:10506000740510917505209176053091770587E9D3
:1050700094E00E94CD20809155058823D9F060915D
:105080005A0570915B05882777FD8095982F0E94BF
:10509000B43A2091B3043091B4044091B5045091D6
:1050A000B6040E9438390E94813A7093700560936B
:1050B0006F0513C08091340590913505A091360598
:1050C000B09137058093560590935705A0935805E6
:1050D000B093590502C010925505E0906105F0901B
:1050E00062050091630510916405A0907802B0906C
:1050F0007902C0907A02D0907B02C801B701A60164
:1051000095010E94373920E030E044E353EC0E94DF
:10511000153A88235CF4D801C701B0588093610523
:1051200090936205A0936305B0936405E0906105D8
:10513000F09062050091630510916405C801B70104
:10514000A60195010E94373920E030E044E353E4A2
:105150000E94B53B18165CF4D801C701B058809383
:10516000610590936205A0936305B0936405E09098
:105170008002F09081020091820210918302C801A6
:10518000B70120E030E040E050E00E94B53B181647
:105190005CF4C801B70120E030E048E452E40E942A
:1051A000B53B18165CF012C0C801B70120E030E032
:1051B00048E452EC0E94153A882344F4A092610519
:1051C000B0926205C0926305D0926405E0907C02C3
:1051D000F0907D0200917E0210917F02C801B7011C
:1051E00020E030E040E050E00E94B53B18165CF44F
:1051F000C801B70120E030E048E452E40E94B53B2A
:1052000018165CF012C0C801B70120E030E048E495
:1052100052EC0E94153A882344F4A0926105B092A2
:105220006205C0926305D092640580915E05882373
:1052300009F093C04091690550916A05CA019C012B
:1052400097FF03C0309521953F4FE0907405F09093
:10525000750500917605109177052830310524F108
:10526000CA016AE070E00E94CA3C882777FD8095F9
:10527000982F0E94B43AAB01BC018BE194E09801F5
:1052800087010E94CD208091780290917902A091AF
:105290007A02B0917B028093610590936205A0939E
:1052A0006305B093640514C0609161057091620557
:1052B0008091630590916405A60195010E9437399C
:1052C000AB01BC018BE194E0980187010E94CD20E5
:1052D00060917205772767FD709520916B0530917D
:1052E0006C05620F731F882777FD8095982F0E94A9
:1052F000B43A20917C0230917D0240917E0250911F
:105300007F020E943739AB01BC01009174051091F6
:105310007505209176053091770583E494E00E942D
:10532000CD2060917305772767FD709520916D05FD
:1053300030916E05620F731F882777FD8095982F37
:105340000E94B43A20918002309181024091820201
:10535000509183020E94373955C0813009F060C0F6
:105360008091690590916A056AE070E00E94CA3CEC
:10537000882777FD8095982F0E94B43AAB01BC0135
:10538000009174051091750520917605309177058F
:105390008BE194E00E94CD2060916B0570916C05CB
:1053A000882777FD8095982F0E94B43A2091930426
:1053B0003091940440919504509196040E94C03B12
:1053C000AB01BC0100917405109175052091760523
:1053D0003091770583E494E00E94CD2060916D05C3
:1053E00070916E05882777FD8095982F0E94B43ABA
:1053F0002091930430919404409195045091960427
:105400000E94C03BAB01BC01009174051091750571
:1054100020917605309177058BE694E00E94CD20AF
:10542000F7E3CF2EF4E0DF2EE4E8AE2EE2E0BE2E6E
:105430006624772478E2872E912C689C7001699C01
:10544000F00C789CF00C1124A3EAB3E0EA0EFB1EEA
:10545000F6016081718182819381D5012D913D9109
:105460004D915D915D010E943739AB01BC01009106
:105470007405109175052091760530917705C70167
:105480000E94CD200894611C711CE8E2F0E0CE0E71
:10549000DF1EF3E06F16710481F660916F05709165
:1054A0007005882777FD8095982F0E94B43A1B01DC
:1054B0002C0180910F0490911004A0911104B091DF
:1054C000120489839A83AB83BC83C201B101298111
:1054D0003A814B815C810E9438395B016C01E0901C
:1054E000E703F090E8030091E9031091EA0360906C
:1054F000BF037090C0038090C1039090C203A801C5
:1055000097010E943739A40193010E9438390E9403
:10551000813A7093930360939203C601B501A80189
:1055200097010E943839A40193010E9437390E94E3
:10553000813A7093950360939403C201B10129816C
:105540003A814B815C810E9437395B016C01A80173
:1055500097010E943739A40193010E9437390E94B4
:10556000813A7093970360939603C601B501A80131
:1055700097010E943839A40193010E9438390E9492
:10558000813A70939903609398030E9400242091BC
:105590006F05309170058091A1039091A2032817A7
:1055A00039075CF50E946825809178029091790214
:1055B000A0917A02B0917B0280936105909362057D
:1055C000A0936305B093640583EA93E00E94C3202F
:1055D0008BE194E00E94C3208BEC93E00E94C320F7
:1055E00083E494E00E94C32083EF93E00E94C320F1
:1055F0008BE694E00E94C32023C062E9E62E63E0BC
:10560000F62E00E010E0D7018D919C916091A103EE
:105610007091A203681779070CF4BC01F70161933C
:1056200071937F01C801880F991F800F911F8A57BE
:105630009C4F0E94B7370F5F1F4F0430110519F7B9
:105640002C960FB6F894DEBF0FBECDBFCF91DF9181
:105650001F910F91FF90EF90DF90CF90BF90AF9090
:105660009F908F907F906F905F904F903F902F9082
:10567000089580E991E060E00E94CD0680E00E94FC
:1056800098378CE061E00E94FF338CB580648CBD5C
:105690008CB580688CBD0895EF92FF920F931F9395
:1056A000B3EAEB2EB3E0FB2EC7010E9493200BE17F
:1056B00014E0C8010E949320C70188960E9493209D
:1056C000C80188960E94932083EF93E00E94932064
:1056D0008BE694E00E94932087E994E00E94932057
:1056E00087EE94E00E9493208FEB94E00E94932039
:1056F00010921005809110050FE015E0F8018193DC
:105700008F018FE0809311058CE390E00E9492342A
:1057100080931205F801938380E090E0A0E0BFE35E
:105720008093440590934505A0934605B0934705A3
:105730008AE999E9A9E1BFE3809348059093490577
:10574000A0934A05B0934B058FE892ECA5EFBDE31B
:1057500080934C0590934D05A0934E05B0934F0553
:105760008DEC9CECACECBDE380935005909351051F
:10577000A0935205B093530580E090E0A0E0B0E024
:105780008093610590936205A0936305B0936405CF
:1057900010925C0510925D0510925E0510925F05F7
:1057A00028E8209360051092FF021092550580931F
:1057B000560590935705A0935805B093590510923C
:1057C0005B0510925A058093180590931905A093D4
:1057D0001A05B0931B0580931C0590931D05A0939B
:1057E0001E05B0931F058093200590932105A0937B
:1057F0002205B09323058093240590932505A0935B
:105800002605B09327058093280590932905A0933A
:105810002A05B0932B0580932C0590932D05A0931A
:105820002E05B0932F058093300590933105A093FA
:105830003205B09333058093340590933505A093DA
:105840003605B09337058093380590933905A093BA
:105850003A05B0933B051F910F91FF90EF9008958B
:10586000FC01880F991F8E0F9F1FE656FC4F608129
:105870008A579C4F70E00E9472380895AF92BF9291
:10588000CF92DF92EF92FF920F931F93CF93DF930C
:1058900080919C058823A1F48CE995E00E946037F3
:1058A000892B71F00E945D336093A8057093A90560
:1058B0008093AA059093AB058CE995E00E946A3726
:1058C0000E945D332091A8053091A9054091AA0559
:1058D0005091AB05621B730B840B950B695E734093
:1058E0008040904090F010925505109270051092F3
:1058F0006F0510926E0510926D0510926C05109256
:105900006B0510926A051092690585E695E00E9484
:10591000FA21892B09F013C6E0916505909167057E
:1059200080E020916605C22FD0E0C82BD92BE43649
:1059300009F481C3E53608F076C0E53109F4F9C110
:10594000E631A0F5EB3009F416C1EC30B0F4E930E3
:1059500068F4E53008F002C1E33009F4E9C0E4304E
:1059600008F0F9C0E23009F0EAC5DFC0E93009F417
:10597000FAC0EA3009F0E3C5F9C0EF3009F464C1B8
:10598000E03138F4ED3009F400C1EE3008F00CC11C
:10599000F7C0E13109F4C0C1E13108F460C1E2317E
:1059A00009F4BFC1E43109F0CAC5C0C1E13509F449
:1059B0008EC2E235E0F4E73409F427C2E83450F44B
:1059C000E53409F4BCC1E63408F00FC2E63109F051
:1059D000B6C5B2C1E93409F43EC2E93408F425C2BF
:1059E000EA3409F44EC2E03509F0A9C560C2EA35CF
:1059F00009F4BFC2EB3550F4E33509F48EC2E33548
:105A000008F475C2E43509F09AC59DC2EC3509F475
:105A1000D0C2EC3508F4BDC2ED3509F4E0C2EE3574
:105A200009F08DC5F2C2EA3C09F457C4EB3C08F01A
:105A300045C0E23709F4A3C3E33708F5E83609F4B3
:105A40003CC3E93660F4E63609F410C3BE0188278A
:105A500077FD8095982FE73608F01EC3FCC2EF361D
:105A600009F451C3E03720F4EE3609F068C53BC3B2
:105A7000E03709F458C3E13709F061C56AC3EB3771
:105A800009F4C9C3EC3750F4E93709F49EC3EA3787
:105A900008F0ABC3E83709F052C587C3E23809F410
:105AA000E6C3E33820F4EC3709F049C5CAC3E83C43
:105AB00009F4F3C3E93C09F042C5FFC3ED3D09F425
:105AC000C0C4EE3DE0F4E33D09F459C4E43D50F4B4
:105AD000EC3C09F42EC4EC3C08F415C4E23D09F09A
