:100000000C9493060C94BB060C94BB060C94BB0694
:100010000C94BB060C94BB060C94BB060C94BB065C
:100020000C94BB060C94BB060C94BB060C94AA382B
:100030000C94BB060C94BB060C94BB060C94BB063C
:100040000C9446330C9467220C94F9350C94473683
:100050000C94BB060C94BB060C94BB060C94BB061C
:100060000C94BB060C94BB06036EDB363D9A999943
:10007000993DABAAAA2A3E000000803F084AD73B20
:100080003BCE016E84BCBFFDC12F3D6C74319ABD67
:1000900056833DDA3D00C77F11BED9E4BB4C3E918B
:1000A0006BAAAABE000000803F072C7AA5BA6CC5D7
:1000B00090DA3B9365FC8BBC53F810FD3C56928361
:1000C0004DBD879D3AB63DCBC9BF5BBE73DA0FC944
:1000D0003F00007000000000240000000200030048
:1000E0000000650054FFEF0000FA80000B12820050
:1000F00001030C30C30E8C8CE914D5400213710F30
:100100008E3883F8833000F883258EF8833000F82A
:1001100083FFFFFFFF0FFEA9D6240004001A827997
:10012000A10000003CFFFF00000010000038836FBA
:10013000A2003E03304000000002CAE3093E8000F6
:1001400000200000000000000040000000600000EF
:1001500000000C0000000C186E000006920A16C089
:10016000DFFFFF0256FD8CD377FFE1C496E0C5BEEA
:10017000AA00000000FFFF0B2B0000165700000331
:10018000594000000000001DFA00026C1D00000034
:10019000003FFFDFEB003EB3B6000D227800002FDA
:1001A0003C00000000001942B5000039A20000B375
:1001B00065D90E9FC91DCF4C34300000005000009F
:1001C000003BB67AE80064000000C80000000000B0
:1001D00000100000001000FA921000225E000D22B4
:1001E0009F0001000000320000FF46000063D400C1
:1001F000001000000004D6000004CC000004CC0075
:10020000000000107200000040000000000000002C
:100210000000060002000500070000000000640066
:100220000000000000000000050005006400200040
:10023000000000000000000000000040000000037B
:100240000000000032F8980000FF650000830F00F6
:1002500000FF9BFC00000000000000000000000008
:10026000000000000000000000000000000000008E
:10027000000000000000000000000000000000106E
:100280000040000000000000060000B26A0002000A
:10029000000001FB830068000000D9FC007CF1FF36
:1002A000830000000000650000006403E8006400B3
:1002B00028000000250000000016A000000000102B
:1002C0000000001000002F0000000001F4000010EA
:1002D0000000280000FFFF4581FFFFFA72000000C8
:1002E0000000000000004400050005BAC600477881
:1002F000A200000001000000000000060000000055
:10030000140000254D002F706D000005AE000C029A
:10031000D00000000000000000000000000000000D
:1003200000001B00000000000000000000000000B2
:100330000000640000000800000000000000000051
:1003400000000000000000000000000000000000AD
:10035000000000000000000000000000000000009D
:10036000000000000000000000000000000000008D
:10037000000000000000000000000000000000007D
:10038000000000000000000000000000000000006D
:1003900000001B00000000000000000000000E0034
:1003A0000E00000AC70004000000000032FFFFFF3B
:1003B0009C00000B2B000000020000000100000068
:1003C00064FFE500000000000000000000000000E5
:1003D000000000000100000000000100000000001B
:1003E0000000018000000180000001800000242640
:1003F000D30000000000000000000600100096007E
:100400003C000000000000000000000000000000B0
:10041000000C0A4E68CDCF770950166759C619CE21
:10042000820000000000000000000000000000004A
:1004300000000000000000000017D7840003000047
:10044000000000000000000000C7938F9D1E1B1CD1
:100450001900000000000000000000000000000083
:1004600000000000000000000002031885000040AA
:100470000000000003000000030000000000000076
:10048000004000000000000000000000000000002C
:10049000000000000000000000000000000000005C
:1004A000000000000000000000000000000000004C
:1004B0000000000000677DDF7E72902E554CF6E64E
:1004C00088000000000000000000000000000000A4
:1004D00000D8DCB4B8B0D8B9ABF3F8FAB3B7BB8E78
:1004E0009EAEF132F51BF1B4B8B08097F1A9DFDF11
:1004F000DFAADFDFDFF2AAC5CDC7A90CC92C97F1AF
:10050000A989264666B28999A92D557DB0B08AA8D9
:1005100096365676F1BAA3B4B280C0B8A89711B295
:100520008398BAA3F0240844106418B2B9B498832D
:10053000F1A329557DBAB5B1A38393F0002850F5F6
:10054000B2B6AA839328547CF1B9A3829361BAA26C
:10055000DADEDFDB819AB9AEF5606870F1DABAA253
:10056000DFD9BAA2FAB9A38292DB31BAA2D9BAA270
:10057000F8DF85A4D0C1BBAD83C2C5C7B8A2DFDF99
:10058000DFBAA0DFDFDFD8D8F1B8AAB38DB4980DF9
:10059000355DB2B6BAAF8C96198F9FA70E161EB4F2
:1005A0009AB8AA872C547CBAA4B08AB691325676EF
:1005B000B28494A4C808CDD8B8B4B0F19982A82D5B
:1005C000557D98A80E161EA22C547C92A4F02C5097
:1005D00078F184A898C4CDFCD80DDBA8FC2DF3D904
:1005E000BAA6F8DABAA6DED8BAB2B68696A6D0F31C
:1005F000C841DAA6C8F8D8B0B4B882A892F52C548D
:100600008898F135D9F418D8F1A2D0F8F9A884D98E
:10061000C7DFF8F883C5DADF69DF83C1D8F40114D6
:10062000F1A8824EA884F311D182F5D99228978837
:10063000F109F41C1CD884A8F3C0F9D1D99782F130
:1006400029F40DD8F3F9F9D1D982F4C203D8DEDF49
:100650001AD8F1A2FAF9A88498D9C7DFF8F8F88374
:10066000C7DADF69DFF883C3D8F40114F198A882F0
:100670002EA884F311D182F5D992509788F109F40C
:100680001CD884A8F3C0F8F9D1D99782F149F40DA8
:10069000D8F3F9F9D1D982F4C403D8DEDFD8F1ADAB
:1006A0008898CCA809F9D98292A8F57CF1883ACF2C
:1006B000944A6E98DB6931DAADF2DEF9D88795A8F5
:1006C000F221D1DAA5F9F417D9F1AE8ED0C0C3AEBC
:1006D00082C684C3A88595C8A588F2C0F1F4010E2E
:1006E000F18E9EA8C63E56F554F18872F40115F1BC
:1006F0009845856EF58E9E0488F142985A8E9E0626
:100700008869F4011CF1981E1108D0F504F11E97B8
:100710000202983625DBF9D985A5F3C1DA85A5F360
:10072000DFD88595A8F309DAA5FAD88292A8F578DA
:10073000F1881A849F26889821DAF41DF3D8879FC0
:1007400039D1AFD9DFDFFBF9F40CF3D8FAD0F8DAFE
:10075000F9F9D0DFD9F9D8F40BD8F3879F39D1AFA5
:10076000D9DFDFF41DF3D8FAFCA869F9F9AFD0DAC4
:10077000DEFAD9F88F9FA8F1CCF398DB45D9AFDF2B
:10078000D0F8D8F18F9FA8CAF38809DAAF8FCBF8D9
:10079000D8F2AD978D0CD9A5DFF9BAA6F3FAF41209
:1007A000F2D8950DD1D9BAA6F3FADAA5F2C1BAA654
:1007B000F3DFD8F1BAB2B68696A6D0CAF349DAA664
:1007C000CBF8D8B0B4B8D8AD84F2C0DFF18FCBC3CA
:1007D000A8B2B68696C8C1CBC3F3B0B48898A82196
:1007E000DB718D9D71859521D9ADF2FAD88597A8D9
:1007F00028D9F408D8F28D29DAF405D9F285A4C2F3
:10080000F2D8A88D9401D1D9F411F2D88721D8F467
:100810000AD8F28498A8C801D1D9F411D8F3A4C891
:10082000BBAFD0F2DEF8F8F8F8F8F8F8F8D8F1B87D
:10083000F6B5B9B08A95A3DE3CA3D9F8D85CA3D9A4
:10084000F8D87CA3D9F8D8F8F9D1A5D9DFDAFAD845
:10085000B18530F7D9DED8F830ADDADED8F2B48C15
:1008600099A32D557DA083DFDFDFB591A0F629D9AF
:10087000FBD8A0FC29D9FAD8A0D051D9F8D8FC517E
:10088000D9F9D879D9FBD8A0D0FC79D9FAD8A1F96F
:10089000F9F9F9F9A0DADFDFDFD8A1F8F8F8F8F80C
:1008A000ACDEF8ADDE8393AC2C547CF1A8DFDFDF47
:1008B000F69D2CDAA0DFD9FADB2DF8D8A850DAA003
:1008C000D0DED9D0F8F8F8DB55F8D8A878DAA0D07F
:1008D000DFD9D0FAF8F8F8F8DB7DF8D89CA88CF5C9
:1008E00030DB38D9D0DEDFA0D0DEDFD8A848DB5837
:1008F000D9DFD0DEA0DFD0DED8A868DB70D9DFDF9B
:10090000A0DFDFD8F1A888902C547C98A8D05C3860
:10091000D1DAF2AE8CDFF9D8B087A8C1C1B188A80E
:10092000C6F9F9DA36D8A8F9DA36D8A8F9DA36D815
:10093000A8F9DA36D8A8F9DA36D8F78D9DADF818C7
:10094000DAF2AEDFD8F7ADFA30D9A4DEF9D8F2AEDC
:10095000DEFAF983A7D9C3C5C7F1889BA77AADF79B
:10096000DEDFA4F8849408A797F300AEF29819A4E8
:1009700088C6A39488F632DFF28393DB09D9F2AA02
:10098000DFD8D8AEF8F9D1DAF3A4DEA7F1889B7AE4
:10099000D8F38494AE19F9DAAAF1DFD8A881C0C3DC
:1009A000C5C7A39283F628ADDED9F8D8A350ADD938
:1009B000F8D8A378ADD9F8D8F8F9D1A1DADEC3C553
:1009C000C7D8A18194F818F2B089ACC3C5C7F1D8D3
:1009D000B8B4B09786A8319B069907AB9728889B37
:1009E000F00C201440B0B4B8F0A88A9A285078B718
:1009F0009BA8295179247059446938644831F1BB66
:100A0000AB88002C547CF0B38BB8A804285078F144
:100A1000B088B49726A85998BBABB38B022646661C
:100A2000B0B8F08A9CA82951798B2951798A247011
:100A3000598B2058718A4469388B3940688A6448D8
:100A4000318B30496088F1AC002C547CF08CA804C8
:100A5000285078F1889726A85998AC8C02264666CB
:100A6000F0899CA829517924705944693864483127
:100A7000A98809205970AB11384069A8193148601C
:100A80008CA83C415C207C00F187981986A86E7682
:100A90007EA999882D557DD8B1B5B9A3DFDFDFAE2A
:100AA000D0DFAAD0DEF2ABF8F9D9B087C4AAF1DF63
:100AB000DFBBAFDFDFB9D8B1F1A3978E60DFB084C1
:100AC000F2C8F8F9D9DED89385F14AB183A308B505
:100AD000839A0810B79F10D8F1B0BAAEB08AC2B2EC
:100AE000B68E9EF1FBD9F41DD8F9D90CF1D8F8F8DF
:100AF000AD61D9AEFBD8F40CF1D8F8F8AD19D9AE88
:100B0000FBDFD8F416F1D8F8AD8D61D9F4F4ACF56B
:100B10009C9C8DDF2BBAB6AEFAF8F40BD8F1AED0B0
:100B2000F8AD51DAAEFAF8F1D8B9B1B6A3839C08A2
:100B3000B9B1839AB5AAC0FD3083B79F10B58B9326
:100B4000F20202D1ABDADED8F1B080BAABC0C3B2E8
:100B500084C1C3D8B1B9F38BA391B609B4D9ABDEC4
:100B6000B0879CB9A3DDF1B38B8B8B8B8BB087A344
:100B7000A3A3A3B28BB69BF2A3A3A3A3A3A3A3A3F4
:100B8000A3A3F1B087B59AA3F39BA3A3DCBAACDF10
:100B9000B9A3A3A3A3A3A3A3A3A3A3A3A3A3A3A30F
:100BA000A3D8D8D8BBB3B7F1AAF9DAFFD9809AAAEB
:100BB00028B48098A720B79787A86688F07951F164
:100BC000902C870CA781976293F0717160859401D6
:100BD00029517990A5F1284C6C870C95188578A33C
:100BE0008390284C6C886CD8F3A28200F210A892F3
:100BF0001980A2F2D926D8F188A84DD948D896A84C
:100C00003980D93CD89580A839A68698D92CDA871E
:100C1000A72CD8A8899519A980D938D8A88939A925
:100C200080DA3CD8A82EA83990D90CD8A89531984C
:100C3000D90CD8A809D9FFD801DAFFD89539A9DA93
:100C400026FFD890A80D8999A810809821DA2ED86F
:100C50008999A83180DA2ED8A886963180DA2ED8E4
:100C6000A8873180DA2ED8A88292F34180F1D92E5C
:100C7000D8A882F31980F1D92ED882ACF3C0A28013
:100C800022F1A62EA72EA92298A829DAACDEFFD839
:100C9000A2F22AF1A92E8292A8F23180A696F1D969
:100CA00000AC8C9C0C30ACDED0DEFFD88C9CACD081
:100CB00010ACDE8092A2F24C82A8F1CAF235F19615
:100CC00088A6D900D8F1FF00000000240027002AE0
:100CD0000000000000250028002B00000000002379
:100CE000002600290004040404040404040202028F
:100CF000020202030303030303010204081020405D
:100D000080010204081020010204081020000000E5
:100D100007000201000003040600000000000000BC
:100D2000000090242C3711241FBECFEFD8E0DEBF87
:100D3000CDBF11E0A0E0B1E0E6EAFAE702C005901D
:100D40000D92A234B107D9F716E0A2E4B1E001C0D8
:100D50001D92A639B107E1F71DE0C6E2DDE004C04F
:100D60002297FE010E944D3DC232D107C9F70E9471
:100D700082370C94BD060C940000F8940C94513DFD
:100D8000FB01DC0104C08D910190801921F44150D8
:100D90005040C8F7881B990B0895FC011092BC00C5
:100DA000662319F088B1806302C088B18F7C88B94E
:100DB0001092B9009F01442737FD4095542F60E8F9
:100DC0007EE380E090E00E94303D20513040404082
:100DD0005040CA01B90122E030E040E050E00E94FA
:100DE000303D2093B80084E08093BC000895482FE4
:100DF000440F92E064EB54E86093BC002AEF30E0CB
:100E00008091BC0087FD34C0215030408FEF2F3FD0
:100E10003807B1F727C08091B900887F883021F06A
:100E2000803111F082E008954093BB005093BC00E4
:100E30002AEF30E08091BC0087FD1EC02150304079
:100E40008FEF2F3F3807B1F70FC08091B900887F2F
:100E5000803221F4992351F09150CECF883131F472
:100E600080E0089581E0089583E0089584E0089586
:100E70001216130684F2F6CF1216130634F3F4CFCB
:100E8000EF92FF920F931F93162FE42E022FF32E53
:100E90000E94F7061093BB0084E88093BC002AEF01
:100EA00030E08091BC0087FD07C0215030408FEFBB
:100EB0002F3F3807B1F703C0121613063CF0802FFE
:100EC0009F2D9C01F90190E044E81CC08091B9007D
:100ED000F6CF80818093BB004093BC002AEF30E0C6
:100EE0008091BC0087FD07C0215030408FEF2F3F1D
:100EF0003807B1F705C01216130614F48091B90033
:100F00009F5F31969E1528F384E98093BC002AEFF9
:100F100030E08091BC0087FD06C02115310519F035
:100F200021503040F6CF81E01F910F91FF90EF905C
:100F300008951F93F82F122F72E0B4EBE82FEE7F85
:100F4000A4E8B093BC002AEF30E08091BC0087FD9C
:100F5000D0C0215030408FEF2F3F3807B1F7B7C0D6
:100F60008091B900887F883021F0803111F091E1C3
:100F7000BDC0E093BB00A093BC002AEF30E080919D
:100F8000BC0087FDBBC0215030408FEF2F3F38079A
:100F9000B1F79FC09091B900987F903229F47723E0
:100FA00009F499C07150CDCF983109F094C0609385
:100FB000BB0084E88093BC002AEF30E08091BC0045
:100FC00087FDA1C0215030408FEF2F3F3807B1F788
:100FD00084C08091B900887F883211F095E186C085
:100FE00062E0A4EB7F2F7160E4E8A093BC002AEFDD
:100FF00030E08091BC0087FD8BC0215030408FEFE6
:101000002F3F3807B1F76BC08091B900887F8830D7
:1010100021F0803111F097E169C07093BB00E0933B
:10102000BC002AEF30E08091BC0087FD76C02150E3
:1010300030408FEF2F3F3807B1F758C08091B9008B
:10104000887F883429F4662309F44BC06150CDCFE2
:10105000803409F046C0FA0160E0412F50E0415071
:101060005040A4EC74E822C0862F90E084179507C6
:1010700019F47093BC0002C0A093BC002AEF30E0CA
:101080008091BC0087FD4EC0215030408FEF2F3F34
:101090003807B1F728C09091B900987F903511F0CA
:1010A000983521F58091BB0081936F5F6117E0F265
:1010B00084E98093BC002AEF30E08091BC0087FD7A
:1010C00014C02115310589F021503040F6CF90E150
:1010D0000DC092E10BC093E109C094E107C096E115
:1010E00005C099E103C09AE101C090E0892F1F91EA
:1010F0000895121613060CF433CFE9CF1216130617
:101100000CF448CFE6CF121613060CF462CFE5CFED
:10111000121613060CF478CFE2CF121613060CF455
:101120008DCFE4CF121613060CF4B5CFDCCF7F922F
:101130008F929F92AF92BF92CF92DF92EF92FF92E7
:101140000F931F93CF93DF93F82EE62E742E690131
:10115000E8010E948E334B015C018F2D880F6E2DAC
:10116000A601272D0E949907882311F01FEF01C0C7
:10117000172D2097C1F00E948E33681979098A09CA
:101180009B099E0140E050E06217730784079507B2
:1011900050F0212F332727FD3095872D90E0281719
:1011A00039070CF41FEF812FDF91CF911F910F9121
:1011B000FF90EF90DF90CF90BF90AF909F908F9077
:1011C0007F9008959C018230910518F02FEF3FEF3A
:1011D00045C080935C0290935D028AE290E0AC018E
:1011E000249FC001259F900D349F900D11248E5B8C
:1011F0009E4F9093550280935402C901880F991F06
:10120000820F931F880F991F880F991F8A569E4F30
:10121000909357028093560287E290E0AC01249F9E
:10122000C001259F900D349F900D112482559E4F33
:1012300090935902809358028CE290E0AC01249F75
:10124000C001259F900D349F900D112484509E4F16
:1012500090935B0280935A0220E030E0C901089528
:101260000F931F93CF93DF93C0915402D0915502F7
:1012700085E7888389E189838AE18A838CE08B838F
:101280008AE68C8383E28D838BE18E838CE18F836E
:101290008FE18A8780E28B8782E78C8784E78D875E
:1012A00083E48E878BE38F8781E4888B88E3898B47
:1012B00089E38A8B8AE38B8B8BE68D8B8CE68E8B16
:1012C00087E38F8B8FE6888F86E0898F84E28A8F11
:1012D0008DE68B8F8EE68C8F80E78D8F89E488A7D3
:1012E00081E089A785E28E8F86E28F8F87E288A3CF
:1012F00088E289A389E28AA38AE28BA384E38CA390
:1013000083E68DA384E68EA387E68FA380915C029B
:1013100090915D02009719F0019769F406C0E09181
:101320005602F091570288E605C0E0915602F0910E
:10133000570289E68083009156021091570280E09F
:1013400094E0F8019283818386E7838384E591E0CA
:101350009583848387EF9DEF9783868380E091E078
:101360009187808786E696E293878287209158024C
:101370003091590283E890E0A0E0B0E0F901808369
:101380009183A283B38380E098E0A0E0B0E08483FF
:101390009583A683B783108681E08187128688E1D2
:1013A000838782E390E09587848785E0868780E065
:1013B00090E0A0E2B1E48787908BA18BB28B80E0B4
:1013C00090E0A2EDB2E4838B948BA58BB68B49E2BF
:1013D0005CE56FE07EE3478B508F618F728F8AE907
:1013E00099E9A9E9BEE3838F948FA58FB68F83E334
:1013F00093E3A3E7BFE3878F90A3A1A3B2A343A383
:1014000054A365A376A3E0915A02F0915B02D183C5
:10141000C0831383028333A722A7DF91CF911F914B
:101420000F910895DC01E0915A02F0915B028681F0
:10143000882319F081E08C9301C01C9280E090E039
:101440000895DF93CF930F92CDB7DEB7982FA09179
:101450005A02B0915B025D968C915D97882321F0D2
:10146000992389F082E00DC016968C9116978823F7
:10147000E9F0992341F01C968C911C978823F9F48C
:1014800081E0898301C019821296ED91FC91139736
:101490000D90BC91A02D808151966C9141E09E01F0
:1014A0002F5F3F4F0E944007882319F42FEF3FEF33
:1014B00008C0E0915A02F0915B028981848720E0A4
:1014C00030E0C9010F90CF91DF910895CF92DF9264
:1014D000EF92FF920F931F93DF93CF9300D0CDB77E
:1014E000DEB7D82EC92E8B017A014115510519F4AA
:1014F0002FEF3FEF41C0E0915A02F0915B028681ED
:10150000882319F42EEF3FEF37C0A281B3819B01EE
:101510002D0D311D18968D919C9119978217930767
:1015200018F42DEF3FEF28C0C982DA820190F081D4
:10153000E02D8C91638D42E09E012F5F3F4F0E9412
:101540004007882319F42CEF3FEF16C0E0915A02B0
:10155000F0915B02A281B3810190F081E02D8C912A
:10156000608D402F97010E944007882319F020E0EA
:1015700030E002C02BEF3FEFC9010F900F90CF91E9
:10158000DF911F910F91FF90EF90DF90CF90089522
:101590001F93DF93CF930F92CDB7DEB7182FA09193
:1015A0005A02B0915B025C968C915C97811781F135
:1015B000112319F080E3898301C019821D968C9153
:1015C0001D97882319F08981826089835B968C91AD
:1015D0005B97882319F08981806889831296ED9141
:1015E000FC9113970D90BC91A02D808157966C9122
:1015F00041E09E012F5F3F4F0E944007882319F46E
:101600002FEF3FEF07C0E0915A02F0915B02148F79
:1016100020E030E0C9010F90CF91DF911F91089534
:10162000DF93CF930F92CDB7DEB7BC010097A9F13E
:1016300020915A0230915B02D90119968D919C91AB
:101640001A978617970748F16536710530F50E949D
:10165000E73C61506983F90182819381A081B18166
:10166000FC01808194966C9141E09E012F5F3F4F79
:101670000E944007882389F0E0915A02F0915B02B2
:10168000698170E06F5F7F4F818592850E94E73CA2
:1016900072A361A320E030E002C02FEF3FEFC90149
:1016A0000F90CF91DF910895DF93CF930F92CDB735
:1016B000DEB79C01A0915A02B0915B0216968C9104
:1016C0001697882399F12C3B310510F081E015C065
:1016D0002236310510F082E010C02A32310510F0B8
:1016E00083E00BC02431310510F084E006C02A30BD
:1016F000310510F085E001C086E0898317969C9142
:10170000179789819817D9F01296ED91FC9113974C
:101710000D90BC91A02D808112966C9141E09E01AC
:101720002F5F3F4F0E944007882319F42FEF3FEFB0
:1017300008C0E0915A02F0915B028981878320E022
:1017400030E0C9010F90CF91DF910895DF93CF93DF
:101750000F92CDB7DEB7982FA0915A02B0915B02DD
:1017600016968C9116978823A1F1943061F09530EC
:1017700018F4923071F505C0983039F0903149F580
:1017800006C0198206C088E003C080E101C088E17C
:10179000898315962C91159730E0898190E0E3E0DC
:1017A00095958795EA95E1F72817390709F112967B
:1017B000ED91FC9113970D90BC91A02D808117960F
:1017C0006C9141E09E012F5F3F4F0E9440078823AC
:1017D00019F42FEF3FEF0EC0E0915A02F0915B0237
:1017E000898190E073E0959587957A95E1F78583F7
:1017F00020E030E0C9010F90CF91DF910895DF9391
:10180000CF930F92CDB7DEB79C01A0915A02B09151
:101810005B0216968C9116978823E1F181E0243FB4
:10182000380791F081E0253F380720F42A3F310541
:1018300089F508C083E0283E380741F0205D374035
:1018400049F506C0198206C088E003C080E101C0E6
:1018500088E1898314962C91149730E0898190E077
:1018600043E0959587954A95E1F72817390709F1DF
:101870001296ED91FC9113970D90BC91A02D808153
:1018800016966C9141E09E012F5F3F4F0E944007EA
:10189000882319F42FEF3FEF0EC0E0915A02F09128
:1018A0005B02898190E0A3E095958795AA95E1F781
:1018B000848320E030E0C9010F90CF91DF9108953B
:1018C0000F931F93DF93CF930F92CDB7DEB7A09105
:1018D0005A02B0915B0216968C911697882309F4F0
:1018E0001BC119821296ED91FC9113970D90BC913A
:1018F000A02D808151966C9141E08E010F5F1F4FAA
:1019000098010E944007882309F406C1E0915A0219
:10191000F0915B02A281B3810190F081E02D8C9166
:10192000658141E098010E944007882309F4F4C0D2
:10193000E0915A02F0915B02A281B3810190F081A3
:10194000E02D8C91648141E098010E94400788233A
:1019500009F4E2C0A0915A02B0915B025D968C91AD
:101960005D97882309F469C08CE089831296ED9114
:10197000FC9113970D90BC91A02D808114966C91D1
:1019800041E098010E944007882309F4C5C062E342
:1019900070E080E090E00E949C3380EC8983A0910D
:1019A0005A02B0915B0216968C91169780FF02C086
:1019B00080EE89831296ED91FC9113970D90BC9166
:1019C000A02D808114966C9141E09E012F5F3F4FC6
:1019D0000E944007882309F49FC0A0915A02B09149
:1019E0005B021C968C911C97882319F082E08983F6
:1019F00001C019821296ED91FC9113970D90BC9144
:101A0000A02D808151966C9141E08E010F5F1F4F98
:101A100098010E944007882309F47EC01982E09152
:101A20005A02F0915B02A281B3810190F081E02D16
:101A30008C91658141E098016BC084E089831296A6
:101A4000ED91FC9113970D90BC91A02D808114967F
:101A50006C9141E098010E944007882309F45CC022
:101A6000A0915A02B0915B021D968C911D9788231C
:101A700029F416968C91169780FD02C080E401C06F
:101A800080E689831296ED91FC9113970D90BC919D
:101A9000A02D808114966C9141E09E012F5F3F4FF5
:101AA0000E9440078823C1F162E370E080E090E08B
:101AB0000E949C33A0915A02B0915B021C968C91BB
:101AC0001C97882319F081E0898301C0198212963E
:101AD000ED91FC9113970D90BC91A02D80815196B2
:101AE0006C9141E09E012F5F3F4F0E944007882389
:101AF00099F0E0915A02F0915B02A281B3812081BA
:101B000031813B968C91D90115966C9141E09F01F2
:101B10000E944007882319F42FEF3FEF02C020E016
:101B200030E0C9010F90CF91DF911F910F9108957F
:101B30000F931F93CF93DF93982FE0915A02F09168
:101B40005B02858D882319F0C0E0D0E029C0868132
:101B5000882321F1192F1E7F038581238387811715
:101B600019F4C0E0D0E002C0CFEFDFEF112319F489
:101B70008785882331F081E00E94210A112381F0BA
:101B800004C080E00E94210A0BC00E94600C892BD7
:101B900039F0E0915A02F0915B020387CFEFDFEF5B
:101BA000CE01DF91CF911F910F9108951F93DF9385
:101BB000CF9300D0CDB7DEB7182F893208F058C0C8
:101BC0008823F9F480E00E94C80A198287E08A839A
:101BD000E0915A02F0915B02A281B3810190F08101
:101BE000E02D8C91658942E09E012F5F3F4F0E945E
:101BF00040078823E9F1E0915A02F0915B021786D1
:101C000046C081E00E94C80A80E28983113011F445
:101C10001A8204C0163028F481E08A8385E090E0BF
:101C20000BC0153128F482E08A838AE090E004C07A
:101C300083E08A8384E190E00E94540B8A8182953C
:101C4000880F880F807C87608A83E0915A02F09128
:101C50005B02A281B3810190F081E02D8C916589B6
:101C600042E09E012F5F3F4F0E944007882319F4F6
:101C70002FEF3FEF0EC0E0915A02F0915B0288E037
:101C80008683108681E0878780E00E94980D20E09F
:101C900030E0C9010F900F90CF91DF911F9108950F
:101CA0000F931F93DF93CF930F92CDB7DEB78C01C5
:101CB000E0915A02F0915B0286818823B9F1858D0B
:101CC0008823A1F58785882359F0C8010197889753
:101CD00020F4802F0E94D60D4DC080E00E94D60DCA
:101CE0000430110518F464E070E007C0B80183E027
:101CF000093E180710F068EE73E088EE93E00E944A
:101D0000E73C61506983E0915A02F0915B02A28145
:101D1000B3810190F081E02D8C91618141E09E01C1
:101D20002F5F3F4F0E944007882319F42FEF3FEFAA
:101D300023C0E0915A02F0915B02698170E06F5F0D
:101D40007F4F88EE93E00E94FB3C7287618781A100
:101D500092A18536910510F084E690E00E94100B68
:101D6000E0915A02F0915B02818592859695879564
:101D70000E94540B20E030E0C9010F90CF91DF9119
:101D80001F910F910895CF92DF92EF92FF920F93E0
:101D90001F93DF93CF9300D0CDB7DEB7182F092F55
:101DA0007B016A0141155105D1F1E0915A02F09190
:101DB0005B028681882399F1A281B3819B01210F67
:101DC000311D18968D919C9119978217930738F1C0
:101DD00009831A830190F081E02D8C91638D42E09C
:101DE0009E012F5F3F4F0E9440078823C1F0E09182
:101DF0005A02F0915B02A281B3810190F081E02D43
:101E000000910001109101018C91608D4E2D960181
:101E10000E949708882319F020E030E002C02FEFDD
:101E20003FEFC9010F900F90CF91DF911F910F915C
:101E3000FF90EF90DF90CF900895DF92EF92FF92A6
:101E40000F931F93DF93CF930F92CDB7DEB7D82EAA
:101E5000E0915A02F0915B0285858D1509F49EC0D0
:101E6000A281B3810190F081E02D009100011091D9
:101E700001017E010894E11CF11CDD2089F18C91A7
:101E8000648141E097010E949708882309F47EC08D
:101E900089818F7D8983E0915A02F0915B02A28152
:101EA000B3810190F081E02D8C91648141E0970134
:101EB0000E944007882309F469C063E070E080E075
:101EC00090E00E949C3382E08983A0915A02B091F5
:101ED0005B025B968C915B978823F1F182E839C0B5
:101EE0008C91648141E097010E949708882309F44E
:101EF0004DC0A0915A02B0915B0216968C91169734
:101F0000998180FF02C0906201C09F7D99831296E3
:101F1000ED91FC9113970D90BC91A02D80811496AA
:101F20006C9141E09E012F5F3F4F0E944007882344
:101F300069F163E070E080E090E00E949C33A09142
:101F40005A02B0915B025B968C915B97882319F0E3
:101F500080E8898301C019825C968C915C97882304
:101F600019F08981806389831296ED91FC91139712
:101F70000D90BC91A02D808157966C9141E09E01FF
:101F80002F5F3F4F0E944007882319F42FEF3FEF48
:101F900007C0E0915A02F0915B02D58620E030E064
:101FA000C9010F90CF91DF911F910F91FF90EF909A
:101FB000DF900895DF93CF930F92CDB7DEB7982FC0
:101FC000E0915A02F0915B02858D891709F44AC0AD
:101FD000992369F1868D882319F42FEF3FEF44C0D0
:101FE00080E00E94210A80E00E941D0FE0915A02C9
:101FF000F0915B02878D90A10E94500E1982E091B2
:102000005A02F0915B020280F381E02D808163E24D
:1020100041E09E012F5F3F4F0E944007E0915A022E
:10202000F0915B0281E0858F0E94210A19C080E057
:102030000E94210AE0915A02F0915B028385898314
:102040000280F381E02D808163E241E09E012F5FF9
:102050003F4F0E944007E0915A02F0915B02158EBB
:102060000E94600C20E030E0C9010F90CF91DF9119
:1020700008956F927F928F929F92AF92BF92CF926C
:10208000DF92EF92FF920F931F93DF93CF9300D0D5
:10209000CDB7DEB76C013B014A01A0915A02B09165
:1020A0005B025D968C915D97882319F42FEF3FEFCB
:1020B0007CC016968C911697882319F42EEF3FEF6B
:1020C00074C01296ED91FC9113970D90BC91A02DC8
:1020D000009100011091010180811C966C9142E0F9
:1020E0005E010894A11CB11C95010E9497088823E9
:1020F00019F42DEF3FEF59C0998180E02A81E22E3B
:10210000FF24E82AF92AEC14FD0428F4F4011082D3
:1021100021E030E04AC0E0915A02F0915B02A281D6
:10212000B38111968D919C911297969587958E15F6
:102130009F05D0F40190F081E02D009100011091F5
:1021400001018C91638941E095010E9497088823E1
:1021500019F42BEF3FEF29C0898184FF05C00E944D
:10216000600C22E030E021C0E0915A02F0915B0265
:10217000A281B3810190F081E02D009100011091C6
:1021800001018C9165854C2D93010E94970888234D
:1021900019F429EF3FEF09C0C701B6010E94E73CDF
:1021A0006150F401608320E030E0C9010F900F908E
:1021B000CF91DF911F910F91FF90EF90DF90CF9023
:1021C000BF90AF909F908F907F906F900895DF9217
:1021D000EF92FF920F931F93DF93CF9300D0CDB771
:1021E000DEB7D82EE82EFF24C70180779070892BA8
:1021F00011F081E005C0DD2011F0198202C080E4F9
:102200008983E0915A02F0915B02A281B38101902F
:10221000F081E02D8C91658941E09E012F5F3F4F59
:102220000E944007A0915A02B0915B02882319F4E2
:1022300016961C9230C089818F7B18968C931897C4
:102240001982E6FC02C084E08983E5FC03C0898131
:1022500082608983E4FC03C0898181608983E3FC17
:1022600003C08981886389831296ED91FC9113974D
:102270000D90BC91A02D808156966C9141E09E01FD
:102280002F5F3F4F0E944007882341F4E0915A029C
:10229000F0915B0216822FEF3FEF6CC0DD2031F032
:1022A00088E0D81619F080E00E94C80AE0915A022E
:1022B000F0915B02A281B3810190F081E02D009149
:1022C0000001109101018C91648141E09E012E5F1B
:1022D0003F4F0E9497088823F1F29A81E0FE04C0E4
:1022E00081E08983906202C019829F7D9A83A091C8
:1022F0005A02B0915B025D968C915D979A8188231A
:1023000011F0906801C09F779A831296ED91FC912D
:1023100013970D90BC91A02D808196966C9141E011
:102320009E012F5F3F4F0E944007882309F4B3CFDF
:10233000E0915A02F0915B02A281B3810190F08199
:10234000E02D8C91648141E09E012E5F3F4F0E9401
:102350004007882309F49FCFE0915A02F0915B0275
:10236000D682178662E370E080E090E00E949C33A2
:1023700020E030E0C9010F900F90CF91DF911F91C5
:102380000F91FF90EF90DF900895CF92DF92EF9240
:10239000FF920F931F93DF93CF93CDB7DEB72997AB
:1023A0000FB6F894DEBF0FBECDBF7C016B01A091CC
:1023B0005A02B0915B0216968C91169780FD03C06D
:1023C0002FEF3FEF96C01296ED91FC9113970D9071
:1023D000BC91A02D0091000110910101808198967F
:1023E0006C9148E09E012F5F3F4F0E949708882321
:1023F00019F42CEF3FEF7DC0898180FD03C021E0FF
:1024000030E077C0888587FD72C086FD70C03B8153
:1024100020E06A8170E0622B732BF7017183608387
:102420003D8120E04C8150E0242B352B33832283E7
:102430003F8120E04E8150E0242B352B35832483CF
:1024400000915A0210915B02882777FD8095982FA2
:10245000F80124A135A1442737FD4095542F0E944F
:10246000BC3C672F782F892F992787FD9A95F70114
:102470007183608362817381882777FD8095982FAF
:10248000F80126A137A1442737FD4095542F0E941B
:10249000BC3C672F782F892F992787FD9A95F701E4
:1024A0007383628364817581882777FD8095982F77
:1024B000F80120A531A5442737FD4095542F0E94EF
:1024C000BC3C672F782F892F992787FD9A95F701B4
:1024D00075836483C114D10439F00E948E33F601F0
:1024E000608371838283938320E030E002C02AEF0F
:1024F0003FEFC90129960FB6F894DEBF0FBECDBFDE
:10250000CF91DF911F910F91FF90EF90DF90CF90CF
:1025100008952F923F924F925F926F927F928F9287
:102520009F92AF92BF92CF92DF92EF92FF920F9362
:102530001F93DF93CF93CDB7DEB764970FB6F894B0
:10254000DEBF0FBECDBF3C014B014B8B5C8B190135
:10255000E0915A02F0915B02868D882319F02FEFEB
:102560003FEF75C06115710519F42EEF3FEF6FC095
:1025700080E190E00E94C334B92EC82ED92EA82E37
:10258000EE24FF2463E0462E512C4C0E5D1E38C015
:1025900083010E191F090131110510F000E110E04F
:1025A00094012E0D3F1DD601A601400F511F05C0FD
:1025B000F90184918D932F5F3F4FA417B507C1F7A1
:1025C000C701B801A5010E94660A892B19F02DEFF9
:1025D0003FEF3DC0C701B801A2010E94C30E892B85
:1025E00019F02CEF3FEF33C0C501B201A8010E94E2
:1025F000C006009719F02BEF3FEF29C0E00EF11E47
:10260000E614F70428F2FC89F9838B898A83E09128
:102610005A02F0915B02A281B3810190F081E02D1A
:102620008C91658D42E09E012F5F3F4F0E944007D5
:10263000882319F42AEF3FEF0AC0E0915A02F09183
:102640005B0281E0868F30A2278E20E030E0C90156
:1026500064960FB6F894DEBF0FBECDBFCF91DF9169
:102660001F910F91FF90EF90DF90CF90BF90AF90B0
:102670009F908F907F906F905F904F903F902F90A2
:102680000895EF92FF920F931F93DF93CF93CDB7EF
:10269000DEB72B970FB6F894DEBF0FBECDBF80E834
:1026A0008D83E0915A02F0915B02A281B381019087
:1026B000F081E02D15E0E12EF12CEC0EFD1E8C9149
:1026C000658941E097010E944007882319F42FEFA4
:1026D0003FEF26C264E670E080E090E00E949C3309
:1026E0001D82E0915A02F0915B02A281B3810190B8
:1026F000F081E02D8C91658941E097010E944007AF
:10270000882319F42EEF3FEF0BC2E0915A02F091AB
:102710005B02A281B3810190F081E02D0091000164
:10272000109101018C91618D46E097010E949708FC
:10273000882319F42DEF3FEFF3C18A8590E0817073
:102740009070880F991F880F991F288530E021709D
:102750003070220F331F982F922B8E818170982B0F
:1027600091F0913031F4E0915A02F0915B0296873A
:1027700032C0923019F02CEF3FEFD2C1E0915A02F3
:10278000F0915B0227C0E0915A02F0915B02A281B6
:10279000B3810190F081E02D0091000110910101C1
:1027A0008C91638141E097010E949708882319F476
:1027B0002BEF3FEFB5C18D818F7019F42AEF3FEFFA
:1027C000AFC1E0915A02F0915B02843019F481E0CC
:1027D000868701C01686E0915A02F0915B028FEF66
:1027E00086838483858387832FEF3FEF328721871A
:1027F0008387858732A321A381E08087838F148E0E
:10280000108A178671968AE011928A95E9F7E0910D
:102810005A02F0915B02158E168E10A2178E80ED73
:1028200097E00E94FF0B892B19F026EF3FEF78C14C
:1028300082E00E94A60B892B19F025EF3FEF70C1B3
:102840008AE290E00E94540B892B19F024EF3FEFAD
:1028500067C182E390E00E94500E892B19F023EFAC
:102860003FEF5EC180E00E94980D892B19F022EFA6
:102870003FEF56C181E00E941D0F9CE07E0108944D
:10288000E11CF11C0091000110910101892F60E011
:1028900041E097019B870E9497089B85882399F0C8
:1028A0008981883481F4E0915A02F0915B0293A30C
:1028B000198283A16AE041E097010E9440078823C2
:1028C00009F420C104C09F5F9031E1F61BC161E0B3
:1028D00070E080E090E00E949C338FE08983E0917B
:1028E0005A02F0915B0283A16AE041E097010E94E5
:1028F0004007882309F406C161E070E080E090E0C1
:102900000E949C33E0915A02F0915B020091000119
:102910001091010183A160E143E097010E949708B3
:10292000882309F4EFC0E0915A02F0915B0289819B
:1029300090E080589F4F95A384A38A8190E08058AF
:102940009F4F97A386A38B8190E080589F4F91A7BC
:1029500080A7198283A16AE041E097010E944007A5
:10296000882309F4CFC061E070E080E090E00E942D
:102970009C3380E00E941D0F80E48983E0915A021D
:10298000F0915B02A281B3810190F081E02D8C91E6
:10299000628D41E097010E944007882309F4B2C08C
:1029A000E0915A02F0915B0283A180688983A28141
:1029B000B3810190F081E02D8C91668D41E097010B
:1029C0000E944007882309F49DC082E08983E0913A
:1029D0005A02F0915B02A281B3810190F081E02D57
:1029E0008C91678D41E097010E944007882309F48C
:1029F00089C088E88983E0915A02F0915B02A28144
:102A0000B3810190F081E02D8C9160A141E09701AC
:102A10000E944007882309F475C0E0915A02F091A2
:102A20005B0283A18983A281B3810190F081E02DB3
:102A30008C9161A141E08E010F5F1F4F98010E94B0
:102A40004007882309F45EC08AE08983E0915A0236
:102A5000F0915B02A281B3810190F081E02D8C9115
:102A600062A141E098010E944007882309F44AC00E
:102A700081E88983E0915A02F0915B02A281B381DF
:102A80000190F081E02D8C9163A141E098010E94BA
:102A900040078823B9F181E08983E0915A02F091DF
:102AA0005B02A281B3810190F081E02D8C9166A13F
:102AB00041E098010E944007882321F183E0898347
:102AC000E0915A02F0915B02A281B3810190F08102
:102AD000E02D8C9167A141E098010E944007882376
:102AE00089F080E88983E0915A02F0915B02A2812B
:102AF000B3810190F081E02D8C9161A541E09801B6
:102B00000E9440078AE090E00E94100B892B19F088
:102B100021EF3FEF05C080E00E94E71020E030E0A9
:102B2000C9012B960FB6F894DEBF0FBECDBFCF9173
:102B3000DF911F910F91FF90EF9008959C018230DB
:102B4000910518F02FEF3FEF16C080937602909317
:102B500077028BE090E0AC01249FC001259F900D8F
:102B6000349F900D1124825A9D4F9093750280934B
:102B7000740220E030E0C9010895E0917402F09100
:102B800075021182108213821282158214821782BA
:102B9000168211861086128608952F923F924F92C8
:102BA0005F926F927F928F929F92AF92BF92CF92DD
:102BB000DF92EF92FF920F931F93DF93CF93CDB7E6
:102BC000DEB7AC970FB6F894DEBF0FBECDBF9EA3A5
:102BD0008DA378A76FA32A013AA729A71CA70BA743
:102BE000A701D8011D921C92E0917402F091750228
:102BF000828590E0BE016F5F7F4F0E9439109CA3D9
:102C00008BA3892B09F0B2C1E0917402F091750297
:102C1000FAA3E9A38681978184719070892B11F4BE
:102C200040E017C1A980BB24CC24DD24DA2CCC24BD
:102C3000BB24AA248A8190E0A0E0B0E0DC019927BF
:102C40008827A82AB92ACA2ADB2A8C8190E0A0E02A
:102C5000B0E0A82AB92ACA2ADB2A8B8190E0A0E03A
:102C6000B0E0BA2FA92F982F8827A82AB92ACA2AF4
:102C7000DB2AD201AD92BD92CD92DC9213972D81C9
:102C800030E040E050E0522F4427332722278E8146
:102C900090E0A0E0B0E0DC0199278827282B392BB1
:102CA0004A2B5B2B888590E0A0E0B0E0282B392BE5
:102CB0004A2B5B2B8F8190E0A0E0B0E0BA2FA92FC8
:102CC000982F8827282B392B4A2B5B2BF201248342
:102CD000358346835783298530E040E050E0522F0A
:102CE0004427332722278A8590E0A0E0B0E0DC016A
:102CF00099278827282B392B4A2B5B2B8C8590E032
:102D0000A0E0B0E0282B392B4A2B5B2B8B8590E081
:102D1000A0E0B0E0BA2FA92F982F8827282B392BB5
:102D20004A2B5B2BD20118962D933D934D935C93C8
:102D30001B972D8530E040E050E0522F4427332789
:102D400022278E8590E0A0E0B0E0DC01992788275B
:102D5000282B392B4A2B5B2B888990E0A0E0B0E030
:102D6000282B392B4A2B5B2B8F8590E0A0E0B0E01D
:102D7000BA2FA92F982F8827282B392B4A2B5B2B6A
:102D800024873587468757875601DD24B7FCD094C2
:102D9000CD2C64807580868097803401992477FCDF
:102DA0009094892C208431844284538412015524C8
:102DB00037FC5094452C9A01552737FD5095452FE7
:102DC000CA01B9010E94BC3C7B018C01C601B5015E
:102DD000A60195010E94BC3CE60EF71E081F191FB4
:102DE000C401B301A40193010E94BC3CE60EF71E8E
:102DF000081F191FC201B101A20191010E94BC3C30
:102E0000E60EF71E081F191F80E090E0A0E0B1EF6A
:102E1000E80EF91E0A1F1B1F91E0E91690E0F90663
:102E200090E0090792E0190758F00E94600CABA5EA
:102E3000BCA51D921C92E3E0F0E0FCA3EBA396C0BE
:102E4000ABA5BCA58D919C91119791608D939C939E
:102E500040E1E9A1FAA1868186FF39C0A42FB0E044
:102E6000FE01EA0FFB1F228130E0FE01EA0FFB1F8B
:102E7000918180E0282B392BEFA1F8A531832083A5
:102E8000FE01EA0FFB1F338120E0FE01EA0FFB1F6A
:102E9000848190E0282B392BEFA1F8A5338322837E
:102EA000FE01EA0FFB1F358120E0868190E0282B90
:102EB000392BAFA1B8A515963C932E9314974A5F72
:102EC000EBA5FCA580819181886091838083A9A175
:102ED000BAA116968D919C91179780789170892B45
:102EE000C1F1A42FB0E0FE01EA0FFB1F228130E008
:102EF000FE01EA0FFB1F918180E0282B392BEDA109
:102F0000FEA131832083FE01EA0FFB1F338120E005
:102F1000FE01EA0FFB1F848190E0282B392BEDA1E5
:102F2000FEA133832283FE01EA0FFB1F358120E0DF
:102F3000868190E0282B392BADA1BEA115963C933C
:102F40002E931497EBA5FCA58081918180679183D6
:102F5000808389A59AA5892B49F00E948E33A9A563
:102F6000BAA56D937D938D939C9313978BA19CA190
:102F7000AC960FB6F894DEBF0FBECDBFCF91DF91F8
:102F80001F910F91FF90EF90DF90CF90BF90AF9087
:102F90009F908F907F906F905F904F903F902F9079
:102FA0000895DF93CF93CDB7DEB729970FB6F89486
:102FB000DEBF0FBECDBF9E012F5F3F4F882349F07C
:102FC000D901E1E1F1E089E001900D928150E1F752
:102FD00008C0D901E8E0F1E089E001900D9281504C
:102FE000E1F788EB94E069E070E0AE014F5F5F4F7E
:102FF0000E94660A29960FB6F894DEBF0FBECDBFB9
:10300000CF91DF9108950F931F93DF93CF93CDB7A7
:10301000DEB728970FB6F894DEBF0FBECDBF8C0188
:10302000893C9105F0F488EC90E0B8010E94E73CFF
:103030006150704079836A8386E192E062E070E0DB
:10304000AE014F5F5F4F0E94660A892B51F481ECFD
:103050009AE06CE070E04AE151E00E94660A892B38
:1030600019F02FEF3FEF08C0E0917402F091750264
:103070001187008720E030E0C90128960FB6F89448
:10308000DEBF0FBECDBFCF91DF911F910F9108958D
:10309000EF92FF920F931F93DF93CF9300D000D056
:1030A00000D0CDB7DEB78C01AC0143705070FA018F
:1030B000E15DFE4F80818983C801E3E096958795A5
:1030C000EA95E1F783709070FC01E15DFE4F20818D
:1030D0002A83D80176E0B695A7957A95E1F7A37093
:1030E000B070FD01E15DFE4F20812B83445D5E4F9A
:1030F000FA0120812C83845D9E4FFC0180818D83A9
:10310000A45DBE4F8C918E8386E294E063E070E014
:103110007E010894E11CF11CA7010E94660A892B1C
:1031200009F04BC08AE294E063E070E0AE014C5FCE
:103130005F4F0E94660A892B09F03FC0D701E9E280
:10314000F1E083E001900D928150E1F7DE011496E9
:10315000E6E2F1E083E001900D928150E1F702FF99
:1031600006C08981816089838C8181608C8305FFA1
:1031700006C08A8181608A838D8181608D8310FF82
:1031800006C08B8181608B838E8181608E8380E419
:1031900094E063E070E0AE014F5F5F4F0E94660A0B
:1031A000892B59F481E394E063E070E0AE014C5F59
:1031B0005F4F0E94660A892B19F02FEF3FEF08C07E
:1031C000E0917402F09175021583048320E030E0F1
:1031D000C90126960FB6F894DEBF0FBECDBFCF91C2
:1031E000DF911F910F91FF90EF900895DF93CF93A0
:1031F00000D000D0CDB7DEB7882349F080E28983C4
:1032000088E28A8380E38B8388E38C8308C083EA27
:1032100093EAA3EAB3EA89839A83AB83BC838EE9FA
:103220009AE064E070E0AE014F5F5F4F0E94660A73
:103230000E94600C0F900F900F900F90CF91DF9134
:103240000895DF93CF9300D000D0CDB7DEB78823A9
:1032500049F080EC898382EC8A8384EC8B8386EC52
:103260008C8308C08BE89BE8ABE8BBE889839A8332
:10327000AB83BC8388E99AE064E070E0AE014F5F05
:103280005F4F0E94660A0E94600C0F900F900F9093
:103290000F90CF91DF910895AF92BF92CF92DF92BE
:1032A000EF92FF920F931F93DF93CF93CDB7DEB7CB
:1032B0002A970FB6F894DEBF0FBECDBF8C0182E017
:1032C00089838AEC8A8383EE8B8389E08C8388E60A
:1032D00090E064E070E0AE014F5F5F4F0E94660ACD
:1032E00083EA8983B0E4AB2EB12CA022B12206FF81
:1032F00006C080EC8A8388EC8B8382EC02C08A83D0
:103300008B838C83A0E8EA2EA1E0FA2EE022F12242
:10331000E114F10431F084EC8D838CEC8E8386EC27
:1033200003C083EA8D838E838F8383EA88878987AE
:103330008A8787EA9AE06AE070E0AE014F5F5F4FEC
:103340000E94660AF3E0CF2ED12CC022D122C114F4
:10335000D10411F080E201C088ED898386EB9AE008
:1033600061E070E0AE014F5F5F4F0E94660A05FFAB
:1033700002C081E001C080E00E94D117E114F10495
:10338000D9F010FF08C082EB89838BE88A8386EB33
:103390008B838BE907C080EB898380E88A8384EB89
:1033A0008B8380E98C8382EA9AE064E070E0AE016E
:1033B0004F5F5F4F0E94660A02FF02C081E001C0BA
:1033C00080E00E94211904FF02C081E001C080E07A
:1033D0000E94F618E0917402F0917502C8018860AD
:1033E000978386830E94600CE0917402F0917502CD
:1033F0001286AB2811F086E08287EF2819F08285CB
:103400008A5F828704711070012B19F08285805FBA
:103410008287CD2819F082858C5F828780E090E0DA
:103420002A960FB6F894DEBF0FBECDBFCF91DF91C5
:103430001F910F91FF90EF90DF90CF90BF90AF90D2
:10344000089586EF9BE061ED70E040E054E028ECE9
:1034500030E00E94891208952F923F924F925F921E
:103460006F927F928F929F92AF92BF92CF92DF9294
:10347000EF92FF920F931F93DF93CF93CDB7DEB7F9
:10348000E6970FB6F894DEBF0FBECDBF1092BD0217
:103490001092BC028EEB92E064EC72E04CEA52E0D7
:1034A00020E030E00CEB12E0FAECEF2EF2E0FF2E21
:1034B0000E94CD159EAB8DAB9093CC028093CB0236
:1034C000892B09F044C58091CA028230E8F08EEB66
:1034D00092E064EC72E04CEA52E020E030E00CEB69
:1034E00012E0EAECEE2EE2E0FE2E0E94CD159C01E9
:1034F0009093CC028093CB028091CA02823008F470
:1035000022C5232B21F31FC56091AC027091AD023F
:103510008091AE029091AF020E94E53A20E030E047
:1035200040E850E30E94F13B1B012C016093AC0288
:103530007093AD028093AE029093AF026091B0029F
:103540007091B1028091B2029091B3020E94E53A6B
:1035500020E030E040E850E30E94F13B698B7A8B39
:103560008B8B9C8B6093B0027093B1028093B202FC
:103570009093B3026091B4027091B5028091B6024B
:103580009091B7020E94E53A20E030E040E850E335
:103590000E94F13B5B016C016093B4027093B50231
:1035A0008093B6029093B7026091B8027091B9020D
:1035B0008091BA029091BB020E94E53A20E030E08F
:1035C00040E850E30E94F13B6D8B7E8B8F8B988F90
:1035D0006093B8027093B9028093BA029093BB02D1
:1035E000C601B501A60195010E94F13B698F7A8F52
:1035F0008B8F9C8F6093E7027093E8028093E902BF
:103600009093EA026D897E898F89988D9B01AC0128
:103610000E94F13B6D8F7E8F8F8F98A36093EB029A
:103620007093EC028093ED029093EE02C201B1011F
:10363000A20191010E94F13B69A37AA38BA39CA3F1
:103640006093EF027093F0028093F1029093F20284
:1036500069897A898B899C892D893E894F89588D02
:103660000E94F13B7B018C01C201B101A6019501D1
:103670000E94F13B9B01AC01C801B7010E9468396F
:103680003B014C016093F3027093F4028093F502C6
:103690009093F60225EE32EF4FEF5EE30E94E63B99
:1036A0001816BCF4C601B501A20191010E94F339BC
:1036B0009B01AC010E946939609380027093810282
:1036C00080938202909383028BED9FE0A9ECBFE38D
:1036D00022C0C401B30125EE32EF4FEF5EEB0E9432
:1036E000463A88236CF5C601B501A20191010E94FA
:1036F000F33920E030E040E050EC0E94F13B609371
:1037000080027093810280938202909383028BEDFA
:103710009FE0A9ECBFEB80937C0290937D02A09385
:103720007E02B0937F0280E090E0A0E0B0E0809362
:10373000780290937902A0937A02B0937B0294C0AE
:1037400069897A898B899C89A20191010E94F13B48
:103750007B018C01C601B5012D893E894F89588DA9
:103760000E94F13B9B01AC01C801B7010E9469397D
:103770009B01AC010E9469397B018C016D8D7E8DAE
:103780008F8D98A129A13AA14BA15CA10E94693912
:1037900020E030E040E050EC0E94F13B20E030E0DF
:1037A00040E85FE30E9469399B01AC01C801B701A1
:1037B0000E94F339609380027093810280938202A9
:1037C00090938302C401B301A40193010E9469395B
:1037D0000E94CD3960937C0270937D0280937E02BB
:1037E00090937F0269897A898B899C89A6019501CA
:1037F0000E94F13B7B018C016D897E898F89988DB8
:10380000A20191010E94F13B9B01AC01C801B701EB
:103810000E9468399B01AC010E9469397B018C01CF
:10382000698D7A8D8B8D9C8D2D8D3E8D4F8D58A100
:103830000E94693920E030E040E050EC0E94F13B0A
:1038400020E030E040E85FE30E9469399B01AC0171
:10385000C801B7010E94F33960937802709379022E
:1038600080937A0290937B02609178027091790242
:1038700080917A0290917B0221EE3EE245E652E48D
:103880000E94F13B90586093780270937902809384
:103890007A0290937B0260917C0270917D0280910C
:1038A0007E0290917F0221EE3EE245E652E40E94C4
:1038B000F13B905860937C0270937D0280937E026E
:1038C00090937F02609180027091810280918202C8
:1038D0009091830221EE3EE245E652E40E94F13BE4
:1038E0005B016C0120E030E044E353E40E9469395D
:1038F0007B018C0120E030E044E353E40E94E63B8E
:10390000181654F4C601B50120E030E044E353E456
:103910000E9468397B018C01D801C701B05880939F
:10392000800290938102A0938202B09383028091DF
:10393000CD02882391F58DEC92E00E949137892B7E
:1039400061F180E090E0A0E8BFE38093D70290931C
:10395000D802A093D902B093DA0280E090E0A0E010
:10396000B0E08093DB029093DC02A093DD02B09381
:10397000DE028093DF029093E002A093E102B09315
:10398000E2028093E3029093E402A093E502B093F5
:10399000E6028DEC92E00E949B378091AC02909100
:1039A000AD02A091AE02B091AF028D879E87AF8726
:1039B000B88B8093D7029093D802A093D902B0938A
:1039C000DA022090B0023090B1024090B2025090E2
:1039D000B3022092DB023092DC024092DD02509270
:1039E000DE026090B4027090B5028090B6029090B2
:1039F000B7026092DF027092E0028092E102909240
:103A0000E202A090B802B090B902C090BA02D09081
:103A1000BB02A092E302B092E402C092E502D0920F
:103A2000E6026091C4027091C502882777FD8095F7
:103A3000982F0E94E53A0E94B23A882777FD809538
:103A4000982F0E94E53A69837A838B839C836091E7
:103A5000C6027091C702882777FD8095982F0E9433
:103A6000E53A0E94B23A882777FD8095982F0E9408
:103A7000E53A6D837E838F8398876091C802709149
:103A8000C902882777FD8095982F0E94E53A0E9409
:103A9000B23A882777FD8095982F0E94E53A69878A
:103AA0007A878B879C876D857E858F85988920E0B6
:103AB00030E040E050E00E94F13B7B018C01C2010C
:103AC000B10129813A814B815C810E94F13B9B01CC
:103AD000AC01C801B7010E9468397B018C01C401A7
:103AE000B3012D813E814F8158850E94F13B9B019E
:103AF000AC01C801B7010E9468397B018C01C60185
:103B0000B50129853A854B855C850E94F13B9B0177
:103B1000AC01C801B7010E9468396DA37EA38FA3D1
:103B200098A76D857E858F85988929813A814B81FB
:103B30005C810E94F13B7B018C01C201B10120E05C
:103B400030E040E050E00E94F13B9B01AC01C80135
:103B5000B7010E9469397B018C01C401B301298539
:103B60003A854B855C850E94F13B9B01AC01C80105
:103B7000B7010E9469397B018C01C601B5012D8115
:103B80003E814F8158850E94F13B9B01AC01C801E9
:103B9000B7010E94683969A77AA78BA79CA76D8592
:103BA0007E858F8598892D813E814F8158850E9421
:103BB000F13B7B018C01C201B10129853A854B851E
:103BC0005C850E94F13B9B01AC01C801B7010E94DA
:103BD00068397B018C01C401B30120E030E040E092
:103BE00050E00E94F13B9B01AC01C801B7010E946B
:103BF00069397B018C01C601B50129813A814B816C
:103C00005C810E94F13B9B01AC01C801B7010E949D
:103C100069396DA77EA78FA798AB6D857E858F8547
:103C2000988929853A854B855C850E94F13B7B010B
:103C30008C01C201B1012D813E814F8158850E94C6
:103C4000F13B9B01AC01C801B7010E9469397B01BE
:103C50008C01C401B30129813A814B815C810E94AE
:103C6000F13B9B01AC01C801B7010E9468397B019F
:103C70008C01C601B50120E030E040E050E00E9438
:103C8000F13B9B01AC01C801B7010E94693969ABE6
:103C90007AAB8BAB9CAB57FA509457F8509497FA89
:103CA000909497F89094D7FAD094D7F8D0946DA1C7
:103CB0007EA18FA198A5A20191010E94F13B7B01F9
:103CC0008C0169A57AA58BA59CA52D853E854F8580
:103CD00058890E94F13B9B01AC01C801B7010E94C9
:103CE00069397B018C016DA57EA58FA598A9A601D8
:103CF00095010E94F13B9B01AC01C801B7010E94F4
:103D000069397B018C0169A97AA98BA99CA9A401B5
:103D100093010E94F13B9B01AC01C801B7010E94D5
:103D200068390E94B23A882777FD8095982F0E94C3
:103D3000E53A20E030E040E858E30E94F13B609330
:103D400090027093910280939202909393026DA1DE
:103D50007EA18FA198A5A40193010E94F13B7B0154
:103D60008C0169A57AA58BA59CA5A60195010E9449
:103D7000F13B9B01AC01C801B7010E9468397B018E
:103D80008C016DA57EA58FA598A92D853E854F85B3
:103D900058890E94F13B9B01AC01C801B7010E9408
:103DA00069397B018C0169A97AA98BA99CA9A20117
:103DB00091010E94F13B9B01AC01C801B7010E9437
:103DC00069390E94B23A882777FD8095982F0E9422
:103DD000E53A20E030E040E858E30E94F13B609390
:103DE00094027093950280939602909397026DA12E
:103DF0007EA18FA198A5A60195010E94F13B7B01B0
:103E00008C0169A57AA58BA59CA5A40193010E94AC
:103E1000F13B9B01AC01C801B7010E9469397B01EC
:103E20008C016DA57EA58FA598A9A20191010E9484
:103E3000F13B9B01AC01C801B7010E9468397B01CD
:103E40008C0169A97AA98BA99CA92D853E854F85EE
:103E500058890E94F13B9B01AC01C801B7010E9447
:103E600069390E94B23A882777FD8095982F0E9481
:103E7000E53A20E030E040E858E30E94F13B209131
:103E8000A8023091A9024091AA025091AB020E946F
:103E90006839609398027093990280939A02909384
:103EA0009B026091C2027091C302882777FD8095C2
:103EB000982F0E94E53A20E030E043E851E40E9468
:103EC0004A3A6093840270938502809386029093AD
:103ED00087026091C0027091C102882777FD8095AA
:103EE000982F0E94E53A20E030E043E851E40E9438
:103EF0004A3A609388027093890280938A02909371
:103F00008B026091BE027091BF02882777FD809579
:103F1000982F0E94E53A20E030E043E851E40E9407
:103F20004A3A60938C0270938D0280938E02909334
:103F30008F028091D5029091D60201969093D6027D
:103F40008093D50204C0A8E3BFEFBEABADAB8DA993
:103F50009EA9E6960FB6F894DEBF0FBECDBFCF91F7
:103F6000DF911F910F91FF90EF90DF90CF90BF9066
:103F7000AF909F908F907F906F905F904F903F9009
:103F80002F900895CF93DF938091F7029091F802DC
:103F900062E370E00E94E73C8091D5029091D602E6
:103FA0008617970718F4C1E0D0E047C089EF92E088
:103FB00060E070E00E94C511EC019093CC02809308
:103FC000CB020097D1F56091F9027091FA0288272F
:103FD00077FD8095982F0E94E53A60939C0270933C
:103FE0009D0280939E0290939F026091FB027091CC
:103FF000FC02882777FD8095982F0E94E53A609310
:10400000A0027093A1028093A2029093A3026091F8
:10401000FD027091FE02882777FD8095982F0E94FF
:10402000E53A6093A4027093A5028093A602909350
:10403000A7021092D6021092D502CE01DF91CF9145
:104040000895EF92FF920F931F938B017A01709363
:10405000F8026093F7021092D6021092D5020E94E5
:10406000E2080E94300980E090E0A0E0B0E0809398
:10407000A8029093A902A093AA02B093AB0280E099
:1040800090E00E9441139093CC028093CB0289E789
:104090000E94E7109093CC028093CB0280ED97E0D2
:1040A0000E94FF0B9093CC028093CB0282E00E948F
:1040B000A60B9093CC028093CB0282E390E00E9407
:1040C000100B9093CC028093CB028BEC92E00E9479
:1040D000120A88E70E94980D9093CC028093CB023D
:1040E00080E090E00E949E150E94BD150E94211A5A
:1040F0009093CC028093CB02C7010E944818909302
:10410000CC028093CB02C8010E9403189093CC028A
:104110008093CB0281E00E94DA0F9093CC028093CF
:10412000CB0280E791E00E944C199093CC028093DF
:10413000CB0280E090E01F910F91FF90EF900895E7
:10414000FC0180E090E0A0E0B0E080879187A2874A
:10415000B38784839583A683B78380839183A28367
:10416000B383808F918FA28FB38F848B958BA68B17
:10417000B78B848F958FA68FB78F84A395A3A6A3A3
:10418000B7A380A391A3A2A3B3A384879587A6878F
:10419000B787808B918BA28BB38B80E090E00895E2
:1041A00020E030E040E050E0FC012487358746877E
:1041B000578708952F923F924F925F926F927F920E
:1041C0008F929F92AF92BF92CF92DF92EF92FF9227
:1041D0000F931F93CF93DF93EC013A014B0118012A
:1041E0002901CB01BA012C813D814E815F810E9462
:1041F000F13BA20191010E94F13B2C853D854E854A
:104200005F850E9469395B016C016C877D878E87B1
:104210009F87E88CF98C0A8D1B8DA80197010E945D
:10422000E63B181664F017FB109517F91095C601B8
:10423000B501A80197010E94463A882324F4EC8630
:10424000FD860E871F8768A179A18AA19BA1A20183
:1042500091010E944A3A9B01AC01C401B3010E9442
:104260006839688B798B8A8B9B8BECA0FDA00EA1A3
:104270001FA1A80197010E9468392EEB39ED4CE58A
:104280005FE30E94F13B9B01AC01C801B7010E94B2
:1042900069395B016C01688B798B8A8B9B8BC401BC
:1042A000B301288139814A815B810E94F13B2C85D1
:1042B0003D854E855F850E9469397B018C01C60171
:1042C000B501288539854A855B850E94F13B9B01B4
:1042D000AC01C801B7010E9468396C8F7D8F8E8F49
:1042E0009F8FEC88FD880E891F89A80197010E9485
:1042F000E63B181624F4EC8EFD8E0E8F1F8F8C89F2
:104300009D89AE89BF897C018D0117FB109517F936
:1043100010956C8D7D8D8E8D9F8DA80197010E94CB
:10432000463A882324F4EC8EFD8E0E8F1F8F68A2F0
:1043300079A28AA29BA288899989AA89BB898CA320
:104340009DA3AEA3BFA3DF91CF911F910F91FF90CB
:10435000EF90DF90CF90BF90AF909F908F907F9025
:104360006F905F904F903F902F900895CF93DF9381
:10437000EC018091440390E0860F911D80349105FB
:104380000CF042C0FE01462F30E05CE80DC02081F9
:1043900098E0822F8327369580FD3527915011F0C4
:1043A0002695F7CF31964150442389F7FE01E60F59
:1043B000F11D30836F5F20E030E070E040E421C009
:1043C00080914303803410F0109243039091430393
:1043D000E92FF0E0EB5BFC4FDE01A20FB31F8C91E5
:1043E00080839F5F90934303809144038F5F80930A
:1043F000440380914403813410F0409344032F5FC1
:104400003F4F26173707E4F2DF91CF910895CF93FE
:10441000DF93EC018091020390E004970CF451C00B
:10442000DE0120E030E0809102038823F1F09091DA
:10443000010380910203981740F480910203E091F8
:104440000103F0E0E05CFF4F05C0E09101038091C3
:104450000203F0E0E81BF109ED5FFC4F80818C93D3
:10446000809102038150809302032F5F3F4F11968A
:1044700024303105C1F6FE0130E043E05CE80CC0B9
:10448000208198E0822F8327369580FD3527915033
:1044900011F02695F7CF3196415090F78B81381760
:1044A00019F420E030E00FC08091FF0290910003EA
:1044B0000196909300038093FF02109201031092E3
:1044C00002032FEF3FEFC901DF91CF9108951F92B3
:1044D0000F920FB60F9211242F938F939F93EF9308
:1044E000FF932EB5809144038823F9F09091430304
:1044F00080914403981740F480914403E091430372
:10450000F0E0E05CFF4F05C0E0914303809144037D
:10451000F0E0E81BF109EB5BFC4F80818EBD8091E0
:10452000440381508093440301C01EBC8091010369
:10453000803410F01092010380910103E82FF0E025
:10454000ED5FFC4F20838F5F809301038091020316
:104550008F5F8093020380910203813418F080E41E
:1045600080930203FF91EF919F918F912F910F9074
:104570000FBE0F901F9018958093690560936A0590
:1045800070936B0589E695E063E00E94B62108957B
:104590006091590570915A0580915B0590915C0579
:1045A0000E94B23A9B01AC018EE1B9010E94BC228B
:1045B00060913605709137058091380590913905E5
:1045C0000E94B23A9B01AC018FE1B9010E94BC226A
:1045D00060913A0570913B0580913C0590913D05B5
:1045E0000E94B23A9B01AC0180E2B9010E94BC2258
:1045F00008956F927F928F929F92AF92BF92CF92C7
:10460000DF92EF92FF920F931F93CF93DF9320E9F6
:10461000A22E22E0B22E9DE8692E95E0792E89E93E
:10462000882E85E0982E6301E401F501E080F18099
:1046300002811381C801B701F601208131814281D5
:1046400053810E94463A88232CF4F601E082F182DD
:1046500002831383C801B701288139814A815B81B4
:104660000E94E63B181624F4E882F9820A831B8331
:1046700084E090E0A80EB91EC80ED91E24969CE9CD
:10468000A91692E0B90689F680915F0564E10E945F
:10469000DB3C992341F514E10F2EF0E0CF2EF0E042
:1046A000DF2EF0E0EF2EF0E0FF2EF02DF401608120
:1046B00071818281938120E030E04AE754E40E94D6
:1046C000F13B0E94B23A9B01AC01812FB9010E94DB
:1046D000BC22F401C192D192E192F1924F011F5F8D
:1046E000173121F729C09A3039F519E10F2EF0E082
:1046F000CF2EF0E0DF2EF0E0EF2EF0E0FF2EF02DD9
:10470000F301608171818281938120E030E04AE78A
:1047100054E40E94F13B0E94B23A9B01AC01812F0C
:10472000B9010E94BC22F301C192D192E192F192AF
:104730003F011F5F1C3121F7DF91CF911F910F9136
:10474000FF90EF90DF90CF90BF90AF909F908F90B1
:104750007F906F9008951F93CF93DF93C4E8D2E0CA
:1047600011E0699179918991999120E030E048ECCC
:1047700052E40E94F13B0E94B23A9B01AC01812FAE
:10478000B9010E94BC221F5F143059F7DF91CF910D
:104790001F9108951F93CF93DF93C8E7D2E015E0F0
:1047A000699179918991999120E030E048EC52E447
:1047B0000E94F13B0E94B23A9B01AC01812FB901EA
:1047C0000E94BC221F5F183059F7609165057091F7
:1047D0006605809167059091680520E030E048EC1F
:1047E00052E40E94F13B0E94B23A9B01AC0188E086
:1047F000B9010E94BC22DF91CF911F9108951F93B0
:10480000CF93DF93C3E9D3E01AE069917991812FC7
:104810000E94BC221F5F1E30C1F7DF91CF911F9114
:104820000895809162058330C9F0843028F4813086
:1048300041F0823099F508C08430C1F0853071F5BF
:1048400024C00E94F922089580915F0564E10E94CE
:10485000DB3C9923A9F40E94AB23089580915F0566
:104860006AE00E94DB3C9923C9F407C080915F0590
:1048700064E10E94DB3C992319F40E94FF23089510
:104880009A3061F40E94CA23089580915F0564E123
:104890000E94DB3C992311F40E94C8220895FC0178
:1048A0008181882321F470E060E090E032C0908143
:1048B0008181A381B481981748F43181208182815C
:1048C00090E0820F911D831B910905C08081218199
:1048D00090E0821B9109880F991F880F991FA80FDC
:1048E000B91F8D919D910D90BC91A02D80938E0646
:1048F00090938F06A0939006B0939106818181508A
:10490000818370918E0660918F06909190068091C0
:104910009106272F362F492F582FB901CA01089524
:104920000F931F9307E813E0C8010E94CE37C80118
:1049300003960E94CE37C80106960E94CE37C80162
:1049400009960E94CE371F910F9108956F927F9222
:104950008F929F92AF92BF92CF92DF92EF92FF928F
:104960000F931F93CF93DF938091850590918605D8
:10497000019690938605809385058155934C18F098
:104980008FEF809360050E942C1A9093860380938A
:104990008503892B09F0A1C0C0918705D0918805B6
:1049A000C83CD10510F5C431D105D0F0609189051E
:1049B00070918A0580918B0590918C0520919802C9
:1049C0003091990240919A0250919B020E9469395C
:1049D0006093890570938A0580938B0590938C056D
:1049E0002196D0938805C0938705609084027090CB
:1049F00085028090860290908702C401B30120E076
:104A000030E040E85FEB0E94E63B18160CF065C012
:104A1000A0908802B0908902C0908A02D0908B0248
:104A2000C601B50120E030E040E85FEB0E94E63BC4
:104A300018160CF052C0E0908C02F0908D0200919C
:104A40008E0210918F02C801B70120E030E040E8EB
:104A50005FEB0E94E63B18160CF03FC0C401B301A7
:104A600020E030E040E85FE30E94463A8823ACF55E
:104A7000C601B50120E030E040E85FE30E94463A1D
:104A800088235CF5C801B70120E030E040E85FE32F
:104A90000E94463A88230CF560918705709188053D
:104AA0006451704080E090E00E94E33A9B01AC01C9
:104AB0006091890570918A0580918B0590918C0594
:104AC0000E944A3A6093A8027093A9028093AA02B6
:104AD0009093AB0220E030E002C02FEF3FEFC9011E
:104AE000DF91CF911F910F91FF90EF90DF90CF90CA
:104AF000BF90AF909F908F907F906F9008950F938D
:104B00001F9307E813E06091A1037091A203C8010D
:104B10000E94E8376091A1037091A203C801039637
:104B20000E94E8376091A1037091A203C801069624
:104B30000E94E8376091A1037091A203C801099611
:104B40000E94E8371F910F9108952F923F924F9244
:104B50005F926F927F928F929F92AF92BF92CF920D
:104B6000DF92EF92FF920F931F93DF93CF93CDB716
:104B7000DEB72C970FB6F894DEBF0FBECDBF809185
:104B80008405882309F061C00E94C21F90938603A8
:104B9000809385030E942C1A90938603809385034B
:104BA00097FF09C00E947F258DEF8093600581E00B
:104BB000809384055AC580915F058F5F80935F0560
:104BC000883C11F410925F050E948E33209180057D
:104BD000309181054091820550918305621B730BD2
:104BE000840B950B0E94E33A20E030E04AE754E45E
:104BF0000E944A3A60937C0570937D0580937E0500
:104C000090937F050E948E33609380057093810599
:104C1000809382059093830580917C0590917D051A
:104C2000A0917E05B0917F058D839E83AF83B88769
:104C3000BC01CD012AE037ED43E25CE30E94E63B94
:104C4000181634F48EEF809360050E947F250DC501
:104C50008091560518160CF051C28150809356056C
:104C6000609198027091990280919A0290919B02B2
:104C700020E030E845E754E40E94F13B1B012C01A1
:104C800060931A0570931B0580931C0590931D0576
:104C900060912E0570912F0580913005909131051E
:104CA000209152053091530540915405509155057E
:104CB0000E94F13B2D813E814F8158850E94F13B3E
:104CC0009B01AC0160912205709123058091240520
:104CD000909125050E9469395B016C016093220562
:104CE000709323058093240590932505E0902E056D
:104CF000F0902F050091300510913105C801B701E2
:104D000020914E0530914F0540915005509151052D
:104D10000E94F13B2D813E814F8158850E94F13BDD
:104D200020913A0530913B0540913C0550913D055D
:104D30000E94693969877A878B879C87C801B70188
:104D400020914A0530914B0540914C0550914D05FD
:104D50000E94F13B2D813E814F8158850E94F13B9D
:104D60009B01AC0160912605709127058091280573
:104D7000909129050E9469393B014C0160932605F9
:104D8000709327058093280590932905C201B101EE
:104D9000A60195010E9469392D813E814F81588578
:104DA0000E94F13B7B018C0160932A0570932B05D7
:104DB00080932C0590932D0520E030E040E05FE3E8
:104DC0000E94F13B9B01AC0169857A858B859C85AE
:104DD0000E9469392D813E814F8158850E94F13BA7
:104DE00020913205309133054091340550913505BD
:104DF0000E9469395B016C01609332057093330541
:104E00008093340590933505A40193010E9469397C
:104E10006093360570933705809338059093390574
:104E200069857A858B859C85A80197010E946939DF
:104E300060933A0570933B0580933C0590933D0544
:104E40009091110580911305981711F41092110596
:104E500020911105822F90E0880F991F880F991FCC
:104E6000E0911405F0911505E80FF91FA082B182B9
:104E7000C282D3822F5F20931105909112058091F9
:104E80001305981728F4809112058F5F80931205FF
:104E90006091590570915A0580915B0590915C0570
:104EA00020913605309137054091380550913905EC
:104EB0000E9468395B016C0160933E0570933F0569
:104EC0008093400590934105E090C104F090C204A6
:104ED0000091C3041091C404C801B701A80197014F
:104EE0000E946939A80197010E94F13B9B01AC0126
:104EF00060E070E08AE793E40E944A3A7B018C010B
:104F00006093160570931705809318059093190503
:104F1000A80197010E9469399B01AC01C601B50146
:104F20000E94E63B18167CF4C601B501A801970162
:104F30000E94683920E030E04AEF53E40E94F13BE0
:104F40000E94583C20C0C801B70120E030E040E09A
:104F500050EC0E94F13B9B01AC01C601B5010E94DF
:104F6000463A8823CCF4C601B5019058A8019701B0
:104F70000E94683920E030E04AEF53E40E94F13BA0
:104F80000E94583C9058609342057093430580936B
:104F90004405909345051EC000917C0510917D0548
:104FA00020917E0530917F0581EC94E0B601A5014A
:104FB0000E94DA208091DD049091DE04A091DF044C
:104FC000B091E0048093420590934305A09344057B
:104FD000B093450560914205709143058091440569
:104FE0009091450520913A0530913B0540913C0553
:104FF00050913D050E946839AB01BC0100917C05D0
:1050000010917D0520917E0530917F0589EE94E019
:105010000E94DA20E0901E05F0901F050091200507
:105020001091210560910505709106058091070595
:105030009091080520911A0530911B0540911C059F
:1050400050911D050E946839A80197010E94683996
:1050500023E833EA44EE5DE30E94F13B9B01AC019F
:10506000C801B7010E946939AB01BC01CA01DB016B
:1050700080931E0590931F05A0932005B0932105F2
:1050800000917C0510917D0520917E0530917F0572
:1050900089E994E00E94DA208091570590915805A3
:1050A000892BD9F060915D0570915E05882777FDA9
:1050B0008095982F0E94E53A2091B5043091B6046E
:1050C0004091B7045091B8040E9469390E94B23AE5
:1050D000709374056093730515C0809136059091A7
:1050E0003705A0913805B091390580935905909303
:1050F0005A05A0935B05B0935C0504C01092580557
:1051000010925705E0906505F090660500916705DF
:1051100010916805A0907802B0907902C0907A0250
:10512000D0907B02C801B701A60195010E946839A1
:1051300020E030E044E353EC0E94463A88235CF4DC
:10514000D801C701B0588093650590936605A09378
:105150006705B0936805E0906505F09066050091DD
:10516000670510916805C801B701A60195010E9465
:10517000683920E030E044E353E40E94E63B18162F
:105180005CF4D801C701B05880936505909366051B
:10519000A0936705B0936805E0908002F0908102CB
:1051A0000091820210918302C801B70120E030E033
:1051B00040E050E00E94E63B18165CF4C801B701DD
:1051C00020E030E048E452E40E94E63B18165CF030
:1051D00012C0C801B70120E030E048E452EC0E9460
:1051E000463A882344F4A0926505B0926605C092C1
:1051F0006705D0926805E0907C02F0907D020091F6
:105200007E0210917F02C801B70120E030E040E04B
:1052100050E00E94E63B18165CF4C801B70120E09C
:1052200030E048E452E40E94E63B18165CF012C0FD
:10523000C801B70120E030E048E452EC0E94463A51
:10524000882344F4A0926505B0926605C092670574
:10525000D092680580916105882309F093C0409140
:105260006D0550916E05CA019C0197FF03C03095F2
:1052700021953F4FE0907C05F0907D0500917E05E3
:1052800010917F052830310524F1CA016AE070E0F1
:105290000E94FB3C882777FD8095982F0E94E53A75
:1052A000AB01BC018DE194E0980187010E94DA20F6
:1052B0008091780290917902A0917A02B0917B025C
:1052C0008093650590936605A0936705B093680584
:1052D00014C0609165057091660580916705909195
:1052E0006805A60195010E946839AB01BC018DE1FA
:1052F00094E0980187010E94DA2060917605772773
:1053000067FD709520916F0530917005620F731FD6
:10531000882777FD8095982F0E94E53A20917C029E
:1053200030917D0240917E0250917F020E94683947
:10533000AB01BC0100917C0510917D0520917E059B
:1053400030917F0585E494E00E94DA206091770532
:10535000772767FD70952091710530917205620F76
:10536000731F882777FD8095982F0E94E53A20913A
:1053700080023091810240918202509183020E940A
:10538000683955C0813009F060C080916D059091F9
:105390006E056AE070E00E94FB3C882777FD8095EF
:1053A000982F0E94E53AAB01BC0100917C05109159
:1053B0007D0520917E0530917F058DE194E00E946E
:1053C000DA2060916F0570917005882777FD8095D0
:1053D000982F0E94E53A20919504309196044091CF
:1053E0009704509198040E94F13BAB01BC010091DD
:1053F0007C0510917D0520917E0530917F0585E427
:1054000094E00E94DA2060917105709172058827FE
:1054100077FD8095982F0E94E53A20919504309170
:10542000960440919704509198040E94F13BAB017F
:10543000BC0100917C0510917D0520917E05309185
:105440007F058DE694E00E94DA20F9E3CF2EF4E0A8
:10545000DF2EE4E8AE2EE2E0BE2E6624772478E26A
:10546000872E912C689C7001699CF00C789CF00C44
:105470001124A5EAB3E0EA0EFB1EF60160817181FA
:1054800082819381D5012D913D914D915D915D0179
:105490000E946839AB01BC0100917C0510917D052B
:1054A00020917E0530917F05C7010E94DA20089483
:1054B000611C711CE8E2F0E0CE0EDF1EF3E06F1617
:1054C000710481F66091730570917405882777FDEA
:1054D0008095982F0E94E53A1B012C0180911104C0
:1054E00090911204A0911304B091140489839A83BB
:1054F000AB83BC83C201B10129813A814B815C81BC
:105500000E9469395B016C01E090E903F090EA03C5
:105510000091EB031091EC036090C1037090C20303
:105520008090C3039090C403A80197010E9468393A
:10553000A40193010E9469390E94B23A70939403C6
:1055400060939303C601B501A80197010E946939D0
:10555000A40193010E9468390E94B23A70939603A5
:1055600060939503C201B10129813A814B815C812D
:105570000E9468395B016C01A80197010E9468399B
:10558000A40193010E9468390E94B23A7093980373
:1055900060939703C601B501A80197010E9469397C
:1055A000A40193010E9469390E94B23A70939A0350
:1055B000609399030E941124209173053091740522
:1055C0008091A3039091A4032817390758F50E94EE
:1055D0007F258091780290917902A0917A02B09112
:1055E0007B028093650590936605A0936705B09351
:1055F000680585EA93E00E94D0208DE194E00E9446
:10560000D0208DEC93E00E94D02085E494E00E94AD
:10561000D02085EF93E00E94D0208DE694E00E9498
:10562000D02023C063E9E62E63E0F62E00E010E010
:10563000D7016D917C918091A3039091A403681789
:10564000790708F4BC01F701619371937F01C801E8
:10565000880F991F800F911F89579C4F0E94E83730
:105660000F5F1F4F0430110519F72C960FB6F894F1
:10567000DEBF0FBECDBFCF91DF911F910F91FF9085
:10568000EF90DF90CF90BF90AF909F908F907F90E2
:105690006F905F904F903F902F90089580E991E038
:1056A00060E00E94CD0680E00E94C9378CE061E096
:1056B0000E9430348CB580648CBD8CB580688CBD04
:1056C0000895EF92FF920F931F93B5EAEB2EB3E08C
:1056D000FB2EC7010E94A0200DE114E0C8010E942A
:1056E000A020C70188960E94A020C80188960E9429
:1056F000A02085EF93E00E94A0208DE694E00E9418
:10570000A02089E994E00E94A02089EE94E00E9404
:10571000A02081EC94E00E94A020109212058091BC
:10572000120501E115E0F80181938F018FE080936C
:1057300013058CE390E00E94C33480931405F801B4
:10574000938380E090E0A0E0BFE3809346059093D0
:105750004705A0934805B09349058AE999E9A9E16D
:10576000BFE380934A0590934B05A0934C05B093FB
:105770004D058FE892ECA5EFBDE380934E05909325
:105780004F05A0935005B09351058DEC9CECACEC0B
:10579000BDE38093520590935305A0935405B093B5
:1057A000550580E090E0A0E0B0E08093650590931F
:1057B0006605A0936705B093680510925F05109287
:1057C0006005109261051092620528E830E0309380
:1057D000A00320939F03109200031092FF021092E7
:1057E00079051092780510927B0510927A05109237
:1057F0005805109257058093590590935A05A09328
:105800005B05B0935C0510925E0510925D05809378
:105810001A0590931B05A0931C05B0931D0580935A
:105820001E0590931F05A0932005B093210580933A
:10583000220590932305A0932405B093250580931A
:10584000260590932705A0932805B09329058093FA
:105850002A0590932B05A0932C05B0932D058093DA
:105860002E0590932F05A0933005B09331058093BA
:10587000320590933305A0933405B093350580939A
:10588000360590933705A0933805B093390580937A
:105890003A0590933B05A0933C05B0933D051F91BD
:1058A0000F91FF90EF900895FC01880F991F8E0FC4
:1058B0009F1FE556FC4F608189579C4F70E00E9406
:1058C000A3380895AF92BF92CF92DF92EF92FF92EA
:1058D0000F931F93CF93DF938091A5058823A1F4A5
:1058E00085EA95E00E949137892B71F00E948E33F2
:1058F0006093B1057093B2058093B3059093B4059E
:1059000085EA95E00E949B370E948E332091B10575
:105910003091B2054091B3055091B405621B730BF1
:10592000840B950B6558734080409040A0F0109216
:105930005805109257051092740510927305109235
:105940007205109271051092700510926F051092F9
:105950006E0510926D0589E695E00E940722892B5D
:1059600009F020C61091690590916B0580E02091A7
:105970006A05C22FD0E0C82BD92B812F8D508230E1
:1059800050F40E948E336093B1057093B2058093FA
:10599000B3059093B405143609F47EC3153608F0A8
:1059A00076C0153109F4F6C11631A0F51B3009F4A3
:1059B0001BC11C30B0F4193068F4153008F004C174
:1059C000133009F4E9C0143008F0F9C0123009F0BE
:1059D000E9C5DFC0193009F4FDC01A3009F0E2C58D
:1059E000FEC01F3009F45FC1103138F41D3009F4D6
:1059F00005C11E3008F007C1FCC0113109F4BDC15A
:105A0000113108F45DC1123109F4BCC1143109F03F
:105A1000C9C5BDC1113509F48BC21235E0F4173484
:105A200009F424C2183450F4153409F4B9C11634F9
:105A300008F00CC2163109F0B5C5AFC1193409F42C
:105A40003BC2193408F422C21A3409F44BC210358F
:105A500009F0A8C55DC21A3509F4BCC21B3550F463
:105A6000133509F48BC2133508F472C2143509F0EA
:105A700099C59AC21C3509F4CDC21C3508F4BAC2C6
:105A80001D3509F4DDC21E3509F08CC5EFC21A3C84
:105A900009F454C41B3C08F045C0123709F4A0C3F4
:105AA000133708F5183609F439C3193660F4163679
:105AB00009F40DC3BE01882777FD8095982F17360E
:105AC00008F01BC3F9C21F3609F44EC3103720F487
:105AD0001E3609F067C538C3103709F455C31137AE
